:020000040000FA
:10000000201D0020750200007D0200007F0200001C
:1000100000000000000000000000000000000000E0
:10002000000000000000000000000000810200004D
:1000300000000000000000008302000085020000B4
:10004000870200008702000087020000870200008C
:10005000870200008702000087020000870200007C
:10006000870200008702000087020000ED570000B1
:10007000870200008702000087020000870200005C
:10008000870200008702000087020000870200004C
:10009000870200008702000087020000870200003C
:1000A0008702000087020000D53E0000093F0000E3
:1000B000870200008702000087020000870200001C
:1000C00000F002F800F0AAF80CA030C80838241894
:1000D0002D18A246671EAB4654465D46AC4201D180
:1000E00000F09CF87E460F3E0FCCB6460126334208
:1000F00000D0FB1AA246AB463343184758B800005D
:1001000078B800000023002400250026103A01D30F
:1001100078C1FBD8520700D330C100D50B607047BF
:1001200010B56E2902D101F0B3F910BD702902D1CA
:1001300001F0F5FA10BD662902D1C046C04610BDD7
:10014000652902D1C046C04610BD672902D1C0460C
:10015000C04610BD612902D1C046C04610BD03682B
:100160001B0A01D380231943692902D101F05AF9EE
:1001700010BD642902D101F055F910BD752902D1D5
:1001800001F050F910BD6F2902D101F073FA10BDD2
:10019000782902D101F0B0FA10BDE92902D101F0AD
:1001A0000FFA10BDE42902D101F00AFA10BDF529B9
:1001B00002D101F005FA10BDEF2902D101F066FA73
:1001C00010BDF82902D101F0A5FA10BD0368DB09C2
:1001D00001D380231943632902D101F08BFC10BDA8
:1001E000732902D101F08EFC10BDE32902D101F088
:1001F00098FC10BDF32902D101F09BFC10BD00203A
:1002000010BD1FB501F05AFD0400002000210BF0C5
:10021000ABF9401C60601FBD10B510BD01F0ECFCD7
:100220001146FFF7EEFF0BF03BF901F00DFD03B4B3
:10023000FFF7F2FF03BC01F045FD000070B5054675
:100240000C46164602E00FCC0FC5103E102EFAD217
:10025000082E02D303CC03C5083E042E07D301CCDD
:1002600001C5361F03E021782970641C6D1C761EC1
:10027000F9D270BD0748804707480047FEE7FEE710
:10028000FEE7FEE7FEE7FEE704480549054A064BA0
:1002900070470000F1550000C1000000200D002053
:1002A000201D002020150020201500207CB51D46B3
:1002B00016460C00009001D00019401E084B7B44EC
:1002C0002A4669460190304601F0FBF8002C0546AD
:1002D00003D06946002001F007F928467CBD0000E4
:1002E00031120000034610B50B439B070FD1042ABF
:1002F0000DD308C810C9121FA342F8D018BA21BAEA
:10030000884201D9012010BD0020C04310BD002A41
:1003100003D0D30703D0521C07E0002010BD0378A0
:100320000C78401C491C1B1B07D103780C78401C1F
:10033000491C1B1B01D1921EF1D1184610BDF8B506
:10034000042A2CD3830712D00B78491C0370401C5D
:10035000521E83070BD00B78491C0370401C521EA1
:10036000830704D00B78491C0370401C521E8B0776
:100370009B0F05D0C91ADF002023DE1B08C90AE045
:10038000FFF75CFFF8BD1D4608C9FD401C46B440A0
:100390002C4310C0121F042AF5D2F308C91A521EAA
:1003A000F0D40B78491C0370401C521EEAD40B7821
:1003B000491C0370401C012AE4D409780170F8BD7F
:1003C00001E004C0091F0429FBD28B0701D502807C
:1003D000801CC90700D00270704700290BD0C307EA
:1003E00002D00270401C491E022904D3830702D5A3
:1003F0000280801C891EE3E70022EEE70022DFE78F
:10040000002203098B422CD3030A8B4211D3002311
:100410009C464EE003460B433CD4002243088B42EB
:1004200031D303098B421CD3030A8B4201D3944678
:100430003FE0C3098B4201D3CB01C01A524183096B
:100440008B4201D38B01C01A524143098B4201D325
:100450004B01C01A524103098B4201D30B01C01A50
:100460005241C3088B4201D3CB00C01A52418308CA
:100470008B4201D38B00C01A524143088B4201D3F7
:100480004B00C01A5241411A00D201465241104657
:1004900070475DE0CA0F00D04942031000D34042CC
:1004A000534000229C4603098B422DD3030A8B4202
:1004B00012D3FC22890112BA030A8B420CD38901A0
:1004C00092118B4208D3890192118B4204D3890186
:1004D0003AD0921100E08909C3098B4201D3CB01C4
:1004E000C01A524183098B4201D38B01C01A524179
:1004F00043098B4201D34B01C01A524103098B427D
:1005000001D30B01C01A5241C3088B4201D3CB0067
:10051000C01A524183088B4201D38B00C01A52414A
:10052000D9D243088B4201D34B00C01A5241411A21
:1005300000D20146634652415B10104601D340424F
:10054000002B00D54942704763465B1000D3404200
:1005500001B50020C046C04602BD704770477047D5
:100560000246C80FC00781434B0030B54B405B00CB
:100570009B0D20D01923DB06C91801231B059942C6
:1005800020DB0324A40704251346AB400BD3002B28
:1005900004D1EB0613409B00E34204D4012464071A
:1005A000002312195941FF231B0599420BD2C900A0
:1005B0000143500F09E0CB0204D501430803024375
:1005C00005D0054830BDFF21C905084330BD0846A8
:1005D00007210905884330BD0000C07FF0B50C46F7
:1005E000871A9C410D46861A9D4103D2C01BA1412A
:1005F000D21963410D0D1F0DC94EEC1BAE435CD0EB
:100600007F057F0D0026002F51D02D05AC46A94354
:10061000DD020123ED0A1B051D4320231B1B24D4EF
:100620001746E740381871412F46E740CC199D40E6
:100630002818314661410C0D27D161449A4013D5E9
:100640000023401C594152000ED1400840000122B5
:100650004B005205D34207D305204007C14201D5C4
:10066000B04900E0B0493046F0BD6B00002A00D030
:1006700001229A181F23203C1B1B01D5002302E0F6
:10068000E540281871410C0DD7D001242405091923
:10069000C407CD0740084908E40F28436144002CF3
:1006A000D5D00024401C61419A40D0D1CDE76A05E5
:1006B000520DD9D1C90FC907D5E79C4D4E0000286E
:1006C00001D0012400E0002434195F00002A01D089
:1006D000012600E00026BE19954FAC420CD8AE4270
:1006E0000AD8B44206D001256D05EC42BCD01046B4
:1006F0001946F0BD9942FCD000203946F0BDF0B556
:100700001FB40C460F46811A9F412546861A9D410B
:1007100006D20125ED076F40401ABC4152187B41BB
:10072000210D1E0D8D1BAC467D4D8D437ED0750574
:100730006D0D7CD00D05AE46AC431B031B0B794DF4
:1007400052429D41202366469B1B14D31746F74017
:10075000381800260090744160462F460741E4197E
:1007600000989D402818664116D4714671189A4029
:1007700025D5012320E093182A466A415200002B18
:1007800000D0521C1E23203E9B1B002B61DD3541F7
:10079000EE1728186641E8D5001876415B1C9A4090
:1007A00000D3401C4B05F3181524E34010D3002B55
:1007B00052D071467118D30FC01802D3491C05B02E
:1007C000F0BD0123DB079A42F9D140084000F6E76B
:1007D00001225205B21801D1002853D00123CC0ABE
:1007E000DB029943891E002A08D1020C03D0020CB7
:1007F0000004103902E00246002020390023550B86
:1008000005D112020823550B01D152010D23550CBD
:1008100001D112011B1DD50C01D192009B1C150D9D
:1008200001D152005B1C2025EE1A01E02CE022E0F1
:100830000546F54015439840CA1AE10769181305A3
:10084000C918002ABBDA032040070818C10FC907DE
:100850000FE071466118B2E7F107400808437110D4
:1008600071444A000CD001235B059A42A7D2C90FFC
:10087000C9070020A3E74905490D26D1002001E062
:100880000028F4D100219AE7284D6600002801D005
:10089000012100E0002171185F00002A01D001262B
:1008A00000E00026BE19224FA94210D8AE420ED851
:1008B000B14208D001256D05E94206D01946A802CB
:1008C000414010467BE79C4201D0214677E700205B
:1008D000394674E710B50C465C4005D50124E407A1
:1008E0006340FFF70CFF10BDFFF778FE10BD30B47A
:1008F0000C465C4004D50124E407634030BC6DE63F
:1009000030BCFCE670B50124E40761400D465D4053
:1009100002D4FFF763FE70BD6340FFF7F0FE70BDC9
:10092000FF0700000000F0FF0000F07F0000E0FF84
:100930000000F87FF0B5F94D0C091E092C402E403F
:100940002F468BB0A7437DD0B543FCD0002E7AD084
:10095000002CFCD00D465D40ED0F2543AC1BFF2560
:10096000AD0464190894C502440DC9022143500D19
:10097000DC0204430120C00701430443D202019179
:10098000200C110C00958C46010423468B430A91E0
:1009900061460904E24D8A430991010A7D444919DF
:1009A0008039097805464D4301266D18F605751BFB
:1009B0006943C90C640B891C4C436418B5012C1B9A
:1009C000250C2E04B4434C434D43210C691889096E
:1009D0000591009DE90701D00121C90704912C462A
:1009E00001996708CD072F434C08059DE10B4D4346
:1009F0002D0C29466646754302950D4645432E4605
:100A0000029D7D1BB44100950D465D4301942C0C65
:100A10002F040D465543AE462D0C3D4302950394DD
:100A20007546049C2D04641B049406D2029C039D0D
:100A3000641C002675410395029401AC70CC009FA4
:100A40007D1B01E03EE162E1B4410904009507919C
:100A500001940599A4086143090C0C464443650BB5
:100A6000E7040C4666467443A646640B3C43039574
:100A700002947446049DE4042C1B049406D2029C48
:100A8000039D641C002675410395029401AC70CC53
:100A9000009F7D1BB44101940C465C430095650F9B
:100AA000E7000C465443A646640F3C43039502946A
:100AB0007446049DE4002C1B049406D2029C039D02
:100AC000641C002675410395029401AC70CC009F14
:100AD0007D1BB441AE09AF06049DC900AD092F438B
:100AE000049DA406AD060495079D3443691807913B
:100AF000059DE10B4D432D0C294666467543029535
:100B00000D4645432E46029D7D1BB44100950D4682
:100B10005D4301942C0C2F040D465543AE462D0C1D
:100B20003D43029503947546049C2D04641B049474
:100B300006D2029C039D641C002675410395029415
:100B400001AC70CC009F7D1BB44101948C050694D0
:100B5000079C890A611800950791019C0599A408D2
:100B60006143090C0D464543680BEF040D4664468E
:100B700065436C0B3C43049FED047D1BAC4602D2E5
:100B80000025641C6841009E019D371B8541084675
:100B9000584301950C46460FC5005443600F284347
:100BA0006546E4002C1B02D20025401C6E41019DCD
:100BB0003F1AB5412846BD09800628438446A0094E
:100BC000BF064E020699A40676180743079D00202B
:100BD00068410A99079019430020099B00906046DC
:100BE000FF1913434041E20F64003A43A446044610
:100BF000D71A8C41A04203D90120009020463A46E2
:100C0000C70F941840416246D20F224364466400E5
:100C10000494009CBE466400D71AA446044602977A
:100C20008C417746002F01D1A04204D96046401C78
:100C30008446029A2046C40FA64694184041049A5E
:100C40000546D20F224364466400D31A8D41714693
:100C5000002901D1A84202D928461A46641C104333
:100C60000122002800D0164361020020079B891949
:100C700004465C410223002C02DB49181346644100
:100C8000089DCE0A2D145D194B056705E10A2C0558
:100C90000D1908993E43C9076940002B08D09340BD
:100CA00006D30022761C5141002B01D17608760034
:100CB0001C4A002D43DB154241D0AA433FD03046A9
:100CC0000BB0F0BD06180D464D41174C7642AC41B5
:100CD0001AD395181C465C41134A6D42A24113D3A6
:100CE000012252054C00D4420AD15C00D4420BD000
:100CF0004B4002D592021143E2E749004908DFE781
:100D00005940C90FC90718E000200849D8E705482D
:100D100001420DD10342F7D0F2E700000000FF07C7
:100D2000B0AE00000000F07F0000E0FF0000F87FA0
:100D3000114859400143C01241400020C0E701233F
:100D4000089A9B069A4205DC032252078918C90FAC
:100D5000C907B5E7052252078918074A1143D2127D
:100D60005140ADE770B515461C4602460B46284675
:100D70002146FFF7DFFD70BDFFFFFF7F30B5034663
:100D8000CA02400D1043164D164C0A1502D02043DE
:100D9000002A06DBAA1A002A12DDD040FF2A0BDC4B
:100DA00030BD5205520D01D140004008AA1A07D4A7
:100DB000D0404042FF2A01DD002030BD0028FCDD8C
:100DC0004A00002B01D0012000E000201018012271
:100DD0005205D042F0D8C817C043604030BD000073
:100DE0001E040000000000800346CA02400D10B53A
:100DF00010430A1504D00124E4072043002A05DB30
:100E00000A4CA21A04D4D040FF2A00DD002010BDF5
:100E10004A00002B01D0012000E000201018012220
:100E20005205D042F2D8C817C04310BD1E040000BE
:100E30001F22030C02D10F22000402D0030E03D0A4
:100E400004E00020014670470002083A030F01D178
:100E50000001121F830F01D18000921E002801DBC8
:100E60004000521E120551184205C012411810468A
:100E70007047C10FC90700D04042012292071143B9
:100E8000D6E701218907D3E7F0B58B4C0F0925463A
:100E900089B0BD437BD01D092646AE43FAD00E462D
:100EA0005E402740F60F3E43254071D02401214289
:100EB000FBD0FF24AD19A4042D1B039501252D059E
:100EC000DB02DB0AC9022B43C90A29431E010901BF
:100ED000040F130F050121431701880B820391436F
:100EE0002D098C46A90B1E438A039543B30B9A0325
:100EF00096433F09BA0B9403A74302962E467E43BE
:100F00000497B6464E19D7190C46019654430597D7
:100F10007E43371B7646BF1B3601B646BE0B3619DD
:100F200000967646BC043719009C01D3641C0094DB
:100F30006400002F01D001263443029E049F7543B4
:100F400066467E430496760034196E003419009488
:100F5000029C019E1C196643751BAE4606946546AD
:100F60004519059C05956C43594375460891691AC6
:100F70000191049E01465143A41B0491611A009CF7
:100F80000791E10605D061090122114302E072E0F8
:100F90006EE06109089D00272C0A2D066918049D42
:100FA0007C412A0A2D066918019D6241AC0DAD02F3
:100FB0006D185441079A910D920255196141029A98
:100FC000644658435443069B059A5A43121A131B0E
:100FD0009A0E9B015B187A41010B0005C318514121
:100FE000220A200644195A419A4200D2491C012083
:100FF0004002814203D315230226F64302E0142364
:101000000326F6432020C51AA9401746AF40DA4010
:101010000A4320460399D84009147318190551183A
:10102000039A3843D2075140AC4009D00122944082
:1010300006D30022401C5141002C01D14008400041
:101040001E4A934212D3012203989206904207DB74
:101050000520400709181A480143C012414004E026
:10106000032040070818C10FC907002009B0F0BDD0
:101070000020F107FAE705180C464C4111486D4273
:10108000A04115D394181A465A410E486442904123
:101090000ED301204A004005824209D35A00824201
:1010A00006D35940C90F084AC90700201143DDE79C
:1010B00000200649DAE700000000FF07FE070000F5
:1010C000FFFFFF7F0000E0FF0000F07F0000F87FDF
:1010D0000121C9050123411842001B06D3185B0EEC
:1010E0000AD0C1100722D206891840075242D142C5
:1010F00001D5520089187047090208D50146002A17
:1011000003D0C10FC9070020704710467047420244
:1011100002D0002002497047072109050143F4E786
:101120000000F87FF0B5FF252D04C609C209FF278E
:1011300004462E400137CB093E4348402A402B400D
:101140000746002A6BD0002B69D0AA4267D0AB4279
:1011500065D0002800DA32460125ED0529432C43ED
:1011600009022002090AD21A4B0C7F24E31A434CCD
:10117000000A7C44E35C7D242404121914145B00EF
:10118000A218884201D3521C00E0400049420C469C
:101190005C4324115C43DB016415E318040A5C43DF
:1011A000C502200D0C4644436419250A5D43230300
:1011B000EC0C0D46654300030019EB184C42A342AA
:1011C00001D35B18401CD4052018002B07D05B000E
:1011D000C91804D3401C002901D1400840003F2118
:1011E00089048A4209D3002A08DC1106090F04D0B9
:1011F000032149074018C00FC007F0BD012241007C
:10120000120689187F2252069142F6D2052149071B
:10121000C84201D59010F0BDFF20C005F0BD002FE1
:1012200000DA32461648AA4207D2AB4205D219026A
:10123000090E17D0F80FC007F0BDFF2563002D067B
:10124000AB42F9D84900A942F6D8AB4201D1A94234
:10125000F2D0A94201D1002101E061004908D00586
:101260000843F0BD1102090EFBD0FF200243D00558
:10127000F0BD0A460146104654E700005AA7000098
:101280000000C07F10B501469E240002CA15A307C6
:10129000002A02D01843002A04DBA21A002A0CDD1F
:1012A000D04010BD1206120E01D140004008A21A13
:1012B00003D4D04040420028F3DDFF22480012064C
:1012C000904201D9002010BDC817C043584010BD3E
:1012D0000102C21504D00123DB071943002A0ADBEF
:1012E0009E239A1A02D40846D0407047FF2241003C
:1012F0001206914201D900207047C017C0437047C1
:101300001F22030C02D10F2200041CD0030E01D1B6
:101310000002083A030F01D10001121F830F01D10F
:101320008000921E002801DB4000521ED205511899
:10133000021251181922904004D3491C002801D1EF
:101340004908490008467047C10FC90700D040420C
:10135000012292071143D3E701218907D0E770B535
:10136000044685690068C10601D5302600E02026C4
:10137000C00707D070BD62683046A1689047206AF8
:10138000401C20626D1EF6D570BD70B5044685699F
:101390000078C00707D170BD6268A168202090471F
:1013A000206A401C20626D1EF6D570BD09684A0592
:1013B00001D540B27047C905FCD500B27047096835
:1013C0004A0501D5C0B27047C905FCD580B2704747
:1013D00070B50C460546012A05D02878800600D550
:1013E000EA69002302E0012305E05B1C934202D27C
:1013F000E05C0028F9D1A869E618C01AA861286A3B
:10140000C01828622846FFF7AAFF04E06A6820781F
:10141000A968641C9047B442F8D32846FFF7B5FF8B
:1014200070BD0000F7B5002575291068009914A655
:1014300011D0FFF7BBFF002802DA404211A608E0F6
:10144000009909688A0701D50FA602E0490704D56B
:101450000EA6012501E0FFF7B2FF009F002424370C
:1014600004E000F08AFB30313955641C0028F8D1C3
:101470002B4632462146009800F0D9FAFEBD000006
:10148000000000002D0000002B00000020000000E4
:1014900011680268006A530501D5087009E0D30598
:1014A00001D5088005E0130602D5C21705C100E08A
:1014B000086001207047000001694A1C0261087839
:1014C000704700B58FB00291002105910549019345
:1014D0007944039111460490684600F02DF90FB04D
:1014E00000BD0000E5FFFFFF0A681070521C0A6093
:1014F00070474B680A689A4202D2531C0B60107006
:1015000070470000F7B50446154686B02B4878446E
:10151000002703C83E460090019111E007986A46F3
:101520007100415A02A800F008FB411C07D0217845
:10153000890603D5E269391891420ED83F18761C06
:101540002078800602D5E069B84206DDAE42E5DBD0
:1015500007987100405A0028E0D1A069C01BA06123
:101560002046FFF7FCFE154878445A3803C800901F
:101570000020019116E041006A460798415A02A8EE
:1015800000F0DBFA0590401C0AD0002505E06268F7
:1015900002A8A168405D90476D1C05988542F6D36E
:1015A0000498401CB0420490E5DB206AC019206218
:1015B0002046FFF7EAFE09B0F0BD0000FEA30000E0
:1015C000F7B5D21D0025D20815A6D200F52905CA07
:1015D00011D0002A05DA00214042914111A60A46A5
:1015E00008E0009909688B0701D50FA602E04907BA
:1015F00001D50EA601251146009F0024243704E0E2
:1016000000F0D8F930323A55641C02460A43F7D14B
:101610002B4632462146009800F009FAFEBD000034
:10162000000000002D0000002B0000002000000042
:1016300070B504460021243408E05507D2086D0F28
:10164000303565545D072A43DB08491C15461D43A8
:10165000F3D10468002310A2250708D520252C40CB
:101660000C4304D0C46901230CA2641EC46100F0C1
:10167000DEF970BD10B5044621461068FFF79FFEE5
:10168000002302462046FFF7D3FF10BDD21DD1082C
:10169000C9000CC9CCE700000000000030000000C9
:1016A000F8B50F460188090502D5224C7C4402E0BA
:1016B000204C7C440E3405460021243508E01607F2
:1016C0001209360FA65D6E541E0732431B09491CD2
:1016D00016461E43F3D1224604780023240705D57D
:1016E000702F06D0002901D00223113200F09FF99B
:1016F000F8BD01231032F9E770B504460D462146C6
:101700001068FFF75CFE0023024629462046FFF7DB
:10171000C7FF70BDD21DD308DB000CCBC0E730B4CF
:10172000036820241268234303600823C36130BC8C
:101730000023B5E768A20000F3B50446002081B09D
:1017400020622046E1688847002872D0252802D010
:101750006268A168ABE0594F00267F442046E168EB
:1017600088472028054608DB312D06D27819203815
:101770000078002801D00643F0E7B00701D5042027
:1017800086430020E0610746A0612A2D0AD0284642
:1017900009F0CCFD002827D0B8000019303D00909A
:1017A000856119E00298BA00121902C8916102908D
:1017B0002046E1688847012F054617D1E0690028D7
:1017C0001FDA202086431CE000980A2180694843E4
:1017D00000994019303888612046E16888470546FD
:1017E00009F0A4FD0028EFD1012F0AD02E2D08D139
:1017F0002046E16888470546202006437F1C022FCB
:10180000C3DBA069002803DA4042A061012006433F
:10181000F00701D0102086436C2D0BD0682D09D025
:101820004C2D3CD06A2D38D0742D38D07A2D36D03E
:1018300016E040E0E1682F4620468847B84205465A
:1018400009D16C2F29D001208002E168064320468F
:101850008847054604E06C2F1DD0FF200130064369
:10186000002D28D028464138192803D80120C0026D
:1018700006432035204626602946029A1646FEF782
:101880004FFC002810D001280BD0F61DF008C00036
:101890000830029055E74020E1E78020D5E700209E
:1018A000D3E7361D02964CE762682846A168904748
:1018B000206A401C44E7206AFEBD0000E2A100004F
:1018C000F8B5224C4E00069DA6420AD8A64201D188
:1018D000002806D15E00A64203D8A6420AD1002AFB
:1018E00008D00D24240425422CD02946002000F0E5
:1018F00059F9F8BD0C461C430CD4994202D0EFF3C1
:101900000080F8BD904202D0EFF30080F8BDEFF305
:101910000080F8BD09242407E5008B4206D0EFF3D0
:101920000080A043591A06D2284304E0101A05D3B8
:10193000EFF30080A04380F30088F8BDEFF3008050
:10194000A043F1E7009500F045F9F8BD0000E0FF85
:1019500010B5FF231B0644009C421DD84C009C423E
:101960001AD80346124A0B4307D4401A02D3EFF3A6
:10197000008010BDEFF3008010BD081A06D2EFF30F
:10198000008001219043C907084302E0EFF3008083
:10199000904380F3008810BD0D231B041A4204D02D
:1019A0001146002000F0FEF810BD00F01DF910BD3A
:1019B000000000900B4670B5024689078008084376
:1019C00019469D08141AA941250908070543080965
:1019D0002C194841250A01060D43010A2C194141E1
:1019E000200C0D0428430D0C00194D410021401915
:1019F0004D41C00869070843E908840F8D0025435D
:101A0000840024184D4124196D41121BAB4107E09D
:101A10000925ED432C11521963410024401C6141FA
:101A20001C460A250026551BB441F1D270BDFFB5F6
:101A300004460D4681B0243000902168880604D504
:101A40001022E0699143216000E00120A84201DDFD
:101A5000471B00E000270498A1697A191018081A9A
:101A6000A0612078C00602D42046FFF778FC00264B
:101A700008E003986268A168805D9047206A401C76
:101A8000761C206204988642F3DB2078C0060AD5D3
:101A90002046FFF764FC06E06268A16830209047AA
:101AA000206A401C206238467F1E0028F4DC07E0D4
:101AB00000986268A168405D9047206A401C2062DF
:101AC00028466D1E0028F3DC2046FFF75EFC2078D8
:101AD000000602D5022005B0F0BD0120FBE710B5DD
:101AE0004369002B02D0C046C04601E0FFF770FCFE
:101AF000012010BD1278014624310A7000224A707C
:101B00000122ECE711680022D243E8E710B54369EF
:101B1000002B02D0C046C04601E0FFF7F3FC0120D5
:101B200010BD12880146243182840022C284012221
:101B3000ECE711680022D243E8E770B516460C4680
:101B4000054600F079F80368FF200230C05C0128E8
:101B500007D0FF2C0ED8185D00280BD001202C7068
:101B600070BDFF333246214608331868C318284633
:101B7000984770BD0020C04370BD01468008081A18
:101B800002091018020A1018020C1018C00882006E
:101B900012185200891A01E0401C0A390A29FBD2A6
:101BA00070470000CA0211D54A03520F002A04D020
:101BB000C803C043012188407047054AEFF3008104
:101BC00008010009104380F3008870470020704727
:101BD0000000003010B500200249029A00F03AF8E7
:101BE00010BD00000000F87F10B5024800F032F888
:101BF00010BD00000000C07F754600F05BF8AE46E7
:101C0000050069465346C008C000854618B020B597
:101C1000FEF73AFB60BC00274908B6460026C0C55F
:101C2000C0C5C0C5C0C5C0C5C0C5C0C5C0C5403D94
:101C300049008D467047000010B500F03FF8001DC8
:101C400010BD00BF259900000446C046C04620468E
:101C5000FEF7EDFA10B50C461107090F092904D05B
:101C60000A290AD008290CD104E011460820FFF700
:101C700099FF06E0510606D501E0510601D5012085
:101C8000C007214610BDD10607D501010909CC08BE
:101C90004907000E0006044309E0410F20024907EE
:101CA000000A0143200E00061D22D14101430846CF
:101CB000E7E7000000487047BC0C00200048704770
:101CC000DC0C002001491820ABBEFEE72600020014
:101CD000024670B50A4392072AD11E4DEE0104C890
:101CE00008C9541B9443344017D0D0B2D9B2401A1B
:101CF0002106014310D190B299B2401A2104014348
:101D00000AD110021902000A090A401A21020143ED
:101D100002D1100E190E401A70BD9A42DFD010BACF
:101D200019BA884201D9012070BD0020C04370BD9E
:101D300002780B78401C491C002A09D09A4207D12E
:101D400002780B78401C491C002A01D09A42EFD03F
:101D5000D01A70BD01010101704770B58C1805786B
:101D6000401C6B075B0F01D10378401C2A1106D180
:101D70000278401C03E00678401C0E70491C5B1E74
:101D8000F9D12B0705D40023521E0DD40B70491C2A
:101D9000FAE70378401CCB1A921C03E01D780D7003
:101DA000491C5B1C521EF9D5A142D8D3002070BD3E
:101DB00070B504460D46012D76D1230009F0A2FA34
:101DC00008053C75B0F3F1F0EF3B0020FD49486099
:101DD0000846007860218843FA4908700846007870
:101DE00008218843F7490870084600780221884393
:101DF000F44908700846007804218843F1490870C6
:101E0000002000F0D9FAEF48007810218843ED490E
:101E10000870002000F012FB0121092002F044FEAE
:101E200000BFE9A1EAA009F0B3FAC922E949EAA092
:101E300009F0AEFA00BF2FE1E24800784007C00F7A
:101E4000002830D1DF4800780007C00F00282AD1D1
:101E5000DC4800788007C00F002824D1D9480078DA
:101E6000C006C00F002817D0D6480078022188434A
:101E7000801CD44908700846007810218843D14955
:101E80000870002000F0DAFACE480078602188431C
:101E90002030CC49087006E0CA4800780221884307
:101EA000801CC8490870F7E0F7E00120D24988702B
:101EB000C44800784007C00F002830D1C1480078DE
:101EC0000007C00F00282AD1BE4800788007C00F45
:101ED000002824D1BB480078C006C00F002817D0C6
:101EE000B848007802218843801CB649087008462B
:101EF000007810218843B3490870002000F09EFA52
:101F0000B0480078602188432030AE49087006E070
:101F1000AC48007802218843801CAA490870BBE0C5
:101F20000120B549C870A74800784007C00F0028B5
:101F300030D1A44800780007C00F00282AD1A1485A
:101F400000788007C00F002824D19E480078C00682
:101F5000C00F002817D09B48007802218843801CBE
:101F60009849087008460078102188439549087000
:101F7000002000F063FA9348007860218843203005
:101F80009049087006E08F48007802218843801C41
:101F90008C4908700021082002F086FD7CE073E087
:101FA0005CE020E0FFE7874800784007C00F00288A
:101FB00018D184480078C006C00F002812D181488B
:101FC00000788007C00F00280CD17E4800780007F9
:101FD000C00F002806D17B480078082188430830CC
:101FE0007849087058E001208349487175480078A5
:101FF0004007C00F002830D1724800780007C00F9A
:1020000000282AD16F4800788007C00F002824D10B
:102010006C480078C006C00F002817D069480078C7
:1020200002218843801C6749087008460078102107
:10203000884364490870002000F000FA6148007885
:102040006021884320305F49087006E05D480078D1
:1020500002218843801C5B4908701DE059480078C4
:102060004007C00F002805D156480078C006C00FB1
:10207000002804D00021092002F016FD03E0012110
:10208000092002F011FD07E04E48007880218843C6
:1020900080304C49087000BF54E1002DFCD1230072
:1020A00009F030F9080506074DC5FDFBFA0548E1C2
:1020B00047E10020504988700846807800283DD1CB
:1020C0000846C078002839D108464079002835D123
:1020D0003C494860084600786021884339490870C7
:1020E0000846007808218843364908700846007879
:1020F0000221884333490870084600780421884348
:1021000030490870002000F057F92E48007810215F
:1021100088432C490870002000F090F90121092023
:1021200002F0C2FC00BF28A129A009F031F9FF226A
:102130003B32284931A009F02BF900BF01E1002012
:102140002D49C8700846807800286BD10846C078B1
:10215000002867D108464079002863D119494860B2
:1021600008460078602188431649087008460078C0
:1021700008218843134908700846007802218843E3
:102180001049087008460078042188430D490870FA
:10219000002000F011F90B4800781021884309490C
:1021A0000870002000F04AF90121092002F07CFCAF
:1021B00000BF05A106A009F0EBF8FF224E32054949
:1021C0002CE02FE0340600206C6F673D3E000000DD
:1021D00025730000FAB7000025733A25643A2045BC
:1021E000787465726E616C5F436F6E74726F6C5F52
:1021F00053746F70210A00003C06002025733A25B5
:10220000643A20456D657267656E63795F537461EA
:10221000727420636C6F7365210A00004AA009F094
:10222000B7F800BF0121082002F03EFC89E04E48CB
:102230000078C006C00F002805D14B480078000781
:10224000C00F002827D00020474948600846007882
:102250006021884344490870084600780821884373
:102260004149087008460078102188433E490870AB
:10227000002000F0E3F800BF3C493DA009F088F8D9
:10228000FF225B323B493CA009F082F800BF0121EC
:10229000092002F009FC54E04CE046E0FFE7002092
:1022A0003C4948710846807800283DD10846C078EE
:1022B000002839D108464079002835D12A4948609C
:1022C000084600786021884327490870084600784E
:1022D0000821884324490870084600780221884371
:1022E0002149087008460078042188431E49087077
:1022F000002000F061F81C480078102188431A493A
:102300000870002000F09AF80121092002F0CCFBAF
:1023100000BF164916A009F03BF8FF226F3215499D
:102320001DA009F035F800BF0BE00121092002F0E3
:10233000BBFB06E00C480078802188430A490870FE
:1023400000BF00BF70BD000025733A25643A2044E9
:10235000796E616D69635F436F6E74726F6C206339
:102360006C6F7365210A000034060020C82100004C
:1023700025730000FAB7000025733A25643A204C13
:102380006F775F53706565645F46616E20636C6F45
:1023900073650A003C06002025733A25643A2048FC
:1023A0006967685F53706565645F46616E20636C42
:1023B0006F7365210A00000010B50446012C24D17A
:1023C0001B480078C009002814D00021084602F0FC
:1023D0006BFB0021012002F067FB0121002000F0CF
:1023E00067F800210D2002F05FFB01210E2002F0B2
:1023F0005BFB1CE047200F4908700F48407800093C
:102400000001401C0C49487011E0002C0FD1012143
:10241000002002F049FB0121084602F045FB0021A3
:10242000084600F045F801210D2002F03DFB10BDEB
:102430003406002094010020E004002010B504467A
:10244000012C20D117480078C009002810D00021A5
:10245000022002F029FB0121084600F029F80021A2
:102460000E2002F021FB01210D2002F01DFB18E0DF
:1024700047200D4908700D48407800090001401CB4
:102480000A4948700DE0002C0BD10121022002F016
:102490000BFB0021012000F00BF801210E2002F0BF
:1024A00003FB10BD3406002094010020E00400204E
:1024B00030B505460C461A48807EA8420CD1012C46
:1024C00004D10021032002F0EFFA05E0002C03D133
:1024D0000121032002F0E8FA1148C07EA8420CD185
:1024E000012C04D10021042002F0DEFA05E0002CCA
:1024F00003D10121042002F0D7FA0948007FA84245
:102500000CD1012C04D10021052002F0CDFA05E008
:10251000002C03D10121052002F0C6FA30BD0000D5
:102520006C070020F0B5A1B005460C46A01E82B293
:10253000294601A802F063FAA21E01A94DA008F0E5
:1025400027FF042252A101A802F046FA00280CD16C
:1025500051A008F01DFF5AA008F01AFF61A008F072
:1025600017FF6AA008F014FF7DE004226FA101A804
:1025700002F032FA00282ED16846407A3038C6B2CE
:1025800031466CA008F004FF002E06D0012E09D0C1
:10259000022E0DD0032E17D110E0002002F092FB86
:1025A000074612E00D20000602F08CFB07460CE007
:1025B0000720400602F086FB074606E00F200006D3
:1025C00002F080FB074600E000BF00BF39465DA077
:1025D00008F0DEFE47E009225EA101A802F0FCF946
:1025E000002805D15EA008F0D3FE02F0AFFB3AE070
:1025F0000A2260A101A802F0EFF9002803D160A02F
:1026000008F0C6FE2FE00B2262A101A802F0E4F957
:10261000002803D162A008F0BBFE24E0062265A1D9
:1026200001A802F0D9F900281DD164A008F0B0FE7D
:10263000C82000F00BF900BF00BF00BF00BF00BF03
:10264000BFF34F8F00BF00BF00BF60486049C86044
:1026500000BF00BF00BFBFF34F8F00BF00BF00BF70
:1026600000BF00BFFDE78022002101A802F0D4F9DD
:1026700021B0F0BD64656275676275663A25732C9A
:1026800020E995BFE5BAA63A2564200A00000000BB
:1026900068656C70000000000909092020202020D6
:1026A00020202020200920E68EA7E588B6E591BDF0
:1026B000E4BBA4E68F90E7A4BA76312E30200A005E
:1026C0000909092068656C70090909093AE698BE8C
:1026D000E7A4BAE591BDE4BBA4E4BFA1E681AF20C5
:1026E0000A0000000909092073686F7720696E6687
:1026F0006F0909093AE698BEE7A4BAE58F82E69524
:10270000B0E4BFA1E681AF200A000000090909205A
:102710007265626F6F74090909093AE9878DE69657
:10272000B0E590AFE58AA8200A00000074657374D4
:102730000000000009090920206E756D3B2564200A
:102740000A00000009090920206E756D3B2530380C
:1027500078200A0073686F7720696E666F0000004A
:10276000E698BEE7A4BAE58F82E695B0E4BFA1E69D
:1027700081AF0A0073686F77206465627567000037
:10278000E68993E5BC806465627567E698BEE7A458
:10279000BA0A0000636C6F73652064656275670038
:1027A000E585B3E997AD6465627567E698BEE7A411
:1027B000BA0A00007265626F6F740000E6ADA3E5AF
:1027C0009CA8E9878DE590AF0A0000000400FA0597
:1027D00000ED00E01CB510A103C901910090082292
:1027E00069460FA008F0AAFD00BF0FA110A008F0D5
:1027F000CFFD28220F4910A008F0CAFD00BF00BF7E
:1028000010A10BA008F0C4FD29220A490AA008F073
:10281000BFFD00BF1CBD0000112233445566778800
:1028200074657374000000006C6F673D3E0000002B
:1028300025730000BCB7000025733A25643A200ACE
:10284000000000006572723D3E000000044A1268FC
:10285000111800BF024A12688A42FBD37047000079
:102860000000002010B503220121002001F0AEFB82
:102870000C4802780021012001F0A8FB09484278A9
:102880000021022001F0A2FB0648827800210320EB
:1028900001F09CFB0348C2780021042001F096FB64
:1028A00010BD000004000020FF2201328A40826433
:1028B00070470168490849000160704701680122BA
:1028C00011430160704730B502461046062908D80A
:1028D000CC00031D1B5901242343CD00041D63516B
:1028E00003E0C36B01242343C36330BDFCB503463F
:1028F00000BFB448834201D1012000E0002000283D
:1029000001D100BFFEE700BF00BF486900280DD01D
:10291000012424034869A04208D064004869A04209
:1029200004D0032424034869A04201D1012000E01F
:102930000020002801D100BFFEE700BF00BF88696A
:10294000002802D08869012801D1012000E0002080
:10295000002801D100BFFEE700BF00BF4868002883
:102960000AD04868402807D00124A4024868A04241
:1029700002D04868002801D1012000E00020002892
:1029800001D100BFFEE700BF00BF0869002805D0E5
:102990000869202802D00869102801D1012000E030
:1029A0000020002801D100BFFEE700BF00BF0124C6
:1029B000E4028868A04210D0886800280DD0A410D6
:1029C0008868A04209D08868002806D0641088680A
:1029D000A04202D08868002801D1012000E0002038
:1029E000002801D100BFFEE700BF1020764CE46A4A
:1029F0000443754DEC6200BF00934C69104601948E
:102A0000009B1C4606280BD8C600251DAD59032681
:102A10003603B543019E3543C600271DBD5106E070
:102A2000E56B03263603B543019E3543E56300BFDE
:102A300000938C6810460194009B1C4606280BD816
:102A4000C600251DAD590126F602B543019E35434A
:102A5000C600271DBD5106E0E56B01267602B54391
:102A6000019E3543E56300BF00934C681046019416
:102A7000009B1C4606280AD8C600251DAD594026D5
:102A8000B543019E3543C600271DBD5106E0E56BE9
:102A90000126B602B543019E3543E56300BF0093AE
:102AA0000C6910460194009B1C46062809D8C600F4
:102AB000251DAD593026B543019E3543C600271D5F
:102AC000BD5100BF8869012817D110460193019BB1
:102AD0001C46062808D8C600251DAD5908263543D2
:102AE000C600271DBD5103E0E56B08263543E563AD
:102AF00000BF072A16D10020FCBD10460193019BA0
:102B00001C46062808D8C600251DAD590826B54321
:102B1000C600271DBD5103E0E56B0826B543E563FC
:102B200000BF00BF072A42D000BF0868002821D09C
:102B3000FF2401340868A0421CD064000868A04249
:102B400018D0032424020868A04213D00124A40250
:102B50000868A0420ED0052424020868A04209D0CB
:102B6000032464020868A04204D0072424020868F1
:102B7000A04201D1012000E00020002801D100BFC7
:102B8000FEE700BF00930C6810460194009B1C46B2
:102B900006280AD8C600251DAD5907263602B543BA
:102BA000019E3543C600271DBD5100BF08E0C8681F
:102BB000DC6BFF250135AC430443DC6300BF00BF81
:102BC000012099E700040040000200400246906C9A
:102BD00001238B401B02184001238B401B029842AB
:102BE00001D1012070470020FCE7026C01647047AE
:102BF00070B503461846062A08D8D500041D2C19BE
:102C00006468D600051D7519696001E0446C416473
:102C100070BD70B503461846062A09D8D500041DB4
:102C20006459A4B20D042C43D600051DAC5104E038
:102C3000C46BA4B20D042C43C46370BD0648006984
:102C4000042108430449086108460069012108433A
:102C5000014908617047000000E000E001210162C5
:102C60007047416902229143416141690122114348
:102C70004161704741694908490041614169022247
:102C80001143416170470146086A0722520410400F
:102C900070470146086A012292021040800A70477C
:102CA0000146086AFF2201321040000A70470146BF
:102CB000086AC007C00F01225040504070470146CB
:102CC000086A012252021040400A70470021C9439D
:102CD00081617047F8B505460C460026012700BF04
:102CE0004448854201D1012000E00020002801D1A4
:102CF00000BFFEE700BF00BF002C04D93E4884425D
:102D000001D8012000E00020002801D100BFFEE72B
:102D100000BF202000F086FCA007800F002801D013
:102D20000020F8BD2846FFF7AEFF0121C904884204
:102D300001D10020F5E70120800500F07BFC002197
:102D4000284600F0D3F82846FFF78BFF08F0E8FA92
:102D5000009072B62949284600F0CFF82849284645
:102D600000F0CBF8009808F0DEFA2846FFF776FF6F
:102D70000121C90303200A464A43032801D1002345
:102D800000E0C3439B079B0F5A43EB689343EB6000
:102D900000BF1C4820601EE0761C1B4886420ED8EF
:102DA0002846FFF77DFF002809D12846FFF787FF57
:102DB000002804D12846FFF76CFF002801D0002727
:102DC0000AE02846FFF773FF002804D02846FFF7E3
:102DD00045FF012700E0DFE700BF2846FFF776FF49
:102DE0000120800500F00EFC202000F003FC384696
:102DF00097E7000000100040FFFF010096969696AE
:102E0000EAEAEAEACDAB3412FFFF0000FFB587B073
:102E100007460C461C216846FDF7F0FA00BF2F4814
:102E2000874201D1012000E00020002801D100BF2D
:102E3000FEE700BF00BF002C04D92948844201D816
:102E4000012000E00020002801D100BFFEE700BF04
:102E5000E0B2002802D000200BB0F0BD00200690A8
:102E60000120800201904010029040100390400128
:102E70000590072269461B48FFF738FDA10819484D
:102E8000FFF7B3FE0998810807221648FFF7B0FE46
:102E90000A98411E07221348FFF7BBFE072111487D
:102EA000FFF702FD07210F48FFF70DFD0D48FFF763
:102EB00005FD00260DE0761C0B48864201D9002551
:102EC00008E007210748FFF781FE012801D101250D
:102ED00000E0F0E700BF2846BEE700000010004019
:102EE000FFFF010000040040FFFF000042690323D0
:102EF0001B029A430A434261704781617047000098
:102F0000F7B588B007460C461C216846FDF776FAEF
:102F100000BF4548874201D1012000E00020002881
:102F200001D100BFFEE700BF00BF002C04D93F481D
:102F3000844201D8012000E00020002801D100BF18
:102F4000FEE700BFE0B2002802D000200BB0F0BDC9
:102F5000102000F067FB3648FFF7ABFC202000F0A4
:102F600061FB0120800500F065FB3846FFF782FE1B
:102F700008F0D6F9079072B62E493846FFF7BDFF24
:102F80002D493846FFF7B9FF079808F0CCF93846C5
:102F9000FFF770FE00200690019001204002029091
:102FA0004010039040010590072269462048FFF732
:102FB0009DFCA1081E48FFF718FE0A988108072209
:102FC0001B48FFF715FE07223F211948FFF721FE96
:102FD00007211748FFF768FC07211548FFF773FC26
:102FE0001348FFF76BFC00260DE0761C1348864261
:102FF00001D9002508E007210D48FFF7E7FD01286A
:1030000001D1012500E0F0E700BF0948FFF751FCBE
:103010003846FFF75BFE0120800500F0F3FA202020
:1030200000F0E8FA284691E700100040FFFF010099
:1030300000040040A5A5A5A5F1F1F1F1FFFF0000F6
:10304000826A8BB29A438262704702688BB29A435B
:103050000260704782688BB29A4382607047426810
:103060008BB29A4342607047026A8BB29A43026203
:1030700070470246D0698BB218408BB2984201D19A
:10308000012070470020FCE70246D0698BB218404F
:103090008BB2984201D1012070470020FCE700006C
:1030A000F8B506460C460027002500BF6548864255
:1030B0000BD064484030864207D062488030864258
:1030C00003D06048C030864201D1012000E00020DA
:1030D000002801D100BFFEE700BF00BF2068002824
:1030E00005D959492068884201D8012000E0002014
:1030F000002801D100BFFEE700BF00BF60680328C1
:1031000008D06068002805D06068012802D0606897
:10311000022801D1012000E00020002801D100BFD9
:10312000FEE700BF00BFA068012802D0A068002809
:1031300001D1012000E00020002801D100BFFEE7FE
:1031400000BF00BFE068002802D0E068012801D17C
:10315000012000E00020002801D100BFFEE700BFF1
:1031600080203A49896A0143384A916200BF62E08F
:103170000121B940206808400546002D5AD06068FA
:10318000032812D129463046FFF75FFF2946304613
:10319000FFF765FF29463046FFF75CFF00BFB06AC6
:1031A000A9B20843B06200BF2EE029463046FFF7BF
:1031B00047FF6068002806D100BF3068A9B2084305
:1031C000306000BF03E029463046FFF73EFFA068AD
:1031D000002804D129463046FFF73CFF06E000BF37
:1031E000B068A9B20843B06000BF00BFE068002823
:1031F00006D000BF7068A9B20843706000BF03E04A
:1032000029463046FFF72BFF606802280DD1206960
:10321000012806D100BF306AA9B20843306200BF5E
:1032200003E029463046FFF71FFF29463046626813
:1032300000F013F87F1C2068F840002898D1012086
:10324000F8BD0000000C0040FFFF0000000200403D
:1032500042698BB21A434261704730B5C3680C466D
:103260004C4365006419A3430C464C435443234329
:10327000C36030BD01680122114301607047C1681D
:1032800001221143C160704770B504460D46052602
:1032900000BF5348844202D05248844201D10120E9
:1032A00000E00020002801D100BFFEE700BF00BF02
:1032B000686800280ED0686810280BD0686800285D
:1032C00008D06868402805D06868202802D068685F
:1032D000602801D1012000E00020002801D100BFBA
:1032E000FEE700BF00BF2869002808D0FF21013198
:1032F0002869884203D049002869884201D1012009
:1033000000E00020002801D100BFFEE700BF3448E4
:10331000844203D1042000F0ADF905E03148844235
:1033200002D1082000F0A6F96868202804D04028BF
:1033300003D0602807D101E000BF00BF20466968C4
:1033400000F062F80BE068682168102291430143A5
:10335000216000BF0021204600F056F800BF00BFEA
:10336000A868E16A090C09040143E16200BF286909
:1033700021680322120291430143216000BF2868A3
:10338000A16A090C09040143A16200BFE868012891
:1033900006D100BF206880210843206000BF06E0FE
:1033A00000BF206880218843206000BF00BF00BFAD
:1033B000606901210843606100BF00E0761E00BF24
:1033C0002069C007C00F012148404840002801D1B2
:1033D000002EF3D100BF0120206100BF70BD0000AE
:1033E00000380140003C014001460869C007C00F99
:1033F00001225040504070470146C868C007C00FC6
:103400000122504050407047026860239A430A43AB
:1034100002607047F0B587B005460C460020069064
:10342000002600BF5048854201D1012000E0002065
:10343000002801D100BFFEE700BF00BF20680028C0
:103440000DD0012109042068884208D04900206875
:10345000884204D0032109042068884201D1012058
:1034600000E00020002801D100BFFEE700BF00BF40
:103470006068002805D03D496068884201D8012075
:1034800000E00020002801D100BFFEE700BF0120BE
:10349000000600F0D7F8012000053549C96A01434C
:1034A000334AD16200BF20681146C96A0322120460
:1034B000914301432E4AD16200BF2068002807D003
:1034C0009113401A08D0401A0AD0401A10D10BE0CC
:1034D00000F014F906900CE000F0DEF9069008E028
:1034E00000F024FA069004E000F0F8F9069000E0FD
:1034F00000BF00BF606841000698FCF781FF461ED0
:10350000304669691B4A114002041143696100BFDA
:1035100000BF6969490A49020143696100BFFDF7BB
:10352000B0FC002201239B0701910090FDF702FAF5
:103530000022114B03910290FDF7CCF90591049004
:10354000FDF752FC0746E869400A40023843E8614B
:1035500000BF00BF04480068012108430249086019
:1035600000BF012007B0F0BD0024014040420F0021
:1035700040020040FFFF00FE0000E03F0146C86837
:10358000102210400009704710B5FFF757FB00BF2D
:103590000548406A0F210902884305214902401865
:1035A0000149486200BF10BD0002004070B50546E9
:1035B0000C462868032801D90320286020460028EB
:1035C00005DBC206D20E01219140094A116000BFFD
:1035D0002046296801F02CFA2046002806DBC206A6
:1035E000D20E01219140024A803A116000BF70BDA5
:1035F00080E100E00249C96A8143014AD162704713
:10360000000200400249096B8143014A116370477F
:10361000400200400249C96A0143014AD162704731
:10362000400200400249C96A0143014AD162704721
:10363000000200400249096B0143014A11637047CF
:10364000400200400249096B0143014A116370477F
:10365000000200400249096B0143014A11637047AF
:10366000000200400249096B0143014A116370479F
:10367000000200400249496B0143014A516370470F
:103680000002004010B5002400BF1B48C06807219D
:103690000902084005221202811A904218D006DC65
:1036A00000280DD001218902401A1DD10CE0C81F4D
:1036B000F938002810D0FF380138002814D10FE065
:1036C00000F034F9044613E000F030F944080FE04C
:1036D00000F02CF984080BE000F028F9C40807E09A
:1036E00000F024F9040903E000F020F9044600BFCB
:1036F00000BF204610BD00000002004010B50024AD
:1037000000BF1B48C06807210904084005221204B5
:10371000811A904218D006DC00280DD001218904BE
:10372000401A1DD10CE001200004081A10D001211C
:103730000904401A14D10FE0FFF7A4FF044613E078
:10374000FFF7A0FF44080FE0FFF79CFF84080BE0A1
:10375000FFF798FFC40807E0FFF794FF040903E0B0
:10376000FFF790FF044600BF00BF204610BD0000D9
:103770000002004010B5002400BF1B48C0680721AC
:10378000C90408400522D204811A904218D006DCF0
:1037900000280DD001214905401A1DD10CE001205F
:1037A000C004081A10D00121C904401A14D10FE036
:1037B000FFF768FF044613E0FFF764FF44080FE0DB
:1037C000FFF760FF84080BE0FFF75CFFC40807E029
:1037D000FFF758FF040903E0FFF754FF044600BF5A
:1037E00000BF204610BD00000002004070B500245C
:1037F000002500BF2648806902210840002802D029
:10380000022807D103E000F047F8044606E021480B
:10381000046803E000F040F8044600BF00BF00BFAA
:103820001B488069702108400107090F00291FD13A
:103830000011030007F066FD080506080A0C1214C3
:103840001A1C16E0640814E0A40812E0E40810E072
:103850000C212046FCF7D4FD04460AE0240908E0C8
:1038600018212046FCF7CCFD044602E0640900E084
:1038700000BF00BF00BF064880697F2109040840DF
:10388000000C451C204668430446204670BD0000DD
:1038900000020040B8000020002000BF0B49096969
:1038A0000F2212041140002906D001221204891AA5
:1038B00004D0891A06D103E0054805E0054803E075
:1038C000054801E0024800BF00BF70470002004009
:1038D00000127A000024F40000366E01002000BFC0
:1038E0000D49496A032212041140002908D001221F
:1038F0001204891A06D0891A06D0891A08D105E05F
:10390000064807E0064805E0064803E0064801E0EF
:10391000024800BF00BF70474002004000093D0060
:1039200040420F0020A1070090D0030010B50024F2
:1039300000BF1448C0684007400F030007F0E2FCD6
:103940000705090C1A1014171A00FFF7A5FF044603
:1039500014E00D48046811E0FFF748FF04460DE04D
:10396000FFF7BCFF044609E00848046806E00124AC
:10397000E40303E0FFF790FF044600BF00BF2046CA
:1039800010BD000000020040B8000020B40000207C
:1039900070B505460C4600BF7148854202D071489B
:1039A000854201D1012000E00020002801D100BFA4
:1039B000FEE700BF00BF6068002804D0FF2101318E
:1039C0006068884201D1012000E00020002801D178
:1039D00000BFFEE700BF00BFE069002802D0E06939
:1039E000042801D1012000E00020002801D100BFFF
:1039F000FEE700BF00BFA06800280DD001214902EA
:103A0000A068884208D04900A068884204D00321F9
:103A10004902A068884201D1012000E0002000286E
:103A200001D100BFFEE700BF00BFA069002814D08D
:103A3000A069082811D0A06910280ED0A069182804
:103A40000BD0A069202808D0A069282805D0A0693B
:103A5000302802D0A069382801D1012000E00020E0
:103A6000002801D100BFFEE700BF00BF2069002889
:103A700002D02069012801D1012000E000200028A7
:103A800001D100BFFEE700BF00BFE068002802D000
:103A9000E068022801D1012000E00020002801D1C7
:103AA00000BFFEE700BF2E48854203D10120FFF78B
:103AB000D1FD08E02B48854203D10220FFF7CAFD63
:103AC00001E0002070BD6069012806D100BF686870
:103AD00002210843686000BF06E000BF6868022159
:103AE0008843686000BF00BF60682968FF22013218
:103AF00091430143296000BFA0692968382291439E
:103B00000143296000BFE069296804229143014311
:103B1000296000BFA06869680322520291430143F3
:103B2000696000BF2069296849084900014329608C
:103B300000BF20686968FF22013291430143696038
:103B400000BFE0682968022291430143296000BF59
:103B500000BF686801210843686000BF0120B1E729
:103B6000008C01400008014001460869C007C00FF1
:103B700001225040504070470146886970474268B2
:103B800004239A430A434260704742694161704787
:103B9000F8B505460C46002700200090002600BF1F
:103BA000C34885420BD0C348854208D0C2488542ED
:103BB00005D0C248854202D0C148854201D10120CA
:103BC00000E00020002801D100BFFEE700BF00BFD9
:103BD0002068002820D0206804281DD020680828EC
:103BE0001AD020680C2817D02068002814D020682C
:103BF000042811D0206808280ED020680C280BD08B
:103C00002068002808D02068012805D020680228F4
:103C100002D02068032801D1012000E00020002804
:103C200001D100BFFEE700BF00BFA068002808D098
:103C3000A068402805D0A068802802D0A068C028CD
:103C400001D1012000E00020002801D100BFFEE7E3
:103C500000BF00BF2069002805D02069102802D0CD
:103C60002069202801D1012000E00020002801D196
:103C700000BFFEE700BF00BFE068002804D0FF21BE
:103C80000131E068884201D1012000E000200028D5
:103C900001D100BFFEE700BF00BF6069002808D067
:103CA0006069022805D06069012802D06069032894
:103CB00001D1012000E00020002801D100BFFEE773
:103CC00000BF7B48854228D120687E49C96A89089F
:103CD000890001437B4AD16200BF2068002806D0DA
:103CE000012808D002280AD0032810D10BE0FFF7E2
:103CF00005FD00900BE0FFF7CFFD009007E0FFF718
:103D000015FE009003E0FFF7E9FD009000BF00BF43
:103D100061680098FCF774FB461E6648854228D10E
:103D200020686849C96A0C2291430143654AD162FF
:103D300000BF2068002806D0042808D008280AD030
:103D40000C2810D10BE0FFF7D9FC00900BE0FFF737
:103D5000A3FD009007E0FFF7E9FD009003E0FFF707
:103D6000BDFD009000BF00BF61680098FCF748FBF4
:103D7000461E5148854228D120685249C96A0C2202
:103D8000914301434F4AD16200BF2068002806D00A
:103D9000042808D008280AD00C2810D10BE0FFF71F
:103DA000ADFC00900BE0FFF777FD009007E0FFF718
:103DB000BDFD009003E0FFF791FD009000BF00BF44
:103DC00061680098FCF71CFB461E3948854206D105
:103DD0008015FFF747FCA815FFF71CFC30E03548BD
:103DE000854206D14015FFF73DFC6815FFF712FC30
:103DF00026E03148854206D10015FFF733FC28152F
:103E0000FFF708FC1CE02D4885420BD18014FFF71A
:103E100029FCFFF7AFFC009061680098FCF7F0FA0E
:103E2000461E0DE0264885420AD14014FFF71AFCD1
:103E3000FFF7A0FC009061680098FCF7E1FA461ECD
:103E4000207DC007C00F002806D000BF28680121D0
:103E50000843286000BF00BF0221606908400028B5
:103E600005D000BF28680843286000BF00BF00BF1E
:103E7000A869000C00043043A86100BFE06829680D
:103E8000FF22013291430143296000BFA0682968E5
:103E9000C02291430143296000BF20692968302274
:103EA00091430143296000BF01273846F8BD000057
:103EB000001C0140002001400030014000A00140F2
:103EC00000A401404002004001460869C005C00D41
:103ED0007047000010B50A48FFF78EFA00280ED090
:103EE0000748FFF781FA002809D000BF01200449E4
:103EF000086100BF03480068401C0249086010BD0B
:103F0000003801400000002010B500242548FFF7CC
:103F100073FA002845D02348FFF766FA002840D0FE
:103F200000BF01201F49086100BF00BF15E01E4807
:103F3000005D8007C00F00280DD01B48005DFC21EC
:103F400088431949095D8908491C8900FC221140F0
:103F5000084315490855601CC4B2042CE7DB002453
:103F600012E0E0001149085AC005C00F002809D02E
:103F7000E000401840884004400C401CE1000B4A1F
:103F800089184880601CC4B20F2CEADB084800780E
:103F90004006800F002804D005484068401C0449B2
:103FA000486010BD003C01408C010020BC05002091
:103FB0003406002010B50348FFF75CF90248FFF70C
:103FC00059F910BD00380140003C0140FEB50446DF
:103FD0000D4616460D48075D002001900090012017
:103FE0000190002C03D111206946087206E01420CC
:103FF000684307494018805D6946087202A938463F
:10400000019A00F0B1F800900098FEBD98040020DD
:1040100070040020FEB50446144885780026002070
:1040200000900126792069460871324601A9284688
:1040300000F09AF80090132200210120FFF7C6FF3C
:104040000A212046FCF7E6F9C7B23A4600210320D0
:10405000FFF7BCFF0A212046FCF7DCF9CFB23A4655
:1040600000210420FFF7B2FF0098FEBD9804002055
:10407000F8B507460024002F04D0012F16D0022FD8
:104080003FD127E000BF21484068012108431F4974
:10409000486000BF00BF1D48FFF770FA0546641C6A
:1040A000012D02D01A488442F5D12BE000BF1748F9
:1040B0004068022108431549486000BF00BF13480B
:1040C000FFF75CFA0546641C012D02D010488442BB
:1040D000F5D117E000BF0D484068042108430B49A3
:1040E000486000BF00BF00BF0848C0680821084002
:1040F000C60800BF641C002E02D105488442F2D1DC
:1041000000E000BF00BF0020F8BD00000024014017
:10411000FFFF0100014600BF12488069000A00024B
:104120000843104A906100BF00BF00BF0D48C0683F
:104130000222104040080028F7D000BF0220094AA0
:10414000D06000BF00BF1046C06804221040800845
:10415000002800D1704700BF0420024AD06000BF91
:104160000120F7E700240140F7B582B00F4614465E
:10417000802C02DDFF2005B0F0BD002529E00020E5
:104180000190029800F0CDFD002802D0012001909E
:104190000EE0002609E0B85DFFF7BCFF002802D062
:1041A0000120019003E0701CC6B2A642F3DB00BF01
:1041B0000220FFF75DFF002801D001200190019847
:1041C000002804D1029807F07FF8019003E0681CF2
:1041D000C5B2032DD3DB00BF0198CCE710B5002496
:1041E0000B4800788021884380300949087000BF5F
:1041F00006E0E100074A891848688047601CC4B29D
:104200000F2CF6DB00F008F802F0D8FB10BD000020
:1042100034060020BC05002000B513480078C00714
:10422000C00F00280CD100210220FEF741F9012126
:104230000320FEF73DF901210B2000F035FC11E0D1
:1042400009480078C007C00F00280BD001210220C8
:10425000FEF72EF900210320FEF72AF900210B209A
:1042600000F022FC00BD00003406002010B5402103
:104270006B48FEF7FEFE00282ED16A480078C00782
:10428000C00F002828D16748007802218843801C8D
:10429000644908700846007880080A281BDD084633
:1042A0000078022188435F49087008460078FC21A5
:1042B00088435C49087040215948FEF7DAFE00281F
:1042C00009D15848007840084000401C5549087002
:1042D000012055490870A1E080215148FEF7C9FE30
:1042E00000282ED14F484078C007C00F002828D1A1
:1042F0004C48407802218843801C4A49487008464F
:10430000407880080A28E6DD084640780221884384
:104310004449487008464078FC2188434149487028
:1043200080213F48FEF7A5FE002877D13D48407820
:1043300040084000401C3B49487002203A49087040
:104340006CE0FF2101313648FEF793FE00282FD1A3
:1043500034488078C007C00F002829D131488078C0
:1043600002218843801C2F49887008468078800885
:104370000A2853DD0846807802218843294988703D
:1043800008468078FC21884326498870FF21013146
:104390002348FEF76EFE002840D12248807840086E
:1043A0004000401C1F49887003201F49087035E0F9
:1043B000012149021A48FEF75CFE00282ED1194857
:1043C000C078C007C00F002828D11648C078022145
:1043D0008843801C1349C8700846C07880080A28A2
:1043E0001CDD0846C078022188430E49C870084683
:1043F000C078FC2188430B49C87001214902084854
:10440000FEF737FE002809D10648C0784008400072
:10441000401C0449C87004200349087010BD000006
:10442000800C00408C0100209001002010B540213C
:104430006348FEF71EFE01282AD162480078C007B3
:10444000C00F002824D05F48007802218843801CD8
:104450005C4908700846007880080A2817DD08467D
:104460000078022188435749087008460078FC21EB
:1044700088435449087040215148FEF7FAFD01284D
:1044800005D150480078400840004E49087095E03A
:1044900080214B48FEF7EDFD01282AD1494840789C
:1044A000C007C00F002824D0464840780221884326
:1044B000801C444948700846407880080A287DDD01
:1044C00008464078022188433E49487008464078B3
:1044D000FC2188433B49487080213948FEF7C9FDDB
:1044E00001286BD137484078400840003549487072
:1044F00064E0FF2101313248FEF7BBFD01282BD1DA
:1045000030488078C007C00F002825D02D4880781B
:1045100002218843801C2B498870084680788008D7
:104520000A284BDD08468078022188432549887097
:1045300008468078FC21884322498870FF21013198
:104540001F48FEF796FD012838D11E4880784008A4
:1045500040001C49887031E0012149021848FEF7EB
:1045600088FD01282AD11748C078C007C00F00284D
:1045700024D01448C07802218843801C1149C87097
:104580000846C07880080A2818DD0846C07802214D
:1045900088430C49C8700846C078FC218843094903
:1045A000C870012149020648FEF763FD012805D1C4
:1045B0000448C078400840000249C87010BD00009F
:1045C000800C00408C010020002000BF12E00B494D
:1045D000095C89080F290BDD0849095C0222914317
:1045E000064A11541146095CFC229143034A1154B6
:1045F000411CC8B20428EADB704700008C0100208F
:1046000000B585B00F20800100900020019002903D
:10461000012003900020049069460248FEF740FD07
:1046200005B000BD800C004004200B49896A01439D
:10463000094A916200BF00200849096B490A4902F2
:104640000143064A116300BF04200349896A81437C
:10465000014A916200BF7047000200400010014013
:1046600010B500F023F800F039F900F001F900F07E
:1046700093F8FFF7C5FF00F0CBF800F091F800F0D9
:10468000ABF800F017F9FFF795FC00BFFF200130F1
:104690000549886000BF00BF084640688915084387
:1046A0000149486000BF10BD0020014000B585B041
:1046B00001213548FEF7CCFD02213348FEF7C8FD45
:1046C00004213148FEF7C4FD08212F48FEF7C0FD44
:1046D00010212D48FEF7BCFD20212B48FEF7B8FD28
:1046E00040212948FEF7B4FD80212748FEF7B0FDA0
:1046F000FF2101312448FEF7ABFD24480090012042
:10470000019000200290012003900020049069464F
:104710001D48FEF7C5FC7C20009001200190002080
:1047200002900390049069461748C030FEF7B8FC29
:104730001748009000200190029001200390002073
:104740000490694610484030FEF7AAFC0220009011
:1047500000200190029001200390002004906946FF
:1047600009488030FEF79CFC0A4800900020019028
:104770000290012003900020049069460248C03056
:10478000FEF78EFC05B000BD000C0040FFE100000C
:10479000FF100000030E000010B500F0E9F810BD96
:1047A00000B585B007200090002001907D20C0005A
:1047B000029000200390049069460648FEF764FDCD
:1047C00000BF01200349086100BF0846FEF757FDFE
:1047D00005B000BD0038014000B585B0072000904D
:1047E000002001907D20C0000290002003900490E2
:1047F00069460648FEF748FD00BF012003490861ED
:1048000000BF0846FEF73BFD05B000BD003C01407F
:1048100000B587B010200290022003900120049080
:10482000002005900120069002A90E48FEF738FCF2
:104830002020029002200390012004900020059087
:104840000120069002A90748FEF72AFC0120000477
:1048500000900548019069460448FEF7DBFD07B06B
:1048600000BD0000800C0040409C0000002401407E
:1048700000B585B0FF20FF3000900120019000209E
:1048800002900390049069460948FEF709FC07204E
:10489000800200900120019000200290039004907B
:1048A000694603488030FEF7FBFB05B000BD000001
:1048B000000C004008B5002000901A216846FEF761
:1048C00075FE002000901B216846FEF76FFE022057
:1048D00000900B216846FEF769FE08BD00B58DB05B
:1048E0000F20000208900220099000200A90012069
:1048F0000B9000200C9008A90C48FEF7D1FB00207B
:104900000090FF200130019003204002029000201F
:104910000390012004900590082006900020079045
:1049200069460348FFF734F80DB000BD400C004065
:10493000008C014000BF00BF00BF00BF00BFBFF33D
:104940004F8F00BF00BF00BF06480749C86000BFC7
:1049500000BF00BFBFF34F8F00BF00BF00BF00BF4D
:1049600000BFFDE70400FA0500ED00E0704700001D
:1049700000B58BB001208003069002200790002034
:10498000089009900A9006A91148FEF789FB0120BA
:1049900040030690022007900020089009900A909A
:1049A00006A90B48FEF77CFB00200090E1204002A6
:1049B00001904020029000200390102004900320DA
:1049C000059069460348FFF7E3F80BB000BD00000F
:1049D000400C004000200140F0B503460C461D4647
:1049E0002646002107E0685C775CB84201D00120D0
:1049F000F0BD481C81B29142F5DB0020F8E770B5AC
:104A00000B4604461D46002103E06E5C66544E1CB6
:104A1000B1B29142F9DB70BD30B50B4604460021BE
:104A200002E063544D1CA9B29142FADB30BD000094
:104A300010B5002819DB1A4A03231B02D218830879
:104A40009B00D2588307DC0EFF23A3409A438B07B9
:104A50001B0E8407E40EA3401A43114B03242402C7
:104A60001B198408A4001A5118E00E4A03071B0FF3
:104A7000083B9B089B00D2588307DC0EFF23A34012
:104A80009A438B071B0E8407E40EA3401A43054B81
:104A90000407240F083CA408A4001A5110BD00000C
:104AA00000E100E01CED00E030B500290ED10C243F
:104AB00044430F4D641962680C24444364192389EC
:104AC00094699DB22C43946100BF10E001290ED17E
:104AD0000C244443064D641962680C244443641951
:104AE000238954699DB22C43546100BF00BF30BD7F
:104AF0000805002010B500242A4800F0A1F8012084
:104B0000000600F0DFF8044600BF27A128A006F049
:104B10003FFC2346A322274927A006F039FC00BF0B
:104B20002B48844202D00020C04310BD0320000661
:104B300000F0C8F8044600BF1BA11DA006F028FC29
:104B40002346A8221B4923A006F022FC00BF2748C9
:104B5000844202D00020C043E7E73120000600F085
:104B6000B1F8044600BF10A111A006F011FC2346C5
:104B7000AC2210491EA006F00BFC00BF2248844264
:104B800002D00020C043D0E70648401F00F058F88C
:104B9000002000F055F8002000F078F804460020CE
:104BA000C3E700005A0000C66C6F673D3E0000007E
:104BB00025730000F0B7000025733A25643A307879
:104BC000303120646174613A253038780A00000081
:104BD0007EB9000025733A25643A3078303320647A
:104BE0006174613A253038780A00000004F800004A
:104BF00025733A25643A3078333120646174613A20
:104C0000253038780A0000002734000010B5084825
:104C100000F016F8074800F013F8074800F010F805
:104C2000064800F00DF80248401F00F009F810BDDA
:104C30005A0000C97EB9008104F80083273400B10E
:104C400010B5044600211048FEF799FF21460E4892
:104C5000FEF79BFF00BF00BF0B4800690221084020
:104C600040080028F7D000BF0748FEF77DFF002866
:104C7000FAD00548FEF780FF044604210248FEF7FB
:104C80007EFF204610BD0000008C014070B5054637
:104C900000210B48FEF773FF00210948FEF775FF5E
:104CA00000BF0748FEF760FF0028FAD00448FEF76F
:104CB00063FF044604210248FEF761FF204670BDF1
:104CC000008C014070B5044600252046FFF7B8FF70
:104CD0002046FFF7DBFF0546284670BDF7B50D46B9
:104CE0001646002405E02F5D3946009800F004F8D0
:104CF000641CB442F7D3FEBD00BF4269520A52029F
:104D00000A43426100BF00BF00BF826802231A400D
:104D10005208002AF8D0002200E0521C0A2AFCDBCC
:104D2000704770B5044626460020FFF7A1F90546F6
:104D3000002D01D0012070BD3046FFF7EBF905468C
:104D4000002D01D00220F6E70020F4E710B572A094
:104D500006F01EFB7548017875A006F019FB734834
:104D6000418877A006F014FB704881887AA006F08D
:104D70000FFB6E48C1887EA006F00AFB6B48017AE3
:104D800082A006F005FB6948417A87A006F000FB87
:104D90006648807A8107890F8AA006F0F9FA63488D
:104DA000807A0007810F8BA006F0F2FA5F48807AC4
:104DB0008006810F8FA006F0EBFA5C48807A8109AB
:104DC00093A006F0E5FA5948818996A006F0E0FA2A
:104DD0005648817B98A006F0DBFA5448C17B9EA020
:104DE00006F0D6FA5148017CA3A006F0D1FA4F484C
:104DF000418AA8A006F0CCFA4C48017DACA006F090
:104E0000C7FA4A48417DB2A006F0C2FA4748817D00
:104E1000B5A006F0BDFA4548C17DBAA006F0B8FAC3
:104E20004248017EBFA006F0B3FA4048418BC6A0BD
:104E300006F0AEFA3D48017FC8A006F0A9FA3B484B
:104E4000C18BCBA006F0A4FA3848018CCDA006F0A7
:104E50009FFA364820308178CFA006F099FA33487F
:104E6000818CD2A006F094FA3048C18CD4A006F010
:104E70008FFA2E482030007A0107090FD5A006F0DE
:104E800087FA2A482030007A0109D8A006F080FA73
:104E90002648418DDBA006F07BFA2448818DDFA0F7
:104EA00006F076FA21482030817BE2A006F070FA05
:104EB0001E482030C17BE4A006F06AFA1B4820306F
:104EC000017CE6A006F064FA18482030417CEAA094
:104ED00006F05EFA15482030817CEDA006F058FA05
:104EE00012482030C17CF0A006F052FA0F48203062
:104EF000017DF3A006F04CFA0C482030417DF6A06D
:104F000006F046FA09482030817DF9A006F040FA03
:104F100006482030C17DF7E1E698BEE7A4BAE58FE8
:104F200082E695B0E4BFA1E681AF0A004C070020FD
:104F3000092046616E547970653A2564200A0000A4
:104F40000920526174656443757272656E74313AFA
:104F50002564200A00000000092052617465644342
:104F6000757272656E74323A2564200A0000000082
:104F700009204375725472616E73526174656443A3
:104F8000757272656E743A2564200A0009204375B3
:104F9000725472616E7350696572636554696D65B0
:104FA00073313A2564200A000920437572547261F6
:104FB0006E7350696572636554696D6573323A2525
:104FC00064200A000920526573746172743A256482
:104FD000200A00000920526573746F726546616390
:104FE000746F727953657474696E67733A256420BF
:104FF0000A0000000920566F6C7461676546617590
:105000006C7453746174653A2564200A00000000D2
:10501000092046616E53746F7053746174653A254C
:1050200064200A000920437572436F7250617261F7
:105030006D3A2564200A000009204375724F766599
:105040007253686F727444656C6179466C61673A3B
:105050002564200A0000000009204375724F766520
:105060007253686F727444656C617954696D653A06
:105070002564200A0000000009204375724F766500
:10508000724C6F6E6744656C6179466C61673A2556
:1050900064200A0009204375724F7665724C6F6E6A
:1050A0006744656C617954696D653A2564200A002E
:1050B00009204D6F746F7253686F72744369726325
:1050C000756974466C61673A2564200A0000000027
:1050D000092053686F7274436972637569744D6116
:1050E000783A2564200A0000092053686F727443DF
:1050F00069726375697444656C61793A2564200A44
:105100000000000009204469736368617267655399
:105110006D6F6B654F757470757454696D653A2564
:1051200064200A00092044697363686172676553EB
:105130006D6F6B65466565646261636B54696D652F
:105140003A2564200A0000000920566F6C436F72F4
:10515000506172616D3A2564200A00000920566F83
:105160006C4F766572466C61673A2564200A0000D0
:105170000920566F6C4F7665724D61783A25642030
:105180000A0000000920566F6C4F76657254696DF5
:10519000653A2564200A00000920566F6C556E643C
:1051A0006572466C61673A2564200A000920566FD3
:1051B0006C556E6465724D61783A2564200A000072
:1051C0000920566F6C556E64657254696D653A2599
:1051D00064200A00092057726F6E6750686173651A
:1051E000466C61673A2564200A00000009204C6182
:1051F000636B5068617365466C61673A2564200A89
:1052000000000000092057726F6E67506861736577
:1052100054696D653A2564200A00000009204C613C
:10522000636B506861736554696D653A2564200A43
:105230000000000009204375724571756970466C65
:1052400061673A2564200A0009204375724571752B
:10525000697054696D653A2564200A000920466129
:10526000756C745472697070696E67466C61673AE8
:105270002564200A000000000920444939496E7065
:10528000757444656C61793A2564200A0000000059
:10529000092044493130496E70757444656C6179F8
:1052A0003A2564200A000000092044493131496E42
:1052B00070757444656C61793A2564200A000000B9
:1052C000092044493132496E70757444656C6179C6
:1052D0003A2564200A000000092044493133496E10
:1052E00070757444656C61793A2564200A00000089
:1052F000092044493134496E70757444656C617994
:105300003A2564200A00000024A006F041F829484C
:10531000017E29A006F03CF82648417E2CA006F02C
:1053200037F82448817E30A006F032F82148C17E4B
:1053300032A006F02DF81F48017F35A006F028F8AE
:105340001C48417F37A006F023F81A48817F3AA015
:1053500006F01EF81748C17F3CA006F019F8154862
:10536000203001783EA006F013F812482030417832
:1053700040A006F00DF80F482030817842A006F0DA
:1053800007F80C482030C17844A006F001F809481D
:105390002030017946A005F0FBFF10BD09204449EB
:1053A00037496E70757444656C61793A2564200ADA
:1053B000000000006C0700200920444938496E7045
:1053C000757444656C61793A2564200A0000000018
:1053D0000920427574746F6E496E70757444656C03
:1053E00061793A2564200A0009205230334F7574E0
:1053F0007075744465663A2564200A0009205230AD
:10540000344F75747075744465663A2564200A00DB
:1054100009205230354F75747075744465663A25AD
:1054200064200A000920444937496E707574536539
:10543000743A2564200A00000920444938496E70F6
:1054400075745365743A2564200A000009204449A4
:1054500039496E7075745365743A2564200A0000EA
:10546000092044493130496E7075745365743A258A
:1054700064200A00092044493131496E7075745323
:1054800065743A2564200A00092044493132496E86
:105490007075745365743A2564200A0009204449E4
:1054A0003133496E7075745365743A2564200A006F
:1054B000092044493134496E7075745365743A2536
:1054C00064200A0010B500BFFFF7A0FBFFF712FB36
:1054D0000028F9D100BF05A106A005F059FF33222D
:1054E000054906A005F054FF00BF10BD6C6F673D75
:1054F0003E00000025730000CFB7000025733A2559
:10550000643A200A0000000010B52E48C068400729
:10551000400F030005F0F6FE0739050A390F2F3456
:105520003900294800682949086048E000F0F2F88D
:105530002649086043E023484030406A8003800FDA
:10554000002806D0012808D002280AD0032810D14C
:105550000BE01F481D4908600BE01E481B4908600E
:1055600007E01D481949086003E01C481749086016
:1055700000BF00BF23E01A480068144908601EE01D
:105580000120C0031149086019E00E4800690003BA
:10559000000F00280DD0012802D0022808D103E016
:1055A00010480A49086008E00F480849086004E00C
:1055B00000BF0E480549086000BF00BF00BF00BF24
:1055C00010BD000000020040B8000020BC00002018
:1055D00000093D0040420F0020A1070090D00300C9
:1055E000B40000200024F40000366E0100127A009E
:1055F00010B500204149886105204006C860084672
:10560000806A802108433D4988623D48C0680F2177
:10561000890408433A49C86000203849486208466E
:10562000406A05210902084334494862354C00E0CC
:10563000641E002CFCD13148C0680121C906084312
:105640002E49C860AA20886301202F4908600C20D9
:1056500048600320C90448602C480068000C2B49AE
:105660000988C94389B2884202D12848006800E00D
:1056700040204006400E2149486124484068000C03
:1056800022498988C94389B2884202D11F484068AB
:1056900000E040204006400E1849403188621B4817
:1056A0004038006A000C19494039098CC94389B255
:1056B000884203D115484038006A00E08020C0B21B
:1056C0000E4908620E484068FF21813108430C49A9
:1056D00048600A48C06A102108430849C8620C485B
:1056E000C06B091508430A49C8630448C06A102101
:1056F00088430249C862FFF707FF10BD000200405F
:10570000C00C0040204E000000A8014040FBFF1FDD
:105710000004004010B500242A4880698007C00FAB
:10572000002802D0012817D113E0264800690003A1
:10573000000F002809D0012802D0022804D101E07E
:10574000214C04E0214C02E000BF214C00BF00BF0F
:1057500002E02048046800BF00BF1A488069400684
:10576000400F030005F0CEFD080507090B0D1315CA
:105770001B1D00BF15E0640813E0A40811E0E40855
:105780000FE00C212046FAF73BFE044609E024090D
:1057900007E018212046FAF733FE044601E06409C9
:1057A00000BF00BF074880694002400E401C4443D0
:1057B000044880690007C00F002800D0640020461C
:1057C00010BD0000000200400024F40000366E010D
:1057D00000127A00B800002010B5FEF747FDFEF772
:1057E00025FEFEF7F1FE01F099FB10BD70B500BF7C
:1057F00028484068FF2101310840000A002847D0AE
:1058000000BF244880680840000A002840D0224891
:105810004068007F0007000F1F494968C98B891C39
:10582000484386B21C484068406984192088800B30
:10583000002822D100BF184949680868FEF744FBD8
:10584000C5B220888004800C13494968C98B8842FE
:1058500012DA20888104890CA01C45542088800B12
:1058600080032188491C8904890C084320800B4847
:10587000006809494968C86200BF2088800B002879
:1058800005DD054949680868FEF71EFBC5B200BF83
:1058900070BD0000002001405404002000000020E2
:1058A000F8B50446A00054490858007F0007000FCF
:1058B000A100514A5158C98B891C484387B2A000A6
:1058C000114608584069C5192888800B002834D132
:1058D00028888004800C00282FDDA0000858C06AAA
:1058E000A1005158498C401844490968884224D283
:1058F00028880321890388430121C903401828808F
:10590000A2003D4B9A58127F1109A2009A58127FAB
:105910001207120F501CFAF77DFD0807000F0090C8
:10592000A00035490858007F00090001009908438C
:10593000A100314A515808773DE02888800B0028A3
:105940002BD128888004800CA1002B4A5158C98B88
:10595000884222DB28880321890388434018288055
:10596000A200254B9A58127F1109A2009A58127F63
:105970001207120F501CFAF74DFD0807000F009098
:10598000A0001D490858007F000900010099084344
:10599000A100194A515808770DE02888800B00288B
:1059A00009DD28888004800C002804D12888032180
:1059B000890388432880002614E0A0000E49085877
:1059C000C08B801C704387B2A00008584069C5197D
:1059D0002888800B002803DD28888004800CF8BD0F
:1059E000701CC6B2A00004490858007F0009B042EC
:1059F000E3DC0020F3E70000540400200000002056
:105A0000F7B581B00546174600200090A80052491E
:105A10000858007F0007000FA9004F4A5158097F1E
:105A20000909884208DBA80011460858007F0009D0
:105A30000001A90051580877A80047490858007F7D
:105A40000607360F3AE0A80043490858C08B801C6F
:105A5000704380B20090A8000858416900980C1863
:105A60002088800B002827DD20888004800C0028F7
:105A700022DD20888004800CB84202DA2088870466
:105A8000BF0C3A46A11C0298FEF7B9FF2088800B94
:105A900080032188C91B8904890C08432080208841
:105AA0008004800C002804D12088032189038843C6
:105AB0002080384604B0F0BD701CC6B2A80026494C
:105AC0000858007F0009B042BDDC002639E0A8007C
:105AD00021490858C08B801C704380B20090A800F8
