:020000040000FA
:10000000801D0020750200007D0200007F020000BC
:1000100000000000000000000000000000000000E0
:10002000000000000000000000000000810200004D
:1000300000000000000000008302000085020000B4
:10004000870200008702000087020000870200008C
:10005000870200008702000087020000870200007C
:10006000870200008702000087020000F5560000AA
:10007000870200008702000087020000870200005C
:10008000870200008702000087020000870200004C
:10009000870200008702000087020000870200003C
:1000A0008702000087020000F536000021370000BB
:1000B000870200008702000087020000870200001C
:1000C00000F002F800F0AAF80CA030C80838241894
:1000D0002D18A246671EAB4654465D46AC4201D180
:1000E00000F09CF87E460F3E0FCCB6460126334208
:1000F00000D0FB1AA246AB463343184704B30000B6
:1001000024B300000023002400250026103A01D368
:1001100078C1FBD8520700D330C100D50B607047BF
:1001200010B56E2902D101F01BF910BD702902D162
:1001300001F05DFA10BD662902D1C046C04610BD6F
:10014000652902D1C046C04610BD672902D1C0460C
:10015000C04610BD612902D1C046C04610BD03682B
:100160001B0A01D380231943692902D101F0C2F887
:1001700010BD642902D101F0BDF810BD752902D16E
:1001800001F0B8F810BD6F2902D101F0DBF910BD04
:10019000782902D101F018FA10BDE92902D101F045
:1001A00077F910BDE42902D101F072F910BDF529EB
:1001B00002D101F06DF910BDEF2902D101F0CEF9A5
:1001C00010BDF82902D101F00DFA10BD0368DB095A
:1001D00001D380231943632902D101F0F3FB10BD41
:1001E000732902D101F0F6FB10BDE32902D101F021
:1001F00000FC10BDF32902D101F003FC10BD00206A
:1002000010BD1FB501F0C2FC0400002000210AF05F
:100210002DFF401C60601FBD10B510BD01F054FCE7
:100220001146FFF7EEFF0AF031FC01F075FC03B454
:10023000FFF7F2FF03BC01F0ADFC000070B505460E
:100240000C46164602E00FCC0FC5103E102EFAD217
:10025000082E02D303CC03C5083E042E07D301CCDD
:1002600001C5361F03E021782970641C6D1C761EC1
:10027000F9D270BD0748804707480047FEE7FEE710
:10028000FEE7FEE7FEE7FEE704480549054A064BA0
:1002900070470000C94E0000C1000000800D002022
:1002A000801D002080150020801500207CB51D4693
:1002B00016460C00009001D00019401E084B7B44EC
:1002C0002A4669460190304601F063F8002C054645
:1002D00003D06946002001F06FF828467CBD00007D
:1002E00001110000034610B50B439B070FD1042AF0
:1002F0000DD308C810C9121FA342F8D018BA21BAEA
:10030000884201D9012010BD0020C04310BD002A41
:1003100003D0D30703D0521C07E0002010BD0378A0
:100320000C78401C491C1B1B07D103780C78401C1F
:10033000491C1B1B01D1921EF1D1184610BDF8B506
:10034000042A2CD3830712D00B78491C0370401C5D
:10035000521E83070BD00B78491C0370401C521EA1
:10036000830704D00B78491C0370401C521E8B0776
:100370009B0F05D0C91ADF002023DE1B08C90AE045
:10038000FFF75CFFF8BD1D4608C9FD401C46B440A0
:100390002C4310C0121F042AF5D2F308C91A521EAA
:1003A000F0D40B78491C0370401C521EEAD40B7821
:1003B000491C0370401C012AE4D409780170F8BD7F
:1003C00001E004C0091F0429FBD28B0701D502807C
:1003D000801CC90700D00270704700290BD0C307EA
:1003E00002D00270401C491E022904D3830702D5A3
:1003F0000280801C891EE3E70022EEE70022DFE78F
:10040000002203098B422CD3030A8B4211D3002311
:100410009C464EE003460B433CD4002243088B42EB
:1004200031D303098B421CD3030A8B4201D3944678
:100430003FE0C3098B4201D3CB01C01A524183096B
:100440008B4201D38B01C01A524143098B4201D325
:100450004B01C01A524103098B4201D30B01C01A50
:100460005241C3088B4201D3CB00C01A52418308CA
:100470008B4201D38B00C01A524143088B4201D3F7
:100480004B00C01A5241411A00D201465241104657
:1004900070475DE0CA0F00D04942031000D34042CC
:1004A000534000229C4603098B422DD3030A8B4202
:1004B00012D3FC22890112BA030A8B420CD38901A0
:1004C00092118B4208D3890192118B4204D3890186
:1004D0003AD0921100E08909C3098B4201D3CB01C4
:1004E000C01A524183098B4201D38B01C01A524179
:1004F00043098B4201D34B01C01A524103098B427D
:1005000001D30B01C01A5241C3088B4201D3CB0067
:10051000C01A524183088B4201D38B00C01A52414A
:10052000D9D243088B4201D34B00C01A5241411A21
:1005300000D20146634652415B10104601D340424F
:10054000002B00D54942704763465B1000D3404200
:1005500001B50020C046C04602BD704770477047D5
:100560000246C80FC00781434B0030B54B405B00CB
:100570009B0D20D01923DB06C91801231B059942C6
:1005800020DB0324A40704251346AB400BD3002B28
:1005900004D1EB0613409B00E34204D4012464071A
:1005A000002312195941FF231B0599420BD2C900A0
:1005B0000143500F09E0CB0204D501430803024375
:1005C00005D0054830BDFF21C905084330BD0846A8
:1005D00007210905884330BD0000C07FF0B50C46F7
:1005E000871A9C410D46861A9D4103D2C01BA1412A
:1005F000D21963410D0D1F0DC94EEC1BAE435CD0EB
:100600007F057F0D0026002F51D02D05AC46A94354
:10061000DD020123ED0A1B051D4320231B1B24D4EF
:100620001746E740381871412F46E740CC199D40E6
:100630002818314661410C0D27D161449A4013D5E9
:100640000023401C594152000ED1400840000122B5
:100650004B005205D34207D305204007C14201D5C4
:10066000B04900E0B0493046F0BD6B00002A00D030
:1006700001229A181F23203C1B1B01D5002302E0F6
:10068000E540281871410C0DD7D001242405091923
:10069000C407CD0740084908E40F28436144002CF3
:1006A000D5D00024401C61419A40D0D1CDE76A05E5
:1006B000520DD9D1C90FC907D5E79C4D4E0000286E
:1006C00001D0012400E0002434195F00002A01D089
:1006D000012600E00026BE19954FAC420CD8AE4270
:1006E0000AD8B44206D001256D05EC42BCD01046B4
:1006F0001946F0BD9942FCD000203946F0BDF0B556
:100700001FB40C460F46811A9F412546861A9D410B
:1007100006D20125ED076F40401ABC4152187B41BB
:10072000210D1E0D8D1BAC467D4D8D437ED0750574
:100730006D0D7CD00D05AE46AC431B031B0B794DF4
:1007400052429D41202366469B1B14D31746F74017
:10075000381800260090744160462F460741E4197E
:1007600000989D402818664116D4714671189A4029
:1007700025D5012320E093182A466A415200002B18
:1007800000D0521C1E23203E9B1B002B61DD3541F7
:10079000EE1728186641E8D5001876415B1C9A4090
:1007A00000D3401C4B05F3181524E34010D3002B55
:1007B00052D071467118D30FC01802D3491C05B02E
:1007C000F0BD0123DB079A42F9D140084000F6E76B
:1007D00001225205B21801D1002853D00123CC0ABE
:1007E000DB029943891E002A08D1020C03D0020CB7
:1007F0000004103902E00246002020390023550B86
:1008000005D112020823550B01D152010D23550CBD
:1008100001D112011B1DD50C01D192009B1C150D9D
:1008200001D152005B1C2025EE1A01E02CE022E0F1
:100830000546F54015439840CA1AE10769181305A3
:10084000C918002ABBDA032040070818C10FC907DE
:100850000FE071466118B2E7F107400808437110D4
:1008600071444A000CD001235B059A42A7D2C90FFC
:10087000C9070020A3E74905490D26D1002001E062
:100880000028F4D100219AE7284D6600002801D005
:10089000012100E0002171185F00002A01D001262B
:1008A00000E00026BE19224FA94210D8AE420ED851
:1008B000B14208D001256D05E94206D01946A802CB
:1008C000414010467BE79C4201D0214677E700205B
:1008D000394674E710B50C465C4005D50124E407A1
:1008E0006340FFF70CFF10BDFFF778FE10BD30B47A
:1008F0000C465C4004D50124E407634030BC6DE63F
:1009000030BCFCE670B50124E40761400D465D4053
:1009100002D4FFF763FE70BD6340FFF7F0FE70BDC9
:10092000FF0700000000F0FF0000F07F0000E0FF84
:100930000000F87FF0B5F94D0C091E092C402E403F
:100940002F468BB0A7437DD0B543FCD0002E7AD084
:10095000002CFCD00D465D40ED0F2543AC1BFF2560
:10096000AD0464190894C502440DC9022143500D19
:10097000DC0204430120C00701430443D202019179
:10098000200C110C00958C46010423468B430A91E0
:1009900061460904E24D8A430991010A7D444919DF
:1009A0008039097805464D4301266D18F605751BFB
:1009B0006943C90C640B891C4C436418B5012C1B9A
:1009C000250C2E04B4434C434D43210C691889096E
:1009D0000591009DE90701D00121C90704912C462A
:1009E00001996708CD072F434C08059DE10B4D4346
:1009F0002D0C29466646754302950D4645432E4605
:100A0000029D7D1BB44100950D465D4301942C0C65
:100A10002F040D465543AE462D0C3D4302950394DD
:100A20007546049C2D04641B049406D2029C039D0D
:100A3000641C002675410395029401AC70CC009FA4
:100A40007D1B01E03EE162E1B4410904009507919C
:100A500001940599A4086143090C0C464443650BB5
:100A6000E7040C4666467443A646640B3C43039574
:100A700002947446049DE4042C1B049406D2029C48
:100A8000039D641C002675410395029401AC70CC53
:100A9000009F7D1BB44101940C465C430095650F9B
:100AA000E7000C465443A646640F3C43039502946A
:100AB0007446049DE4002C1B049406D2029C039D02
:100AC000641C002675410395029401AC70CC009F14
:100AD0007D1BB441AE09AF06049DC900AD092F438B
:100AE000049DA406AD060495079D3443691807913B
:100AF000059DE10B4D432D0C294666467543029535
:100B00000D4645432E46029D7D1BB44100950D4682
:100B10005D4301942C0C2F040D465543AE462D0C1D
:100B20003D43029503947546049C2D04641B049474
:100B300006D2029C039D641C002675410395029415
:100B400001AC70CC009F7D1BB44101948C050694D0
:100B5000079C890A611800950791019C0599A408D2
:100B60006143090C0D464543680BEF040D4664468E
:100B700065436C0B3C43049FED047D1BAC4602D2E5
:100B80000025641C6841009E019D371B8541084675
:100B9000584301950C46460FC5005443600F284347
:100BA0006546E4002C1B02D20025401C6E41019DCD
:100BB0003F1AB5412846BD09800628438446A0094E
:100BC000BF064E020699A40676180743079D00202B
:100BD00068410A99079019430020099B00906046DC
:100BE000FF1913434041E20F64003A43A446044610
:100BF000D71A8C41A04203D90120009020463A46E2
:100C0000C70F941840416246D20F224364466400E5
:100C10000494009CBE466400D71AA446044602977A
:100C20008C417746002F01D1A04204D96046401C78
:100C30008446029A2046C40FA64694184041049A5E
:100C40000546D20F224364466400D31A8D41714693
:100C5000002901D1A84202D928461A46641C104333
:100C60000122002800D0164361020020079B891949
:100C700004465C410223002C02DB49181346644100
:100C8000089DCE0A2D145D194B056705E10A2C0558
:100C90000D1908993E43C9076940002B08D09340BD
:100CA00006D30022761C5141002B01D17608760034
:100CB0001C4A002D43DB154241D0AA433FD03046A9
:100CC0000BB0F0BD06180D464D41174C7642AC41B5
:100CD0001AD395181C465C41134A6D42A24113D3A6
:100CE000012252054C00D4420AD15C00D4420BD000
:100CF0004B4002D592021143E2E749004908DFE781
:100D00005940C90FC90718E000200849D8E705482D
:100D100001420DD10342F7D0F2E700000000FF07C7
:100D20009BA900000000F07F0000E0FF0000F87FBA
:100D3000114859400143C01241400020C0E701233F
:100D4000089A9B069A4205DC032252078918C90FAC
:100D5000C907B5E7052252078918074A1143D2127D
:100D60005140ADE770B515461C4602460B46284675
:100D70002146FFF7DFFD70BDFFFFFF7F30B5034663
:100D8000CA02400D1043164D164C0A1502D02043DE
:100D9000002A06DBAA1A002A12DDD040FF2A0BDC4B
:100DA00030BD5205520D01D140004008AA1A07D4A7
:100DB000D0404042FF2A01DD002030BD0028FCDD8C
:100DC0004A00002B01D0012000E000201018012271
:100DD0005205D042F0D8C817C043604030BD000073
:100DE0001E040000000000800346CA02400D10B53A
:100DF00010430A1504D00124E4072043002A05DB30
:100E00000A4CA21A04D4D040FF2A00DD002010BDF5
:100E10004A00002B01D0012000E000201018012220
:100E20005205D042F2D8C817C04310BD1E040000BE
:100E30001F22030C02D10F22000402D0030E03D0A4
:100E400004E00020014670470002083A030F01D178
:100E50000001121F830F01D18000921E002801DBC8
:100E60004000521E120551184205C012411810468A
:100E70007047C10FC90700D04042012292071143B9
:100E8000D6E701218907D3E7F0B58B4C0F0925463A
:100E900089B0BD437BD01D092646AE43FAD00E462D
:100EA0005E402740F60F3E43254071D02401214289
:100EB000FBD0FF24AD19A4042D1B039501252D059E
:100EC000DB02DB0AC9022B43C90A29431E010901BF
:100ED000040F130F050121431701880B820391436F
:100EE0002D098C46A90B1E438A039543B30B9A0325
:100EF00096433F09BA0B9403A74302962E467E43BE
:100F00000497B6464E19D7190C46019654430597D7
:100F10007E43371B7646BF1B3601B646BE0B3619DD
:100F200000967646BC043719009C01D3641C0094DB
:100F30006400002F01D001263443029E049F7543B4
:100F400066467E430496760034196E003419009488
:100F5000029C019E1C196643751BAE4606946546AD
:100F60004519059C05956C43594375460891691AC6
:100F70000191049E01465143A41B0491611A009CF7
:100F80000791E10605D061090122114302E072E0F8
:100F90006EE06109089D00272C0A2D066918049D42
:100FA0007C412A0A2D066918019D6241AC0DAD02F3
:100FB0006D185441079A910D920255196141029A98
:100FC000644658435443069B059A5A43121A131B0E
:100FD0009A0E9B015B187A41010B0005C318514121
:100FE000220A200644195A419A4200D2491C012083
:100FF0004002814203D315230226F64302E0142364
:101000000326F6432020C51AA9401746AF40DA4010
:101010000A4320460399D84009147318190551183A
:10102000039A3843D2075140AC4009D00122944082
:1010300006D30022401C5141002C01D14008400041
:101040001E4A934212D3012203989206904207DB74
:101050000520400709181A480143C012414004E026
:10106000032040070818C10FC907002009B0F0BDD0
:101070000020F107FAE705180C464C4111486D4273
:10108000A04115D394181A465A410E486442904123
:101090000ED301204A004005824209D35A00824201
:1010A00006D35940C90F084AC90700201143DDE79C
:1010B00000200649DAE700000000FF07FE070000F5
:1010C000FFFFFF7F0000E0FF0000F07F0000F87FDF
:1010D00070B505464800440D124B0020002C0AD084
:1010E000634008D09A4206DA6642B24203DD120536
:1010F0004019514170BD002C08D0002B09D0C90FF8
:10110000C907002AF6DB084A114370BDC90FC90799
:1011100070BD28460A03104302D00020034970BD69
:10112000284670BDFF0700000000F07F0000F87F38
:101130000121C9050123411842001B06D3185B0E8B
:101140000AD0C1100722D206891840075242D14264
:1011500001D5520089187047090208D50146002AB6
:1011600003D0C10FC90700207047104670474202E4
:1011700002D0002002497047072109050143F4E726
:101180000000F87F10B501469E240002CA15A3078F
:10119000002A02D01843002A04DBA21A002A0CDD20
:1011A000D04010BD1206120E01D140004008A21A14
:1011B00003D4D04040420028F3DDFF22480012064D
:1011C000904201D9002010BDC817C043584010BD3F
:1011D0001F22030C02D10F2200041CD0030E01D1E8
:1011E0000002083A030F01D10001121F830F01D141
:1011F0008000921E002801DB4000521ED2055118CB
:10120000021251181922904004D3491C002801D120
:101210004908490008467047C10FC90700D040423D
:10122000012292071143D3E701218907D0E770B566
:10123000044685690068C10601D5302600E02026F5
:10124000C00707D070BD62683046A1689047206A29
:10125000401C20626D1EF6D570BD70B504468569D0
:101260000078C00707D170BD6268A1682020904750
:10127000206A401C20626D1EF6D570BD09684A05C3
:1012800001D540B27047C905FCD500B27047096866
:101290004A0501D5C0B27047C905FCD580B2704778
:1012A00070B50C460546012A05D02878800600D581
:1012B000EA69002302E0012305E05B1C934202D2AD
:1012C000E05C0028F9D1A869E618C01AA861286A6C
:1012D000C01828622846FFF7AAFF04E06A68207851
:1012E000A968641C9047B442F8D32846FFF7B5FFBD
:1012F00070BD0000F7B5002575291068009914A687
:1013000011D0FFF7BBFF002802DA404211A608E027
:10131000009909688A0701D50FA602E0490704D59C
:101320000EA6012501E0FFF7B2FF009F002424373D
:1013300004E000F08AFB30313955641C0028F8D1F4
:101340002B4632462146009800F0D9FAFEBD000037
:10135000000000002D0000002B0000002000000015
:1013600011680268006A530501D5087009E0D305C9
:1013700001D5088005E0130602D5C21705C100E0BB
:10138000086001207047000001694A1C026108786A
:10139000704700B58FB00291002105910549019376
:1013A0007944039111460490684600F02DF90FB07E
:1013B00000BD0000E5FFFFFF0A681070521C0A60C4
:1013C00070474B680A689A4202D2531C0B60107037
:1013D00070470000F7B50446154686B02B487844A0
:1013E000002703C83E460090019111E007986A4625
:1013F0007100415A02A800F008FB411C07D0217877
:10140000890603D5E269391891420ED83F18761C37
:101410002078800602D5E069B84206DDAE42E5DB01
:1014200007987100405A0028E0D1A069C01BA06154
:101430002046FFF7FCFE154878445A3803C8009050
:101440000020019116E041006A460798415A02A81F
:1014500000F0DBFA0590401C0AD0002505E0626828
:1014600002A8A168405D90476D1C05988542F6D39F
:101470000498401CB0420490E5DB206AC019206249
:101480002046FFF7EAFE09B0F0BD0000DA9F000039
:10149000F7B5D21D0025D20815A6D200F52905CA38
:1014A00011D0002A05DA00214042914111A60A46D6
:1014B00008E0009909688B0701D50FA602E04907EB
:1014C00001D50EA601251146009F0024243704E013
:1014D00000F0D8F930323A55641C02460A43F7D17D
:1014E0002B4632462146009800F009FAFEBD000066
:1014F000000000002D0000002B0000002000000074
:1015000070B504460021243408E05507D2086D0F59
:10151000303565545D072A43DB08491C15461D43D9
:10152000F3D10468002310A2250708D520252C40FC
:101530000C4304D0C46901230CA2641EC46100F0F2
:10154000DEF970BD10B5044621461068FFF79FFE16
:10155000002302462046FFF7D3FF10BDD21DD1085D
:10156000C9000CC9CCE700000000000030000000FA
:10157000F8B50F460188090502D5224C7C4402E0EB
:10158000204C7C440E3405460021243508E0160723
:101590001209360FA65D6E541E0732431B09491C03
:1015A00016461E43F3D1224604780023240705D5AE
:1015B000702F06D0002901D00223113200F09FF9CC
:1015C000F8BD01231032F9E770B504460D462146F7
:1015D0001068FFF75CFE0023024629462046FFF70D
:1015E000C7FF70BDD21DD308DB000CCBC0E730B401
:1015F000036820241268234303600823C36130BCBE
:101600000023B5E7449E0000F3B50446002081B0F6
:1016100020622046E1688847002872D0252802D041
:101620006268A168ABE0594F00267F442046E1681C
:1016300088472028054608DB312D06D27819203846
:101640000078002801D00643F0E7B00701D5042058
:1016500086430020E0610746A0612A2D0AD0284673
:1016600009F075F9002827D0B8000019303D009026
:10167000856119E00298BA00121902C891610290BE
:101680002046E1688847012F054617D1E069002808
:101690001FDA202086431CE000980A218069484315
:1016A00000994019303888612046E168884705462E
:1016B00009F04DF90028EFD1012F0AD02E2D08D1C5
:1016C0002046E16888470546202006437F1C022FFC
:1016D000C3DBA069002803DA4042A0610120064371
:1016E000F00701D0102086436C2D0BD0682D09D057
:1016F0004C2D3CD06A2D38D0742D38D07A2D36D070
:1017000016E040E0E1682F4620468847B84205468B
:1017100009D16C2F29D001208002E16806432046C0
:101720008847054604E06C2F1DD0FF20013006439A
:10173000002D28D028464138192803D80120C0029E
:1017400006432035204626602946029A1646FEF7B3
:10175000E7FC002810D001280BD0F61DF008C000CF
:101760000830029055E74020E1E78020D5E70020CF
:10177000D3E7361D02964CE762682846A168904779
:10178000206A401C44E7206AFEBD0000BE9D0000A8
:10179000F8B5224C4E00069DA6420AD8A64201D1B9
:1017A000002806D15E00A64203D8A6420AD1002A2C
:1017B00008D00D24240425422CD02946002000F016
:1017C00059F9F8BD0C461C430CD4994202D0EFF3F2
:1017D0000080F8BD904202D0EFF30080F8BDEFF337
:1017E0000080F8BD09242407E5008B4206D0EFF302
:1017F0000080A043591A06D2284304E0101A05D3EA
:10180000EFF30080A04380F30088F8BDEFF3008081
:10181000A043F1E7009500F045F9F8BD0000E0FFB6
:1018200010B5FF231B0644009C421DD84C009C426F
:101830001AD80346124A0B4307D4401A02D3EFF3D7
:10184000008010BDEFF3008010BD081A06D2EFF340
:10185000008001219043C907084302E0EFF30080B4
:10186000904380F3008810BD0D231B041A4204D05E
:101870001146002000F0FEF810BD00F01DF910BD6B
:10188000000000900B4670B50246890780080843A7
:1018900019469D08141AA941250908070543080996
:1018A0002C194841250A01060D43010A2C19414112
:1018B000200C0D0428430D0C00194D410021401946
:1018C0004D41C00869070843E908840F8D0025438E
:1018D000840024184D4124196D41121BAB4107E0CF
:1018E0000925ED432C11521963410024401C61412C
:1018F0001C460A250026551BB441F1D270BDFFB528
:1019000004460D4681B0243000902168880604D535
:101910001022E0699143216000E00120A84201DD2E
:10192000471B00E000270498A1697A191018081ACB
:10193000A0612078C00602D42046FFF778FC00267C
:1019400008E003986268A168805D9047206A401CA7
:10195000761C206204988642F3DB2078C0060AD504
:101960002046FFF764FC06E06268A16830209047DB
:10197000206A401C206238467F1E0028F4DC07E005
:1019800000986268A168405D9047206A401C206210
:1019900028466D1E0028F3DC2046FFF75EFC207809
:1019A000000602D5022005B0F0BD0120FBE710B50E
:1019B0004369002B02D0C046C04601E0FFF770FC2F
:1019C000012010BD1278014624310A7000224A70AD
:1019D0000122ECE711680022D243E8E710B5436921
:1019E000002B02D0C046C04601E0FFF7F3FC012007
:1019F00010BD12880146243182840022C284012253
:101A0000ECE711680022D243E8E770B516460C46B1
:101A1000054600F079F80368FF200230C05C012819
:101A200007D0FF2C0ED8185D00280BD001202C7099
:101A300070BDFF333246214608331868C318284664
:101A4000984770BD0020C04370BD01468008081A49
:101A500002091018020A1018020C1018C00882009F
:101A600012185200891A01E0401C0A390A29FBD2D7
:101A700070470000CA0211D54A03520F002A04D051
:101A8000C803C043012188407047054AEFF3008135
:101A900008010009104380F3008870470020704758
:101AA0000000003010B500200249029A00F03AF818
:101AB00010BD00000000F87F10B5024800F032F8B9
:101AC00010BD00000000C07F754600F05BF8AE4618
:101AD000050069465346C008C000854618B020B5C9
:101AE000FEF7D2FB60BC00274908B6460026C0C5F9
:101AF000C0C5C0C5C0C5C0C5C0C5C0C5C0C5403DC6
:101B000049008D467047000010B500F03FF8001DF9
:101B100010BD00BF599500000446C046C04620468F
:101B2000FEF785FB10B50C461107090F092904D0F3
:101B30000A290AD008290CD104E011460820FFF731
:101B400099FF06E0510606D501E0510601D50120B6
:101B5000C007214610BDD10607D501010909CC08EF
:101B60004907000E0006044309E0410F200249071F
:101B7000000A0143200E00061D22D1410143084600
:101B8000E7E70000004870471C0D00200048704740
:101B90003C0D002001491820ABBEFEE726000200E4
:101BA000024670B50A4392072AD11E4DEE0104C8C1
:101BB00008C9541B9443344017D0D0B2D9B2401A4C
:101BC0002106014310D190B299B2401A2104014379
:101BD0000AD110021902000A090A401A210201431F
:101BE00002D1100E190E401A70BD9A42DFD010BA01
:101BF00019BA884201D9012070BD0020C04370BDD0
:101C000002780B78401C491C002A09D09A4207D15F
:101C100002780B78401C491C002A01D09A42EFD070
:101C2000D01A70BD01010101704770B58C1805789C
:101C3000401C6B075B0F01D10378401C2A1106D1B1
:101C40000278401C03E00678401C0E70491C5B1EA5
:101C5000F9D12B0705D40023521E0DD40B70491C5B
:101C6000FAE70378401CCB1A921C03E01D780D7034
:101C7000491C5B1C521EF9D5A142D8D3002070BD6F
:101C8000FEB5FA4C012965782278E66812D0002961
:101C900035D12346143399780091D9785F790300C0
:101CA00008F048FE0D2D2DF0EFEEEDECEB2DEA2DBA
:101CB000E9E82D00ED4FEE4B3F781B7802210193B0
:101CC000394308231F43030008F034FE0D081A347B
:101CD000527485A3B8BCE3FEFDFC1900D0070ED0FA
:101CE000B047002000F070FA002000F0F7FA012160
:101CF0000A2002F0C3F90021042000F07DFBFEBDA4
:101D0000D007FCD0A806FAD45007F8D41007F6D4B0
:101D10009007F4D4D0060BD5EF20014021700020AD
:101D200000F0DCFA20789F21084020302070FEBDB2
:101D30002170FEBDD007FCD0A806FAD4CB4B012001
:101D4000143398705007F4D41007F2D49007F0D4ED
:101D5000D0060BD5EF2001402170002000F0BEFA24
:101D600020789F21084020302070FEBD2170FEBDEC
:101D7000BE4B01201433D870D00716D0A80614D457
:101D8000500712D4100710D490070ED4D0060BD5EC
:101D9000EF2001402170002000F0A0FA20789F2160
:101DA00008402030207000E021700021092002F05E
:101DB00065F9FEBDD007FCD0A806FAD45007F8D4C8
:101DC000D006F6D49007F4D41007F2D40198012875
:101DD000EFD02770FEBDD007FCD0A806FAD4A34BE5
:101DE0000120143358715007F4D41007F2D490072F
:101DF000F0D4D0060BD5EF2001402170002000F078
:101E00006DFA20789F21084020302070FEBD21709F
:101E1000FEBDD00605D4500703D4900701D41007A7
:101E200007D50121042000F0E7FA00210A2002F082
:101E300025F96078012108436070FEBD80200243CF
:101E40002270FEBDD007FCD0A806FAD450071BD4E0
:101E5000100719D4900717D4D00614D5EF200140ED
:101E60002170002000F03AFA20789F2108402030AD
:101E7000207009E07CE177E171E153E1EAE0C1E043
:101E80009CE06CE041E021700021092002F0F6F8AE
:101E9000FEBDB047002000F097F9002000F01EFAC8
:101EA00001210A2002F0EAF80021042000F0A4FA3F
:101EB0007048002141560329EADB6FA170A008F0A9
:101EC00073FD02E01DE018E006E0FF228E326D494E
:101ED0006DA008F069FDFEBDD007FCD0A806FAD4BD
:101EE0005007F8D4D006F6D49007F4D41007F2D4F3
:101EF00001980128EFD02770FEBDFD2005406570D8
:101F0000FEBDFB2005406570FEBDD007FCD0A806D5
:101F1000FAD456480022143082700029F4D1002FE0
:101F2000F2D1B047002000F04FF9002000F0D6F9C0
:101F300001210A2002F0A2F80021042000F05CFA3E
:101F40004C48C1570329DFDB4BA14DA008F02CFD05
:101F5000FF22BA324B4954A008F026FDFEBD43488B
:101F600000211430C170D00723D0A80621D40098D6
:101F700000281ED1002F1CD1B047002000F024F90A
:101F8000002000F0ABF901210A2002F077F80021CF
:101F9000042000F031FA3748C157032909DB36A184
:101FA00037A008F001FDFF22C832364946A008F0EC
:101FB000FBFC0121092002F061F8FEBDD007FCD036
:101FC000A806FAD4D00601D41007F6D5B0470020F1
:101FD00000F084F9274800214156032909DB26A196
:101FE00027A008F0E1FCFF22D43226493EA008F0E9
:101FF000DBFC01210A2002F041F80021042000F05E
:10200000FBF9FEBD194800221430427100980028E7
:10201000F7D10029F5D1B047002000F0D5F8002015
:1020200000F05CF901210A2002F028F800210420C8
:1020300000F0E2F90F48002141560329E1DB0EA12F
:102040000FA008F0B1FCFF22E3320E492DA008F0EA
:10205000ABFCFEBD6808400060700021042000F069
:10206000CBF901210A2002F009F8FEBDF80C00208E
:10207000AC070020A40300206C6F673D3E00000009
:1020800025730000BEB2000025733A25643A20454E
:10209000787465726E616C5F436F6E74726F6C5FA3
:1020A00053746F70210A000025733A25643A204565
:1020B0006D657267656E63795F53746172742063D6
:1020C0006C6F7365210A000025733A25643A204439
:1020D000796E616D69635F436F6E74726F6C2063BC
:1020E0006C6F7365210A000025733A25643A204C11
:1020F0006F775F53706565645F46616E20636C6FD8
:1021000073650A0025733A25643A20486967685F59
:1021100053706565645F46616E20636C6F73652103
:102120000A0000005006400E2070410701D4C0068E
:102130009BD522487D21406C4901401820490968FF
:10214000884292D208F082FF1E493D2008701B4849
:102150004030417889088900491C4170FEBD012149
:10216000092001F08BFFFEBD022005436570FEBD16
:102170000420054365700121084601F07FFF01211D
:10218000002001F07BFF0121022001F077FF207881
:10219000410708D5FB210840022108432070012097
:1021A00000F012F8FEBDC106FCD5EF210840082161
:1021B00008432070012000F091F8FEBD28040020A3
:1021C00000000020A001002070B500253F4C012830
:1021D00025D0002822D1012101F050FF012108461D
:1021E00001F04CFF0021084600F006F901210A2009
:1021F00001F044FF0021042000F0FEF801210E2030
:1022000001F03CFF6078800708D501210A2000F02A
:10221000F3F86078082108436070656070BD0021A4
:102220000A2000F0E9F82078C10912D12849897AFA
:1022300089090ED0FD210840207008F007FF2549CC
:102240003D2008702448417889088900491C417064
:1022500070BD61784A070CD59F2210404030207035
:10226000102001436170656001210B2000F0C4F86B
:102270000BE0602108432070A5600021084601F0B2
:10228000FDFE0021012001F0F9FE0121002000F0F7
:10229000B3F800210E2001F0F1FE01210F2001F022
:1022A000EDFE6078C00708D000210A2001F0E6FEAC
:1022B0000121042000F0A0F870BD01210A2001F0E6
:1022C000DDFE0021042000F097F870BDF80C00201E
:1022D000AC070020A00100206804002070B5002594
:1022E000414C012829D0002826D10121022001F0EB
:1022F000C5FE0021012000F07FF801210A2001F035
:10230000BDFE0021042000F077F801210F2001F02C
:10231000B5FE6078EF210840607000210B2000F0CE
:102320006BF86078810707D5082108436070656005
:1023300001210A2000F060F870BD2078F726C1095D
:10234000002911D12949897A89090DD0304020709E
:1023500008F07CFE26493D2008702648417889080F
:102360008900491C417070BD61784A070CD59F22D5
:1023700010404030207010200143617065600121E1
:102380000B2000F039F807E0602108432070A560B9
:102390000021022001F072FE0121084600F02CF815
:1023A00000210F2001F06AFE01210E2001F066FEDF
:1023B0006078C00708D000210A2001F05FFE0121EB
:1023C000042000F019F807E001210A2001F056FE70
:1023D0000021042000F010F8607830406070002187
:1023E0000A2000F009F870BDF80C0020AC070020AE
:1023F000A00100206804002070B505460C46234E5D
:10240000B07FA8420DD1012C02D0002C05D008E0ED
:102410000021032001F032FE03E00121032001F03E
:102420002DFEF07FA8420DD1012C02D0002C05D04A
:1024300008E00021042001F021FE03E00121042036
:1024400001F01CFE114E20363078A8420DD1012C2F
:1024500002D0002C05D008E00021052001F00EFE7E
:1024600003E00121052001F009FE7078A84207D1A0
:10247000012C06D0002C03D10121062001F0FEFD25
:1024800070BD0021062001F0F9FD70BDCC070020D1
:1024900030B5A1B00C46611E8AB2014601A801F018
:1024A000D8FD621E01A949A008F07EFA04224EA1BF
:1024B00001A801F0BFFD002823D004224CA101A8EF
:1024C00001F0B8FD002829D009224BA101A801F094
:1024D000B1FD00284ED009224AA101A801F0AAFDB1
:1024E00000284DD00B224AA101A801F0A3FD00282D
:1024F00053D0062249A101A801F09CFD002856D026
:102500004EE048A008F050FA50A008F04DFA58A04C
:1025100008F04AFA60A008F047FA41E06846407ABD
:102520003038C4B2214664A008F03EFA002C06D030
:10253000012C09D0022C0DD0032C16D110E0002064
:1025400001F0C0FF054610E00D20000601F0BAFFC3
:1025500005460AE00720400601F0B4FF054604E006
:102560000F20000601F0AEFF0546294656A008F0F0
:102570001BFA15E058A008F017FA02F02FF80FE048
:102580005AA008F011FA6846807B303841B25C48A6
:1025900001705CA008F008FA02E05FA008F004FAFD
:1025A0008022002101A801F05FFD21B030BD5FA0B5
:1025B00008F0FAF9C82000F007F9BFF34F8F60491F
:1025C0005E48C860BFF34F8F00BFFDE7646562756A
:1025D000676275663A25732C20E995BFE5BAA63A7D
:1025E0002564200A0000000068656C70000000008F
:1025F000746573740000000073686F7720696E66FD
:102600006F000000736574206465627567000000E8
:10261000636C6F7365206465627567007265626FD5
:102620006F7400000909092020202020202020208C
:10263000200920E68EA7E588B6E591BDE4BBA4E6B7
:102640008F90E7A4BA76312E30200A0009090920BC
:1026500068656C70090909093AE698BEE7A4BAE50D
:1026600091BDE4BBA4E4BFA1E681AF200A00000055
:102670000909092073686F7720696E666F09090977
:102680003AE698BEE7A4BAE58F82E695B0E4BFA12A
:10269000E681AF200A000000090909207265626F17
:1026A0006F74090909093AE9878DE696B0E590AF9C
:1026B000E58AA8200A00000009090920206E756D2E
:1026C0003B2564200A00000009090920206E756D71
:1026D0003B25303878200A00E698BEE7A4BAE58F9B
:1026E00082E695B0E4BFA1E681AF0A00E68993E5F2
:1026F000BC806465627567E698BEE7A4BA0A00000C
:10270000A4030020736574206465627567206C6F94
:1027100076656C3A25640A00E585B3E997AD646592
:10272000627567E698BEE7A4BA0A0000E6ADA3E5C5
:102730009CA8E9878DE590AF0A0000000400FA0527
:1027400000ED00E01CB512A003C801910090082222
:10275000694611A008F002F9114C00202056032808
:1027600008DB10A111A008F01FF92922104911A0BF
:1027700008F01AF900202056022808DB10A10BA04F
:1027800008F012F92A220A490AA008F00DF91CBD26
:102790001122334455667788746573740000000015
:1027A000A40300206C6F673D3E000000257300000D
:1027B0005CB2000025733A25643A200A000000004C
:1027C0006572723D3E00000003490A6810180A68ED
:1027D0008242FCD3704700000000002010B50322A5
:1027E0000121002000F0F6FF0A4C00212278012090
:1027F00000F0F0FF62780021022000F0EBFFA278E9
:102800000021032000F0E6FFE2780021042000F020
:10281000E1FF10BD040000200122062905D8C900EF
:1028200008184168114341607047C16B1143C1638F
:1028300070470000F0B55D4B984200D0FEE70325DD
:102840004B692D03002B09D001242403A34205D09A
:102850006400A34202D0AB4200D0FEE78B69002B9C
:1028600002D0012B00D0FEE701264B68B602002BF8
:1028700004D0402B02D0B34200D0FEE70B69002BFE
:1028800004D0202B02D0102B00D0FEE701248B684F
:10289000E402A34209D0002B07D0DC1FFF3CFA3C26
:1028A00003D0DC1FF93C00D0FEE71023404FFC6A48
:1028B0001C43FC624C69D3001B18062A04D85F68CD
:1028C000AF4327435F6003E0C76BAF432743C76352
:1028D0008C68062A06D85D680127FF02BD432543A0
:1028E0005D6005E0C56B01277F02BD432543C563DD
:1028F0004C68062A05D85D684027BD4325435D60C6
:1029000003E0C56BB5432543C5630F69062A04D8A8
:102910005C683025AC433C435C608D690824012D24
:1029200005D0062A10D85D68A5435D600FE0062A31
:1029300003D85D6825435D6002E0C56B2543C56330
:10294000072A04D10020F0BDC56BA543C563072A43
:1029500022D0086807210902002816D0C41FF93CBC
:1029600013D0FF3C013C10D003242402A0420CD021
:10297000B0420AD005242402A04206D003246402F7
:10298000A04202D0884200D0FEE7062A0BD85A683F
:102990008A4302435A6006E0C968C26BFF230133D1
:1029A0009A430A43C2630120F0BD000000040040C6
:1029B0000002004001228A40806C1102814301D054
:1029C0000020704701207047062A04D8D200101852
:1029D000826881607047426C416470470904062A2E
:1029E00006D8D2001018426892B20A43426070477B
:1029F000C26B92B20A43C263704700000448016987
:102A000004221143016101690122114301617047F0
:102A100000E000E0416902229143416141690122E5
:102A20001143416170474169490849004161416969
:102A30000222114341617047F8B504460E46002555
:102A40002E48844200D0FEE7002E02D02C48864259
:102A500000D9FEE7202000F039FBB00701D00020AC
:102A6000F8BD206A0721490408400121C9048842B1
:102A700001D10020F8BD0127BF05384600F02EFB2C
:102A8000606903210902884360612046FFF7C2FFA5
:102A9000EFF3108072B61B49A1611B49A16180F35D
:102AA000108801202062E168E1601849316018490E
:102AB0006D1C8D420ED8226AD205D20F002A09D190
:102AC000226A9205D20F002A04D1226A5205D20F3F
:102AD000002A01D0002506E0226AD207D20F002A80
:102AE000E6D0206201250020C043A061384600F0F6
:102AF000E5FA202000F0DAFA2846F8BD0010004080
:102B0000FFFF010096969696EAEAEAEACDAB341208
:102B1000FFFF0000F0B587B006460C4617461D467D
:102B20001C216846FDF76AFC2248864200D0FEE779
:102B3000002C02D02048844200D9FEE72006000E77
:102B400002D0002007B0F0BD0020069001208002D6
:102B50000190401002904010039040010590174EE4
:102B6000072269463046FFF765FEA008316C3064E5
:102B7000B90807223046FFF727FF0722691E3046B3
:102B8000FFF72CFFF013B06407213046FFF744FE37
:102B900030680121084330600024094D641CAC42B8
:102BA00001D90020CEE707213046FFF703FF0128B7
:102BB000F4D1C7E700100040FFFF0100000400400F
:102BC000FFFF0000F0B587B005460C4617461C21F4
:102BD0006846FDF713FC3948854200D0FEE7002C1B
:102BE00002D03748844200D9FEE72006000E02D00A
:102BF000002007B0F0BD102000F068FA314E3068B8
:102C0000400840003060202000F060FA300300F0FF
:102C100065FA2846FFF707FFEFF3108072B62A49DE
:102C2000A9612A49A96180F310882846FFF7FBFEB5
:102C30000020069001900120400202904010039075
:102C400040010590072269463046FFF7F3FDA008D2
:102C5000316C3064B90807223046FFF7B5FE072211
:102C60003F213046FFF7BAFE0120C003B0640721C0
:102C70003046FFF7D1FD3068012108433060002461
:102C8000134F641CBC4201D9002406E007213046E2
:102C9000FFF790FE0128F4D101243068400840007D
:102CA00030600020C043A8610120800500F006FAD2
:102CB000202000F0FBF920469BE7000000100040B8
:102CC000FFFF010000040040A5A5A5A5F1F1F1F169
:102CD000FFFF0000C06981430804000C01D0002000
:102CE000704701207047C06981430804000C01D07F
:102CF0000020704701207047C06981430804000C20
:102D000001D00020704701207047000070B50446D4
:102D10000D460026424884420CD04148403084424F
:102D200008D03F488030844204D03D48C0308442BF
:102D300000D0FEE72868002802D03A49884200D92E
:102D4000FEE76868032806D0002804D0012802D0D6
:102D5000022800D0FEE7A868012802D0002800D091
:102D6000FEE7E868002802D0012800D0FEE78020B6
:102D70002D498A6A02438A6246E00120B040014040
:102D8000002940D06868032816D0A26A88B282431E
:102D9000A2626A68002A1DD0226882432260AA6863
:102DA000002A1BD0A2680243A260EA68002A19D058
:102DB00062680243626018E0226888B2824322603F
:102DC000626882436260A2688243A260A26A024390
:102DD000A2620AE0226802432260E0E7A26882431E
:102DE000A260E2E76268824362606868022806D1F6
:102DF000286901280ED0206A8AB2904320622046BA
:102E00006A6800F013F8761C29680846F040B4D1CF
:102E1000012070BD206A8AB210432062EFE70000F3
:102E2000000C0040FFFF00000002004010B5C36826
:102E300049434C000C19A34351430B43C36010BDDD
:102E400070B504460D4605263549364A8C4202D0F7
:102E5000944200D0FEE76868002808D0102806D009
:102E6000402804D0202802D0602800D0FEE728693E
:102E7000002806D0C31FF93B03D0FF3B013B00D025
:102E8000FEE78C4203D1042000F038F904E09442BC
:102E900002D1082000F032F96868602120282AD089
:102EA000402828D0602826D0226810239A43024365
:102EB0002260206888432060A868E16A090C090440
:102EC0000143E16228692168032212029143014310
:102ED00021602868A16A090C09040143A162E9681C
:102EE000802001290CD02168814321606069012183
:102EF0000843606109E022688A4302432260DBE7FD
:102F0000216801432160F1E7761E2069C007C00FE8
:102F1000002801D1002EF7D12161012070BD0000F1
:102F200000380140003C0140F8B504460D46002041
:102F300033498C4200D0FEE70323012229681B0499
:102F40001204002907D0914205D05600B14202D0A8
:102F5000994200D0FEE76968002902D0294EB142AB
:102F600000D9FEE701273F0627490E6B3E430E635B
:102F70008E1225494031CF6A3743CF622E68CF6A1F
:102F80009F433743CF62296800292FD0891A30D058
:102F9000891A31D0914201D100F09EF96968490047
:102FA000FDF72EFA401E6169184A114002041143D0
:102FB00061616169490A490201436161FDF761FF8D
:102FC0000022D243FEF784F80022114BFDF782FC69
:102FD000FDF70AFFE169490A49020143E161084935
:102FE00008680122104308600120F8BD00F0BEF817
:102FF000D4E700F057F9D1E700F08CF9CEE70000F4
:103000000024014040420F0000020040FFFF00FE8C
:103010000000E03F10B5FFF7F1FC0548416A0F22C0
:1030200012029143052252028918416210BD00002C
:103030000002004070B50268032A01D90322026031
:10304000CB06DB0E01229A40002901DB144B1A60EB
:1030500004688807C00EFF23834000290BDB8E081D
:10306000104DB60075192E689E43A3071B0E8340B2
:103070001E432E600DE00D072D0F083DAE080A4DD2
:10308000B6007519EE699E43A3071B0E83401E43CD
:10309000EE61002902DB02488038026070BD00004A
:1030A00080E100E000E400E000ED00E00249CA6ACF
:1030B0008243CA62704700000002004002490A6B66
:1030C00082430A6370470000400200400249CA6A16
:1030D0000243CA62704700000002004002490A6BC6
:1030E00002430A63704700004002004002490A6B35
:1030F00002430A63704700000002004002494A6B25
:1031000002434A63704700000002004010B51648B1
:10311000C06807210902084005221202811A904264
:1031200016D009DC002810D001218902884209D17B
:1031300000F0F0F8400810BDFF3901390CD0FF391C
:1031400001390DD000F0E6F810BD00F0E3F810BD35
:1031500000F0E0F8800810BD00F0DCF8C00810BDF9
:1031600000F0D8F8000910BD0002004010B5164864
:10317000C06807210904084005210904421A884251
:103180001AD009DC002814D00121890488420DD10D
:10319000FFF7BCFF400810BD01210904501A0FD0F1
:1031A000884203D1FFF7B2FF000910BDFFF7AEFF61
:1031B00010BDFFF7ABFF10BDFFF7A8FF800810BDE3
:1031C000FFF7A4FFC00810BD0002004010B516486C
:1031D000C0680721C90408400521C904421A884271
:1031E0001AD009DC002814D00121490588420DD1EC
:1031F000FFF78CFF400810BD0121C904501A0FD001
:10320000884203D1FFF782FF000910BDFFF77EFF60
:1032100010BDFFF77BFF10BDFFF778FF800810BDE2
:10322000FFF774FFC00810BD0002004010B51B4C32
:10323000A0690221084000280AD002280BD000F023
:1032400031F8A169702211400A07120F06D01FE061
:1032500000F028F8F5E712480068F2E709110B00C2
:1032600007F068FB08160507090B0F111516400833
:103270000EE080080CE0C0080AE00C21FDF7C0F861
:1032800006E0000904E01821FDF7BAF800E0400963
:10329000A1694902490E491C484310BD0002004083
:1032A000B8000020084801690F20000401400748C9
:1032B000002906D001221204891A03D0914200D1BC
:1032C00003487047034870470002004000127A002C
:1032D00000366E010024F4000A48416A032000040D
:1032E00001400948002908D001221204891A05D09A
:1032F000891A05D0914200D10011704703487047E8
:10330000034870474002004000093D0040420F0062
:1033100020A1070010B51048C0684007400F030007
:1033200007F008FB0705080B170E11141700FFF72D
:10333000B9FF10BD0948006810BDFFF777FF10BD49
:10334000FFF7CAFF10BD0648006810BD0120C0038A
:1033500010BDFFF7A7FF10BD00020040B80000201D
:10336000B4000020F0B5454C454DA04202D0A84223
:1033700000D0FEE7FF234A680133002A02D09A42B8
:1033800000D0FEE7CA69002A02D0042A00D0FEE776
:1033900003268A687602002A0AD0D71FFF3FFA3F29
:1033A00006D00127BF02BA4202D0B24200D0FEE7E7
:1033B0008A69002A0ED0082A0CD0102A0AD0182AAE
:1033C00008D0202A06D0282A04D0302A02D0382A51
:1033D00000D0FEE70A69002A02D0012A00D0FEE7E9
:1033E000CA68002A02D0022A00D0FEE7254FA04278
:1033F00004D101223C6B14433C6305E0A84236D162
:1034000002223C6B14433C634C690222012C30D0F5
:103410004468944344604C6805689D4325430560B7
:103420008C6905683827BD4325430560CC6905686C
:103430000427BD43254305608C684568B543254393
:1034400045600C6905686D086D00254305600C68D2
:1034500045689D4325434560C968036893430B4312
:10346000036041680122114341600120F0BD00204A
:10347000F0BD446814434460CDE70000008C014077
:103480000008014000020040426804239A430A43B6
:1034900042607047F8B504460D46002700268F4A63
:1034A00094420CD08E48844209D08E48844206D083
:1034B0008D48844203D08D48844200D0FEE72868BE
:1034C00000280CD004280AD0082808D00C2806D0E0
:1034D000012804D0022802D0032800D0FEE7A96802
:1034E000002906D0402904D0802902D0C02900D06C
:1034F000FEE72969002904D0102902D0202900D034
:10350000FEE7E968002903D0CB1FF93B00D0FEE7B6
:103510006969002906D0022904D0012902D00329B3
:1035200000D0FEE76D498C4223D17149CA6A9208E6
:1035300092000243CA622868002806D0012808D0F9
:1035400002280AD003280FD10BE0FFF70FFE074631
:103550000AE0FFF7A7FE074606E0FFF7DBFE074697
:1035600002E0FFF7B9FE074638466968FCF748FFF6
:10357000461E5B48844224D128685D4BD96A0C22E0
:1035800091430143D9622868002806D0042808D056
:1035900008280AD00C280FD10BE0FFF7E7FD0746FB
:1035A0000AE0FFF77FFE074606E0FFF7B3FE074697
:1035B00002E0FFF791FE074638466968FCF720FFF6
:1035C000461E4848844224D128684949CA6A0C23C7
:1035D0009A430243CA622868002806D0042808D00B
:1035E00008280AD00C280FD10BE0FFF7BFFD0746D3
:1035F0000AE0FFF757FE074606E0FFF78BFE074697
:1036000002E0FFF769FE074638466968FCF7F8FEF6
:10361000461E3248844208D187153846FFF766FDBA
:103620003348C16A3943C16230E02D48844208D131
:1036300047153846FFF75AFD2D48C16A3943C16224
:1036400024E02848844208D107153846FFF74EFD8C
:103650002748C16A3943C16218E02348844209D12E
:103660008014FFF743FDFFF7B1FD6968FCF7C8FE62
:10367000461E0BE01D48844208D14014FFF736FD7A
:10368000FFF7A4FD6968FCF7BBFE461E287DC00756
:1036900003D02068012108432060287D800703D5DE
:1036A0002068022108432060A069000C0004304318
:1036B000A061E8682168FF22013291430143216043
:1036C000A8682168C02291430143216028692168CC
:1036D00030229143014321600120F8BD001C0140CC
:1036E000002001400030014000A0014000A4014042
:1036F000400200400848C168C907C90F00290AD024
:103700000169C907C90F002905D0012101610348DA
:103710000168491C0160704700380140000000202A
:1037200010B500202049CA68D207D20F002A39D02C
:103730000A69D207D20F002A34D001220A611B4B3A
:103740004200995A8C0706D58C078908A40F491C9A
:1037500089000C439C52401CC0B20428F0D30020C6
:10376000134AC100535ADB0505D589184B885B0401
:103770005B0C5B1C4B80401CC0B20F28F1D30D4981
:1037800008784006800F02D08868401C886048781E
:10379000020702D54A68521C4A60C00602D5486832
:1037A000401C486010BD0000003C01409801002012
:1037B00060050020F80C00200448026801210A433B
:1037C0000260034802680A43026070470038014003
:1037D000003C014018B514460A4A135C0122002837
:1037E0000CD0142041430748401D0818005D69466D
:1037F00008706946184600F09FF818BD1120694608
:103800000870F6E7F8030020F8B506460C46204895
:103810008078012279216B461970694600F08CF896
:103820000546002C1BD0012C1FD0022C23D0032CCA
:1038300027D0132200210120FFF7CCFF0A213046B8
:10384000FCF7DEFD0C46024600210320FFF7C2FF15
:10385000224600210420FFF7BDFF2846F8BD1322B1
:1038600000210120FFF7B6FFE8E710220021012028
:10387000FFF7B0FFE2E7112200210120FFF7AAFFC6
:10388000DCE7122200210120FFF7A4FFD6E70000A9
:10389000F803002010B50021184A194B002804D065
:1038A00001280FD0022826D119E0506801242043B6
:1038B0005060D068C006C00F491C00281BD1994237
:1038C000F7D118E05068022420435060D068C00649
:1038D000C00F491C00280ED19942F7D10BE0506867
:1038E000042420435060D0680007C00F491C002802
:1038F00001D19942F7D1002010BD00000024014001
:10390000FFFF01000B498A69120A120202438A6111
:10391000C8688007C00F0028FAD00220C860C868B5
:103920004007C00F002803D00420C8600120704762
:103930000020704700240140F7B50F461646802E40
:1039400001D9FF20FEBD00250024009800F033FEC1
:10395000002801D001240CE0002308E0F85CFFF708
:10396000D1FF002801D0012403E05B1CDBB2B3428D
:10397000F4D30220FFF78EFF002800D00124002C92
:1039800005D06D1CEDB2032DDED32046FEBD0098A0
:1039900006F08EFF0446F8E770B50024084DE000FD
:1039A000401940688047641CE4B20F2CF7D300F044
:1039B00009F803F00FF801F089F904F0E9FD70BD92
:1039C0006005002000B50F480078C0070CD0012129
:1039D0000220FEF711FD00210320FEF70DFD00215E
:1039E0000C2000F04BFB00BD00210220FEF704FD7F
:1039F00001210320FEF700FD01210C2000F03EFB19
:103A000000BD0000F80C002070B50125184EAD0275
:103A100029463046FFF770F90221164C002806D0DF
:103A2000207888438007800F2080002070BD228886
:103A30000A432280FF239008F5339842F5D98A4340
:103A40009007800F208029463046FFF755F900285F
:103A5000EBD12188012001432180618801436180ED
:103A6000A1880143A180E1880143E18070BD00008D
:103A7000000C004098010020F8B540213F48FFF7B6
:103A800029F93F4F01263C4602250834002802D17F
:103A90002088C10706D080213848FFF71BF900288D
:103AA00014D016E02843208081080A290DD9A843A4
:103AB0008007800F208040213048FFF70BF9002855
:103AC00003D12088304320803E70F8BD6088C10754
:103AD00007D0FF2101312948FFF7FCF8002814D056
:103AE00016E02843608081080A29EED9A8438007A0
:103AF000800F608080212148FFF7ECF80028E4D196
:103B00006088304360803D70F8BDA088C1071FD039
:103B1000012149021948FFF7DDF80028F4D1E088B7
:103B2000C107F1D12843E08081080A29ECD9A843D4
:103B30008007800FE080012149021048FFF7CAF892
:103B40000028E1D1E0883043E08004203870F8BDDF
:103B50002843A08081080A29F9D9A8438007800F4B
:103B6000A080FF2101310548FFF7B4F80028EED10D
:103B7000A0883043A08003203870F8BD800C00403E
:103B800090010020F8B53D4E40213046FFF7A2F8E5
:103B900002253B4C012816D12188C80713D02943A0
:103BA000218088080A280DD9A9438807800F208022
:103BB00040213046FFF78EF8012803D120884008C5
:103BC00040002080F8BD80213046FFF783F80128AF
:103BD00016D16088C10713D02843608081080A2964
:103BE000F0D9A8438007800F608080213046FFF71E
:103BF00071F80128E6D16088400840006080F8BD77
:103C0000FF27013739463046FFF764F8012816D1FF
:103C1000A088C10713D02843A08081080A29EED9C3
:103C2000A8438007800FA08039463046FFF752F83E
:103C30000128E4D1A08840084000A080F8BD0127F9
:103C40007F0239463046FFF745F80128F6D1E08873
:103C5000C107F3D02843E08081080A29EED9A843A0
:103C60008007800FE08039463046FFF733F801289F
:103C7000E4D1E08840084000E080F8BD800C0040BE
:103C80009801002030B50020074B022441005A5A09
:103C900095080F2D03D9A2439207920F5A52401C48
:103CA000C0B20428F2D330BD9801002000B585B021
:103CB0000F208001009000200190029001210391CB
:103CC000049069460248FFF721F805B000BD0000E6
:103CD000800C004004210748826A0A438262064938
:103CE0000A6B520A52020A630421826A8A43826280
:103CF00070470000000200400010014010B500F0C5
:103D00001FF800F02DF900F0E3F800F07FF800F064
:103D100013F9FFF7CBFF00F0B1F800F07BF800F0EB
:103D200093F800F0F5F8FFF747FDFF210348013154
:103D3000816042680A43426010BD000000200140DB
:103D4000F0B585B02D48416901252943416141699C
:103D500002263143416141690422114341614169B5
:103D600008221143416141691022114341614169B7
:103D7000202211434161416940221143416141695F
:103D800080221143416182154169114341611C49FF
:103D90000091019500240294039504946946FEF76E
:103DA000B5FF7C2000900195029403940494134F76
:103DB0006946C0373846FEF7A9FF124800900194C3
:103DC0000294039504940D4869464030FEF79EFF27
:103DD0000096019402940395049408486946803043
:103DE000FEF794FF08480090019402940395049410
:103DF00069463846FEF78AFF05B0F0BD000C00406A
:103E0000FFE10000FF100000030E000010B500F0FD
:103E1000E1F810BD10B586B02F200190002002906F
:103E20007D21C900039104900590064C01A920460C
:103E3000FFF706F801202061E1680143E16006B068
:103E400010BD00000038014010B586B02F20019051
:103E5000002002900749039104900590064C01A9A7
:103E60002046FEF7EDFF01202061E1680143E1609B
:103E700006B010BDE7030000003C0140F0B587B07C
:103E80001020029002250395012404940026059633
:103E900006940C4F02A93846FEF738FF2020029006
:103EA000039504940596069402A93846FEF72EFF62
:103EB000200400900448019069460448FFF734F854
:103EC00007B0F0BD800C0040409C00000024014081
:103ED00030B585B0FF20FF3000900125019500240A
:103EE00002940394049469460848FEF70FFF0720E4
:103EF000800200900195029403940494034869465B
:103F00008030FEF703FF05B030BD0000000C00401C
:103F100038B5002400941A216846FFF78BF8009406
:103F20001B216846FFF786F8022000900B216846A7
:103F3000FFF780F838BD000000B585B00120800291
:103F400000900020019002900121039104906946A5
:103F50000248FEF7DBFE05B000BD0000000C00408B
:103F600030B58DB00F200002089002200990002487
:103F70000A9401250B950C9408A90A48FEF7C6FE81
:103F800000942802019003204002029003940495BB
:103F9000059520200690079469460348FFF7E2F94B
:103FA0000DB030BD400C0040008C0140BFF34F8F7E
:103FB00004490348C860BFF34F8F00BFFDE700000E
:103FC0000400FA0500ED00E010B52F2000F084FA9F
:103FD00010BD000070B58CB0012080030790022551
:103FE0000895002409940A940B94104E07A93046B2
:103FF000FEF78CFE28030790089509940A940B9409
:1040000007A93046FEF782FE0194E12040020290AB
:10401000402003900494102005900320069001A9ED
:104020000348FFF737FA0CB070BD0000400C0040A9
:104030000020014030B5002307E0C45CCD5CAC42F9
:1040400001D0012030BD5B1C9BB29342F5D3002010
:1040500030BD30B50446002303E0CD5CE5545B1C65
:104060009BB29342F9D330BD10B50446002302E061
:10407000E1545B1C9BB29342FAD310BD0A4A0C2355
:1040800058438018002908D0012905D141680089CA
:104090004A6980B202434A617047416800898A696F
:1040A00080B202438A617047A0040020F8B5402125
:1040B0003F48FEF721FE01263E4F02253E4C0028D8
:1040C00002D12088C10706D080213948FEF714FEAE
:1040D000002814D016E02843208081080A290DD931
:1040E000A8438007800F208040213148FEF704FE5E
:1040F000002803D12088304320803E70F8BD6088BE
:10410000C10707D0FF2101312948FEF7F5FD00283E
:1041100014D016E02843608081080A29EED9A8430C
:104120008007800F608080212148FEF7E5FD002890
:10413000E4D16088304360803D70F8BDA088C1073D
:104140001FD0012149021A48FEF7D6FD0028F4D1FC
:10415000E088C107F1D12843E08081080A29ECD921
:10416000A8438007800FE080012149021048FEF734
:10417000C3FD0028E1D1E0883043E080042038709E
:10418000F8BD2843A08081080A29F9D9A8438007EF
:10419000800FA080FF2101310548FEF7ADFD00280A
:1041A000EED1A0883043A08003203870F8BD000015
:1041B000800C00409001002098010020F8B53D4E91
:1041C00040213046FEF798FD02253B4C012816D1D0
:1041D0002188C80713D02943218088080A280DD9CF
:1041E000A9438807800F208040213046FEF784FDD8
:1041F000012803D12088400840002080F8BD80219C
:104200003046FEF779FD012816D16088C10713D02A
:104210002843608081080A29F0D9A8438007800FCD
:10422000608080213046FEF767FD0128E6D1608876
:10423000400840006080F8BDFF270137394630460E
:10424000FEF75AFD012816D1A088C10713D02843D4
:10425000A08081080A29EED9A8438007800FA0809A
:1042600039463046FEF748FD0128E4D1A0884008D1
:104270004000A080F8BD01277F0239463046FEF796
:104280003BFD0128F6D1E088C107F3D02843E08048
:1042900081080A29EED9A8438007800FE0803946BB
:1042A0003046FEF729FD0128E4D1E08840084000AF
:1042B000E080F8BD800C00409801002030B500205F
:1042C000074B022441005A5A95080F2D03D9A243E7
:1042D0009207920F5A52401CC0B20428F2D330BD4C
:1042E0009801002070B5054DAC691204044E0A43D4
:1042F0001A43344002431443AC6170BD00020040D5
:1043000085FF80FF70B52D4800F0A8F80120000659
:1043100000F0D8F804462A4D00202856032809DB6F
:1043200028A12AA006F040FB2346A322284929A061
:1043300006F03AFB2D480026F643844201D0304671
:1043400070BD0320000600F0BDF80446002028568A
:10435000032809DB1BA11DA006F026FB2346A8228B
:104360001B4923A006F020FB2748844201D0304699
:1043700070BD3120000600F0A5F804460020285644
:10438000032809DB0FA111A006F00EFB2346AC2287
:104390000F491EA006F008FB2248844201D0304697
:1043A00070BD0648401F00F059F8002000F056F894
:1043B000002000F06FF8002070BD00005A0000C619
:1043C000A40300206C6F673D3E00000025730000D1
:1043D00090B2000025733A25643A30783031206479
:1043E0006174613A253038780A0000007EB9000017
:1043F00025733A25643A3078303320646174613A29
:10440000253038780A00000004F8000025733A25AA
:10441000643A3078333120646174613A25303878F9
:104420000A0000002734000010B5084800F016F814
:10443000074800F013F8074800F010F8064800F0AD
:104440000DF80248401F00F009F810BD5A0000C9DD
:104450007EB9008104F80083273400B170B50546A9
:104460000B4C00212046FFF70FF86069656120467C
:1044700001698907C90F0029FAD00169C907C90F65
:104480000029FAD084690421FEF7FEFF204670BDA2
:10449000008C014070B50A4C00212046FEF7F4FF65
:1044A0006069002161612169C907C90F0029FAD03B
:1044B000A56920460421FEF7E7FF284670BD0000ED
:1044C000008C014010B504462046FFF7C7FF204688
:1044D000FFF7E0FF10BD000070B505460024402D39
:1044E00046D806F001FA0220224E31688908890078
:1044F0000143316000232A464021FFF7F3FE1E49A5
:10450000886901221043886188690006C00F641C15
:10451000002801D1601CF7D1C8680722120290431D
:10452000C860C86812029043C860C868D20090434F
:10453000C8600220CA68D208D2000243CA60182D9F
:1045400004D830688008800030600FE0193D172DD6
:1045500006D801203168890889000143316005E0EF
:1045600002203168890889000143316000F056FC5F
:1045700070BD0000001000400002004070B506460B
:104580000C461546002304E0E15C304600F004F8D8
:104590005B1CAB42F8D370BD4269520A52020A4317
:1045A000426181688907C90F0029FAD00020401CA8
:1045B0000A28FCDB704710B504460020FFF76AF9B3
:1045C000002801D0012010BD2046FFF79BF90028EC
:1045D00001D0022010BD002010BD000070B55BA00E
:1045E00006F0E2F95E4D5FA0297806F0DDF96988F2
:1045F00060A006F0D9F9A98864A006F0D5F9E98889
:1046000068A006F0D1F9297A6DA006F0CDF9697A93
:1046100072A006F0C9F9A87A8107890F76A006F082
:10462000C3F9A87A0007810F77A006F0BDF9A87A30
:104630008006810F7CA006F0B7F9A87A810981A0D5
:1046400006F0B2F9A98984A006F0AEF9A97B87A08B
:1046500006F0AAF9E97B8DA006F0A6F9297C93A0C3
:1046600006F0A2F9698A98A006F09EF9297D9DA01E
:1046700006F09AF9697DA3A006F096F9A97DA7A096
:1046800006F092F9298BACA006F08EF9698BB2A0E6
:1046900006F08AF9A98BB9A006F086F9A97FBCA01B
:1046A00006F082F9298CBFA006F07EF9698CC2A0C1
:1046B00006F07AF92C4620342179C4A006F074F96A
:1046C000E98CC7A006F070F9298DCAA006F06CF934
:1046D000207B0107090FCCA006F066F9207B0109B9
:1046E000CFA006F061F9E98DD3A006F05DF9298E1F
:1046F000D7A006F059F9A17CDBA006F055F9E17CC2
:10470000DEA006F051F9217DE1A006F04DF9617DB2
:10471000E6A006F049F9A17DEAA006F045F9E17DA1
:10472000EEA006F041F9217EF2A006F03DF9617E8F
:10473000F6A006F039F9A17EFAA006F035F9E17E7F
:10474000FEA006F031F9217F04E20000E698BEE702
:10475000A4BAE58F82E695B0E4BFA1E681AF0A0076
:10476000AC070020092046616E547970653A2564D3
:10477000200A0000092052617465644375727265F5
:104780006E74313A2564200A00000000092052614D
:1047900074656443757272656E74323A2564200ADA
:1047A0000000000009204375725472616E735261FB
:1047B00074656443757272656E743A2564200A00EC
:1047C00009204375725472616E7350696572636536
:1047D00054696D6573313A2564200A0009204375D8
:1047E000725472616E7350696572636554696D6568
:1047F00073323A2564200A0009205265737461728D
:10480000743A2564200A00000920526573746F729F
:1048100065466163746F727953657474696E67730A
:104820003A2564200A0000000920566F6C74616705
:10483000654661756C7453746174653A2564200A29
:1048400000000000092046616E53746F705374615C
:1048500074653A2564200A000920437572436F721B
:10486000506172616D3A2564200A00000920437589
:10487000724F76657253686F727444656C617946E5
:104880006C61673A2564200A000000000920437526
:10489000724F76657253686F727444656C617954B7
:1048A000696D653A2564200A0000000009204375FF
:1048B000724F7665724C6F6E6744656C6179466CB9
:1048C00061673A2564200A0009204375724F7665B6
:1048D000724C6F6E6744656C617954696D653A25F9
:1048E00064200A0009204D6F746F7253686F7274F0
:1048F00043697263756974466C61673A2564200A7E
:1049000000000000092053686F7274436972637578
:1049100069744D61783A2564200A000009205368C3
:104920006F72744369726375697444656C61793A36
:104930002564200A0000000009204469736368614F
:10494000726765536D6F6B654F75747075745469DC
:104950006D653A2564200A00092044697363686123
:10496000726765536D6F6B65466565646261636B05
:1049700054696D653A2564200A0000000920566FCD
:104980006C436F72506172616D3A2564200A0000B9
:104990000920566F6C4F766572466C61673A2564E4
:1049A000200A00000920566F6C4F7665724D6178C1
:1049B0003A2564200A0000000920566F6C4F766586
:1049C0007254696D653A2564200A00000920566F0B
:1049D0006C556E646572466C61673A2564200A0006
:1049E0000920566F6C556E6465724D61783A256486
:1049F000200A00000920566F6C556E646572546978
:104A00006D653A2564200A00092057726F6E675061
:104A100068617365466C61673A2564200A0000008E
:104A200009204C61636B5068617365466C61673A3D
:104A30002564200A00000000092057726F6E67503D
:104A40006861736554696D653A2564200A00000049
:104A500009204C61636B506861736554696D653AF8
:104A60002564200A00000000092043757245717515
:104A70006970466C61673A2564200A000920437515
:104A800072457175697054696D653A2564200A0034
:104A900009204661756C745472697070696E67465E
:104AA0006C61673A2564200A00000000092044492F
:104AB00039496E70757444656C61793A2564200AD1
:104AC00000000000092044493130496E707574447B
:104AD000656C61793A2564200A0000000920444988
:104AE0003131496E70757444656C61793A25642082
:104AF0000A000000092044493132496E707574443F
:104B0000656C61793A2564200A0000000920444957
:104B10003133496E70757444656C61793A2564204F
:104B20000A000000092044493134496E707574440C
:104B3000656C61793A2564200A0000000920444927
:104B400037496E70757444656C61793A2564200A42
:104B5000000000001AA005F027FF617F1EA005F0ED
:104B600023FFA17F22A005F01FFFE17F25A005F014
:104B70001BFF4035297828A005F016FFA9782BA047
:104B800005F012FFE9782EA005F00EFF297931A07B
:104B900005F00AFF697934A005F006FFA97937A06E
:104BA00005F002FFE9793AA005F0FEFE297A3DA062
:104BB00005F0FAFE697A40A005F0F6FE70BD00002F
:104BC0000920444938496E70757444656C61793ABE
:104BD0002564200A000000000920427574746F6E7D
:104BE000496E70757444656C61793A2564200A00D9
:104BF00009205230334F75747075744465663A25D8
:104C000064200A0009205230344F75747075744462
:104C100065663A2564200A0009205230354F7574C4
:104C20007075744465663A2564200A000920444979
:104C300037496E7075745365743A2564200A000014
:104C40000920444938496E7075745365743A256477
:104C5000200A00000920444939496E707574536573
:104C6000743A2564200A0000092044493130496E15
:104C70007075745365743A2564200A00092044490C
:104C80003131496E7075745365743A2564200A0099
:104C9000092044493132496E7075745365743A2560
:104CA00064200A00092044493133496E70757453F9
:104CB00065743A2564200A00092044493134496E5C
:104CC0007075745365743A2564200A0070B53C4CC5
:104CD000002560782146C3063A4A4968002B51DA1C
:104CE000430720464078EF263040002B1CDB6070E5
:104CF000656000210B20FDF77FFB207860210843D1
:104D00002070A560810708D500210846FFF7B6F995
:104D100000210120FFF7B2F970BD0007FCD500218A
:104D20000220FFF7ABF970BD528B7D23DB005A43A5
:104D30009142F8D96070656000210B20FDF75CFBA3
:104D400006F084F920493D2008702048417E8908FA
:104D50008900491C4176E068804700210846FDF73C
:104D60004BFB01210A20FFF789F900210420FDF700
:104D700043FB01210E20FFF781F901210F20FFF7EE
:104D80007DF970BD0307FCD583070826002B08DBDF
:104D900000210A20FDF730FB6078304360706560C9
:104DA00070BD128B7D23DB005A439142F8D930430A
:104DB0006070656000210A20FDF71EFB70BD0000D9
:104DC000F80C0020AC070020A0010020680400209F
:104DD00010B5FFF729FBFFF795FA0028F9D107482E
:104DE00000214156032908DB05A107A005F0DCFDE1
:104DF0003422064906A005F0D7FD10BDA40300200B
:104E00006C6F673D3E000000257300006FB200002C
:104E100025733A25643A200A0000000010B52148A5
:104E2000C168214C4907490F0B0005F083FD072B92
:104E300005082B0C24272B006068A06010BD00F033
:104E4000B1F8A06010BD17484030406A8003800F61
:104E500008D0012809D002280AD00328F2D113482B
:104E6000A06010BD1248A06010BD1248A06010BD27
:104E70001148A06010BD2068A06010BD0120C003D3
:104E8000A06010BD00690003000F012804D00228B3
:104E900005D00A48A06010BD0948A06010BD0948AF
:104EA000A06010BD00020040B400002090D00300BC
:104EB00000093D0040420F0020A1070000127A00C7
:104EC0000024F40000366E0170B53049002088617E
:104ED00005225206CA608A6A80231A438A622C4AD3
:104EE000D3680F24A4042343D3604862486A05238F
:104EF0001B02184348622748401E0028FCD1C8689E
:104F00000123DB061843C860AA20886322480123D6
:104F100003600C234360032001239B0758601F4B51
:104F20001868C543040CADB2AC4200D04020400626
:104F3000400E48615868C443030CA4B2A34200D099
:104F40004020430611485B0E4030836213484038CE
:104F5000006AC443030CA4B2A34200D08020C0B2B4
:104F600008625068FF23813318435060C86A1023D9
:104F70001843C8620A48C26B04152243C263C86A58
:104F80009843C862FFF74AFF70BD0000000200406E
:104F9000C00C0040204E000000A8014040FBFF1F55
:104FA0000004004010B500201F4CA1698907C90FFB
:104FB00002D001290FD10CE020690003000F012865
:104FC00003D0022803D0194805E0194803E0194826
:104FD00001E019484068A1694906490F0B0005F036
:104FE000A9FC08160507090B0F11151640080EE05D
:104FF00080080CE0C0080AE00C21FBF701FA06E08B
:10500000000904E01821FBF7FBF900E04009A16961
:105010004902490E491C4143A069C008C00700D09D
:105020004900084610BD00000002004000127A004E
:105030000024F40000366E01B400002010B501F029
:1050400079FEFEF719FDFEF79DFDFEF71BFE01F050
:10505000D3FE10BDF8B502211748FDF74DFEFF261F
:105060000027164D164C013601280ED00221124899
:10507000FDF742FE002807D128788006800E2870B0
:105080002088B04320806780F8BD2088304320808E
:1050900061884904490C0A29F6D9B0432080678009
:1050A00002210548FDF728FE0128EDD12878800669
:1050B000800E40302870F8BDC00C0040080600206B
:1050C00060050020F8B520211748FDF715FEFF26E2
:1050D00000270136154D164C00280ED0202112480D
:1050E000FDF70AFE012807D1287C8006800E28746F
:1050F000208AB04320826782F8BD208A3043208214
:10510000618A4904490C0A29F6D9B0432082678292
:1051100020210548FDF7F0FD0028EDD1287C800610
:10512000800E40302874F8BD400C00404806002036
:10513000A0050020F8B540211748FDF7DDFDFF264A
:1051400000270136154D164C00280ED0402112487C
:10515000FDF7D2FD012807D1287E8006800E287633
:10516000208BB04320836783F8BD208B304320839E
:10517000618B4904490C0A29F6D9B043208367831F
:1051800040210548FDF7B8FD0028EDD1287E8006B6
:10519000800E40302876F8BD400C004048060020C4
:1051A000A0050020F8B580211748FDF7A5FDFF26D2
:1051B00000270136154D164C00280ED080211248CC
:1051C000FDF79AFD012807D128788006800E287007
:1051D000208CB04320846784F8BD208C3043208429
:1051E000618C4904490C0A29F6D9B04320846784AC
:1051F00080210548FDF780FD0028EDD12878800644
:10520000800E40302870F8BD400C00406806002039
:10521000A0050020F8B5012109031848FDF76CFD31
:10522000FF2600270136164D164C00280ED03101FE
:105230001248FDF761FD012807D1287A8006800E0B
:105240002872208DB04320856785F8BD208D3043BE
:105250002085618D4904490C0A29F6D9B04320857F
:105260006785012109030548FDF746FD0028ECD1BB
:10527000287A8006800E40302872F8BD400C00402D
:1052800068060020A0050020F8B502211748FDF7A8
:1052900033FDFF2600270136154D164C00280ED091
:1052A00002211248FDF728FD012807D1287C80063D
:1052B000800E2874208EB04320866786F8BD208E2D
:1052C00030432086618E4904490C0A29F6D9B0433F
:1052D0002086678602210548FDF70EFD0028EDD1E6
:1052E000287C8006800E40302874F8BD800C004079
:1052F00068060020A0050020F8B501211748FDF739
:10530000FBFCFF260027164D164C013601280ED057
:1053100001211248FDF7F0FC002807D1287A800609
:10532000800E28722089B04320816781F8BD2089D2
:105330003043208161894904490C0A29F6D9B043D8
:105340002081678101210548FDF7D6FC0128EDD1B8
:10535000287A8006800E40302872F8BDC00C0040CC
:105360000806002060050020F8B50121C902184890
:10537000FDF7C2FCFF260027164D174C013600280A
:105380000ED0F1001248FDF7B7FC012807D1287CA8
:105390008006800E2874208AB04320826782F8BD80
:1053A000208A30432082618A4904490C0A29F6D9AF
:1053B000B043208267820121C9020548FDF79CFCA9
:1053C0000028ECD1287C8006800E40302874F8BD7F
:1053D000C00C00400806002060050020F8B501213F
:1053E00089021848FDF788FCFF260027164D174C48
:1053F000013600280ED0B1001248FDF77DFC0128CF
:1054000007D1287E8006800E2876208BB04320832B
:105410006783F8BD208B30432083618B4904490C9E
:105420000A29F6D9B0432083678301218902054800
:10543000FDF762FC0028ECD1287E8006800E40300B
:105440002876F8BDC00C004008060020600500204A
:10545000F8B5012149021848FDF74EFCFF26002748
:10546000164D0136164C00280ED071001248FDF77B
:1054700043FC012807D120788006800E2070288CFC
:10548000B04328846F84F8BD288C30432884698C0D
:105490004904490C0A29F6D9B04328846F840121B4
:1054A00049020548FDF728FC0028ECD12078800649
:1054B000800E40302070F8BDC00C00406005002018
:1054C00028060020F8B501211748FDF715FCFF2636
:1054D0000027164D0136164C00280ED00121124827
:1054E000FDF70AFC012807D1207A8006800E207281
:1054F000288DB04328856F85F8BD288D30432885D9
:10550000698D4904490C0A29F6D9B04328856F856D
:1055100001210548FDF7F0FB0028EDD1207A800637
:10552000800E40302072F8BD400C00406005002025
:1055300028060020F8B502211748FDF7DDFBFF26FD
:105540000027164D0136164C00280ED002211248B5
:10555000FDF7D2FB012807D1207C8006800E207445
:10556000288EB04328866F86F8BD288E3043288663
:10557000698E4904490C0A29F6D9B04328866F86FA
:1055800002210548FDF7B8FB0028EDD1207C8006FC
:10559000800E40302074F8BD400C004060050020B3
:1055A00028060020F8B504211748FDF7A5FBFF26C3
:1055B0000027164D0136164C00280ED00421124843
:1055C000FDF79AFB012807D1207E8006800E207609
:1055D000288FB04328876F87F8BD288F30432887EE
:1055E000698F4904490C0A29F6D9B04328876F8787
:1055F00004210548FDF780FB0028EDD1207E8006C0
:10560000800E40302076F8BD400C00406005002040
:1056100028060020F8B508211748FDF76DFBFF2686
:1056200000270136154D164C00280ED008211248CF
:10563000FDF762FB012807D128788006800E2870CC
:105640002088B04320806780F8BD208830432080C8
:1056500061884904490C0A29F6D9B0432080678043
:1056600008210548FDF748FB0028EDD12878800681
:10567000800E40302870F8BD400C004048060020E5
:10568000A0050020F8B510211748FDF735FBFF26CF
:1056900000270136154D164C00280ED01021124857
:1056A000FDF72AFB012807D1287A8006800E287290
:1056B0002089B04320816781F8BD20893043208153
:1056C00061894904490C0A29F6D9B04320816781D0
:1056D00010210548FDF710FB0028EDD1287A80063F
:1056E000800E40302872F8BD400C00404806002073
:1056F000A005002030B51B484168C905C90F002925
:105700002ED08068C005C00F002829D0164C6168D3
:10571000087FCA8B0007000F931C584380B24B6967
:10572000181803889D0B15D109680969CDB2990431
:10573000890C91420ED209188D7001880E22D14138
:105740000122920489181222D14101800749096877
:105750006268D1620088800B02D0606800680069CE
:1057600030BD000000200140A80300200000002000
:10577000F8B5324D84002959087FCB8B0007000F04
:105780009A1C504380B24A6912181088860B1DD1AA
:1057900086041BD0CE6A498C7118294E3668B142F6
:1057A00014D280040121800CC903401810802F59A5
:1057B0003E7F3007000F3109401CFAF721FE080731
:1057C000000F31090901014339771FE0810B16D120
:1057D0008104890C994212D3032189030843108064
:1057E0002F593E7F3007000F3109401CFAF708FEA1
:1057F0000807000F310909010143397706E0810BE1
:1058000004D0810402D18004800C1080002029592A
:105810000A7F13090EE0CA8B921C424392B24C6974
:10582000A2181488A40B03D010888004800CF8BD43
:10583000401CC0B28342EED80020F8BDA80300206F
:1058400000000020F0B58C461546344B81005A58B4
:10585000107F0407240F0609B44202D30009000197
:10586000107759580A7F1007000F0646170926E0DF
:10587000CA8B921C424392B24B699C182288930BAC
:105880001BD0920419D020888004800CA84200D23A
:1058900005462A46A11C6046FEF7DBFB2188880BE3
:1058A000491B80038904890C08432080810402D1AC
:1058B0008004800C20802846F0BD401CC0B2874286
:1058C000D6D8002026E0CA8B921C424392B24B6984
:1058D0009C182288930B1BD0920419D02088800436
:1058E000800CA84200D205462A46A11C6046FEF75D
:1058F000B0FB2188880B491B80038904890C08436D
:105900002080810402D18004800C20802846F0BDD4
:10591000401CC0B28642D6D80020F0BDA8030020AB
:10592000F8B52D4D2878C0074AD102212B48FDF744
:10593000DAF9FF262A4C01360027012841D12878C0
:10594000C10601D400073CD52088304320806188FF
:1059500064234A042349520C497F5943491D8A4212
:105960002ED9B0432080678002211C48FDF7BBF987
:10597000012825D1AF6028789F210840F7210840F1
:10598000EF21084028700020FCF7A8FC16480021F1
:105990004156032908DB15A116A005F005F8164AA3
:1059A000164917A005F000F801210A20FEF766FB52
:1059B00001210920FEF762FB00210420FCF71CFDF9
:1059C000F8BD02210548FDF78EF90028F8D120889E
:1059D000B04320806780F8BDF80C0020C00C004068
:1059E00060050020CC070020A40300206C6F673DF9
:1059F0003E0000002573000089020000EDB20000A7
:105A000025733A25643A20554F435F4449303A3074
:105A10000A000000F8B520214348FDF764F9434D22
:105A2000434F2E4620364035424C002807D1B879E6
:105A300001280BD06879062808D0072806D0202135
:105A40003948FDF750F9012822D02CE0208AFF21A7
:105A50000131084320820121F971618A64234A04DB
:105A6000B17D520C5943491D8A421CD9FF21013195
:105A7000884320820020608220212B48FDF733F9E3
:105A8000002810D1B87168790121FCF7F9F80AE013
:105A9000F879012807D10020F871228AFF2101310D
:105AA0008A432282608220211F48FDF71CF90128C9
:105AB00007D1B879002816D06879062813D00728AE
:105AC00011D020211848FDF70EF900280AD1F879E5
:105AD000022807D10020F871218AFF220132914368
