:020000040000FA
:10000000081B00203D0200004502000047020000DE
:1000100000000000000000000000000000000000E0
:100020000000000000000000000000004902000085
:1000300000000000000000004B0200004D02000024
:100040004F0200004F0200004F0200004F0200006C
:100050004F0200004F0200004F0200004F0200005C
:100060004F0200004F0200004F0200008D450000CB
:100070004F0200004F0200004F0200004F0200003C
:100080004F0200004F0200004F0200004F0200002C
:100090004F0200004F0200004F0200004F0200001C
:1000A0004F0200004F020000493200004F020000E2
:1000B0004F0200004F0200004F0200004F020000FC
:1000C00000F002F800F0AAF80CA030C80838241894
:1000D0002D18A246671EAB4654465D46AC4201D180
:1000E00000F09CF87E460F3E0FCCB6460126334208
:1000F00000D0FB1AA246AB4633431847946A00006F
:10010000B46A00000023002400250026103A01D321
:1001100078C1FBD8520700D330C100D50B607047BF
:1001200010B56E2902D100F083FF10BD702902D1F5
:1001300001F0C5F810BD662902D1C046C04610BD09
:10014000652902D1C046C04610BD672902D1C0460C
:10015000C04610BD612902D1C046C04610BD03682B
:100160001B0A01D380231943692902D100F02AFF19
:1001700010BD642902D100F025FF10BD752902D100
:1001800000F020FF10BD6F2902D101F043F810BD2F
:10019000782902D101F080F810BDE92902D100F0E0
:1001A000DFFF10BDE42902D100F0DAFF10BDF52910
:1001B00002D100F0D5FF10BDEF2902D101F036F8D1
:1001C00010BDF82902D101F075F810BD0368DB09F4
:1001D00001D380231943632902D101F0E1F910BD55
:1001E000732902D101F0E4F910BDE32902D101F035
:1001F000EEF910BDF32902D101F0F1F910BD002094
:1002000010BD1FB501F054FA04000020002106F0D3
:100210000FFC401C60601FBD10B510BD01F017FA47
:100220001146FFF7EEFF06F0A9FB01F037FA03B421
:10023000FFF7F2FF03BC01F03FFA000007488047D8
:1002400007480047FEE7FEE7FEE7FEE7FEE7FEE7BA
:1002500004480549054A064B70470000A5430000C5
:10026000C1000000080B0020081B0020081300201C
:10027000081300207CB51D4616460C00009001D0E6
:100280000019401E084B7B442A46694601903046BF
:1002900000F0E7FE002C054603D06946002000F080
:1002A000F3FE28467CBD0000090E00000022030971
:1002B0008B422CD3030A8B4211D300239C464EE081
:1002C00003460B433CD4002243088B4231D303093D
:1002D0008B421CD3030A8B4201D394463FE0C309EF
:1002E0008B4201D3CB01C01A524183098B4201D307
:1002F0008B01C01A524143098B4201D34B01C01AF2
:10030000524103098B4201D30B01C01A5241C30869
:100310008B4201D3CB00C01A524183088B4201D3D8
:100320008B00C01A524143088B4201D34B00C01AC4
:100330005241411A00D201465241104670475DE0D9
:10034000CA0F00D04942031000D34042534000225C
:100350009C4603098B422DD3030A8B4212D3FC2205
:10036000890112BA030A8B420CD3890192118B4284
:1003700008D3890192118B4204D389013AD092119A
:1003800000E08909C3098B4201D3CB01C01A524155
:1003900083098B4201D38B01C01A524143098B421E
:1003A00001D34B01C01A524103098B4201D30B0107
:1003B000C01A5241C3088B4201D3CB00C01A52412C
:1003C00083088B4201D38B00C01A5241D9D2430813
:1003D0008B4201D34B00C01A5241411A00D2014650
:1003E000634652415B10104601D34042002B00D5BA
:1003F0004942704763465B1000D3404201B500207C
:10040000C046C04602BD704770477047F0B50C4605
:10041000871A9C410D46861A9D4103D2C01BA141FB
:10042000D21963410D0D1F0DC94EEC1BAE435CD0BC
:100430007F057F0D0026002F51D02D05AC46A94326
:10044000DD020123ED0A1B051D4320231B1B24D4C1
:100450001746E740381871412F46E740CC199D40B8
:100460002818314661410C0D27D161449A4013D5BB
:100470000023401C594152000ED140084000012287
:100480004B005205D34207D305204007C14201D596
:10049000B04900E0B0493046F0BD6B00002A00D002
:1004A00001229A181F23203C1B1B01D5002302E0C8
:1004B000E540281871410C0DD7D0012424050919F5
:1004C000C407CD0740084908E40F28436144002CC5
:1004D000D5D00024401C61419A40D0D1CDE76A05B7
:1004E000520DD9D1C90FC907D5E79C4D4E00002840
:1004F00001D0012400E0002434195F00002A01D05B
:10050000012600E00026BE19954FAC420CD8AE4241
:100510000AD8B44206D001256D05EC42BCD0104685
:100520001946F0BD9942FCD000203946F0BDF0B527
:100530001FB40C460F46811A9F412546861A9D41DD
:1005400006D20125ED076F40401ABC4152187B418D
:10055000210D1E0D8D1BAC467D4D8D437ED0750546
:100560006D0D7CD00D05AE46AC431B031B0B794DC6
:1005700052429D41202366469B1B14D31746F740E9
:10058000381800260090744160462F460741E41950
:1005900000989D402818664116D4714671189A40FB
:1005A00025D5012320E093182A466A415200002BEA
:1005B00000D0521C1E23203E9B1B002B61DD3541C9
:1005C000EE1728186641E8D5001876415B1C9A4062
:1005D00000D3401C4B05F3181524E34010D3002B27
:1005E00052D071467118D30FC01802D3491C05B000
:1005F000F0BD0123DB079A42F9D140084000F6E73D
:1006000001225205B21801D1002853D00123CC0A8F
:10061000DB029943891E002A08D1020C03D0020C88
:100620000004103902E00246002020390023550B57
:1006300005D112020823550B01D152010D23550C8F
:1006400001D112011B1DD50C01D192009B1C150D6F
:1006500001D152005B1C2025EE1A01E02CE022E0C3
:100660000546F54015439840CA1AE1076918130575
:10067000C918002ABBDA032040070818C10FC907B0
:100680000FE071466118B2E7F107400808437110A6
:1006900071444A000CD001235B059A42A7D2C90FCE
:1006A000C9070020A3E74905490D26D1002001E034
:1006B0000028F4D100219AE7284D6600002801D0D7
:1006C000012100E0002171185F00002A01D00126FD
:1006D00000E00026BE19224FA94210D8AE420ED823
:1006E000B14208D001256D05E94206D01946A8029D
:1006F000414010467BE79C4201D0214677E700202D
:10070000394674E710B50C465C4005D50124E40772
:100710006340FFF70CFF10BDFFF778FE10BD30B44B
:100720000C465C4004D50124E407634030BC6DE610
:1007300030BCFCE670B50124E40761400D465D4025
:1007400002D4FFF763FE70BD6340FFF7F0FE70BD9B
:10075000FF0700000000F0FF0000F07F0000E0FF56
:100760000000F87FF0B5F94D0C091E092C402E4011
:100770002F468BB0A7437DD0B543FCD0002E7AD056
:10078000002CFCD00D465D40ED0F2543AC1BFF2532
:10079000AD0464190894C502440DC9022143500DEB
:1007A000DC0204430120C00701430443D20201914B
:1007B000200C110C00958C46010423468B430A91B2
:1007C00061460904E24D8A430991010A7D444919B1
:1007D0008039097805464D4301266D18F605751BCD
:1007E0006943C90C640B891C4C436418B5012C1B6C
:1007F000250C2E04B4434C434D43210C6918890940
:100800000591009DE90701D00121C90704912C46FB
:1008100001996708CD072F434C08059DE10B4D4317
:100820002D0C29466646754302950D4645432E46D6
:10083000029D7D1BB44100950D465D4301942C0C37
:100840002F040D465543AE462D0C3D4302950394AF
:100850007546049C2D04641B049406D2029C039DDF
:10086000641C002675410395029401AC70CC009F76
:100870007D1B01E03EE162E1B4410904009507916E
:1008800001940599A4086143090C0C464443650B87
:10089000E7040C4666467443A646640B3C43039546
:1008A00002947446049DE4042C1B049406D2029C1A
:1008B000039D641C002675410395029401AC70CC25
:1008C000009F7D1BB44101940C465C430095650F6D
:1008D000E7000C465443A646640F3C43039502943C
:1008E0007446049DE4002C1B049406D2029C039DD4
:1008F000641C002675410395029401AC70CC009FE6
:100900007D1BB441AE09AF06049DC900AD092F435C
:10091000049DA406AD060495079D3443691807910C
:10092000059DE10B4D432D0C294666467543029506
:100930000D4645432E46029D7D1BB44100950D4654
:100940005D4301942C0C2F040D465543AE462D0CEF
:100950003D43029503947546049C2D04641B049446
:1009600006D2029C039D641C0026754103950294E7
:1009700001AC70CC009F7D1BB44101948C050694A2
:10098000079C890A611800950791019C0599A408A4
:100990006143090C0D464543680BEF040D46644660
:1009A00065436C0B3C43049FED047D1BAC4602D2B7
:1009B0000025641C6841009E019D371B8541084647
:1009C000584301950C46460FC5005443600F284319
:1009D0006546E4002C1B02D20025401C6E41019D9F
:1009E0003F1AB5412846BD09800628438446A00920
:1009F000BF064E020699A40676180743079D0020FD
:100A000068410A99079019430020099B00906046AD
:100A1000FF1913434041E20F64003A43A4460446E1
:100A2000D71A8C41A04203D90120009020463A46B3
:100A3000C70F941840416246D20F224364466400B7
:100A40000494009CBE466400D71AA446044602974C
:100A50008C417746002F01D1A04204D96046401C4A
:100A60008446029A2046C40FA64694184041049A30
:100A70000546D20F224364466400D31A8D41714665
:100A8000002901D1A84202D928461A46641C104305
:100A90000122002800D0164361020020079B89191B
:100AA00004465C410223002C02DB491813466441D2
:100AB000089DCE0A2D145D194B056705E10A2C052A
:100AC0000D1908993E43C9076940002B08D093408F
:100AD00006D30022761C5141002B01D17608760006
:100AE0001C4A002D43DB154241D0AA433FD030467B
:100AF0000BB0F0BD06180D464D41174C7642AC4187
:100B00001AD395181C465C41134A6D42A24113D377
:100B1000012252054C00D4420AD15C00D4420BD0D1
:100B20004B4002D592021143E2E749004908DFE752
:100B30005940C90FC90718E000200849D8E70548FF
:100B400001420DD10342F7D0F2E700000000FF0799
:100B5000FA6200000000F07F0000E0FF0000F87F74
:100B6000114859400143C01241400020C0E7012311
:100B7000089A9B069A4205DC032252078918C90F7E
:100B8000C907B5E7052252078918074A1143D2124F
:100B90005140ADE770B515461C4602460B46284647
:100BA0002146FFF7DFFD70BDFFFFFF7F30B5034635
:100BB000CA02400D1043164D164C0A1502D02043B0
:100BC000002A06DBAA1A002A12DDD040FF2A0BDC1D
:100BD00030BD5205520D01D140004008AA1A07D479
:100BE000D0404042FF2A01DD002030BD0028FCDD5E
:100BF0004A00002B01D0012000E000201018012243
:100C00005205D042F0D8C817C043604030BD000044
:100C10001E040000000000800346CA02400D10B50B
:100C200010430A1504D00124E4072043002A05DB01
:100C30000A4CA21A04D4D040FF2A00DD002010BDC7
:100C40004A00002B01D0012000E0002010180122F2
:100C50005205D042F2D8C817C04310BD1E04000090
:100C60001F22030C02D10F22000402D0030E03D076
:100C700004E00020014670470002083A030F01D14A
:100C80000001121F830F01D18000921E002801DB9A
:100C90004000521E120551184205C012411810465C
:100CA0007047C10FC90700D040420122920711438B
:100CB000D6E701218907D3E7F0B58B4C0F0925460C
:100CC00089B0BD437BD01D092646AE43FAD00E46FF
:100CD0005E402740F60F3E43254071D0240121425B
:100CE000FBD0FF24AD19A4042D1B039501252D0570
:100CF000DB02DB0AC9022B43C90A29431E01090191
:100D0000040F130F050121431701880B8203914340
:100D10002D098C46A90B1E438A039543B30B9A03F6
:100D200096433F09BA0B9403A74302962E467E438F
:100D30000497B6464E19D7190C46019654430597A9
:100D40007E43371B7646BF1B3601B646BE0B3619AF
:100D500000967646BC043719009C01D3641C0094AD
:100D60006400002F01D001263443029E049F754386
:100D700066467E430496760034196E00341900945A
:100D8000029C019E1C196643751BAE46069465467F
:100D90004519059C05956C43594375460891691A98
:100DA0000191049E01465143A41B0491611A009CC9
:100DB0000791E10605D061090122114302E072E0CA
:100DC0006EE06109089D00272C0A2D066918049D14
:100DD0007C412A0A2D066918019D6241AC0DAD02C5
:100DE0006D185441079A910D920255196141029A6A
:100DF000644658435443069B059A5A43121A131BE0
:100E00009A0E9B015B187A41010B0005C3185141F2
:100E1000220A200644195A419A4200D2491C012054
:100E20004002814203D315230226F64302E0142335
:100E30000326F6432020C51AA9401746AF40DA40E2
:100E40000A4320460399D84009147318190551180C
:100E5000039A3843D2075140AC4009D00122944054
:100E600006D30022401C5141002C01D14008400013
:100E70001E4A934212D3012203989206904207DB46
:100E80000520400709181A480143C012414004E0F8
:100E9000032040070818C10FC907002009B0F0BDA2
:100EA0000020F107FAE705180C464C4111486D4245
:100EB000A04115D394181A465A410E4864429041F5
:100EC0000ED301204A004005824209D35A008242D3
:100ED00006D35940C90F084AC90700201143DDE76E
:100EE00000200649DAE700000000FF07FE070000C7
:100EF000FFFFFF7F0000E0FF0000F07F0000F87FB1
:100F000070B5044685690068C10601D5302600E049
:100F10002026C00707D070BD62683046A1689047A0
:100F2000206A401C20626D1EF6D570BD70B5044667
:100F300085690078C00707D170BD6268A16820206C
:100F40009047206A401C20626D1EF6D570BD09686E
:100F50004A0501D540B27047C905FCD500B27047BB
:100F600009684A0501D5C0B27047C905FCD580B2F1
:100F7000704770B50C460546012A05D028788006D2
:100F800000D5EA69002302E0012305E05B1C9342DF
:100F900002D2E05C0028F9D1A869E618C01AA8615D
:100FA000286AC01828622846FFF7AAFF04E06A688A
:100FB0002078A968641C9047B442F8D32846FFF70C
:100FC000B5FF70BDF7B5002575291068009914A606
:100FD00011D0FFF7BCFF002802DA404211A608E05A
:100FE000009909688A0701D50FA602E0490704D5D0
:100FF0000EA6012501E0FFF7B3FF009F0024243770
:1010000004E000F010FB30313955641C0028F8D1A1
:101010002B4632462146009800F05FFAFEBD0000E4
:10102000000000002D0000002B0000002000000048
:1010300011680268006A530501D5087009E0D305FC
:1010400001D5088005E0130602D5C21705C100E0EE
:10105000086001207047000001694A1C026108789D
:10106000704700B58FB002910021059105490193A9
:101070007944039111460490684600F02DF90FB0B1
:1010800000BD0000E5FFFFFF0A681070521C0A60F7
:1010900070474B680A689A4202D2531C0B6010706A
:1010A00070470000F7B50446154686B02B487844D3
:1010B000002703C83E460090019111E007986A4658
:1010C0007100415A02A800F08EFA411C07D0217825
:1010D000890603D5E269391891420ED83F18761C6B
:1010E0002078800602D5E069B84206DDAE42E5DB35
:1010F00007987100405A0028E0D1A069C01BA06188
:101100002046FFF7FDFE154878445A3803C8009082
:101110000020019116E041006A460798415A02A852
:1011200000F061FA0590401C0AD0002505E06268D5
:1011300002A8A168405D90476D1C05988542F6D3D2
:101140000498401CB0420490E5DB206AC01920627C
:101150002046FFF7EBFE09B0F0BD00009A5A0000F0
:10116000F7B5D21D0025D20815A6D200F52905CA6B
:1011700011D0002A05DA00214042914111A60A4609
:1011800008E0009909688B0701D50FA602E049071E
:1011900001D50EA601251146009F0024243704E046
:1011A00000F05EF930323A55641C02460A43F7D12A
:1011B0002B4632462146009800F08FF9FEBD000014
:1011C000000000002D0000002B00000020000000A7
:1011D00070B504460021243408E05507D2086D0F8D
:1011E000303565545D072A43DB08491C15461D430D
:1011F000F3D10468002310A2250708D520252C4030
:101200000C4304D0C46901230CA2641EC46100F025
:1012100064F970BD10B5044621461068FFF7A0FEC2
:10122000002302462046FFF7D3FF10BDD21DD10890
:10123000C9000CC9CCE7000000000000300000002D
:10124000F8B50F460188090502D5224C7C4402E01E
:10125000204C7C440E3405460021243508E0160756
:101260001209360FA65D6E541E0732431B09491C36
:1012700016461E43F3D1224604780023240705D5E1
:10128000702F06D0002901D00223113200F025F979
:10129000F8BD01231032F9E770B504460D4621462A
:1012A0001068FFF75DFE0023024629462046FFF73F
:1012B000C7FF70BDD21DD308DB000CCBC0E730B434
:1012C000036820241268234303600823C36130BCF1
:1012D0000023B5E704590000F3B50446002081B0AF
:1012E00020622046E1688847002872D0252802D075
:1012F0006268A168ABE0594F00267F442046E16850
:1013000088472028054608DB312D06D27819203879
:101310000078002801D00643F0E7B00701D504208B
:1013200086430020E0610746A0612A2D0AD02846A6
:1013300005F0A8FA002827D0B8000019303D009029
:10134000856119E00298BA00121902C891610290F1
:101350002046E1688847012F054617D1E06900283B
:101360001FDA202086431CE000980A218069484348
:1013700000994019303888612046E1688847054661
:1013800005F080FA0028EFD1012F0AD02E2D08D1C8
:101390002046E16888470546202006437F1C022F2F
:1013A000C3DBA069002803DA4042A06101200643A4
:1013B000F00701D0102086436C2D0BD0682D09D08A
:1013C0004C2D3CD06A2D38D0742D38D07A2D36D0A3
:1013D00016E040E0E1682F4620468847B8420546BF
:1013E00009D16C2F29D001208002E16806432046F4
:1013F0008847054604E06C2F1DD0FF2001300643CE
:10140000002D28D028464138192803D80120C002D1
:1014100006432035204626602946029A1646FEF7E6
:101420007FFE002810D001280BD0F61DF008C00068
:101430000830029055E74020E1E78020D5E7002002
:10144000D3E7361D02964CE762682846A1689047AC
:10145000206A401C44E7206AFEBD00007E58000060
:101460000B4670B5024689078008084319469D0857
:10147000141AA94125090807054308092C194841F0
:10148000250A01060D43010A2C194141200C0D04C7
:1014900028430D0C00194D41002140194D41C00851
:1014A00069070843E908840F8D0025438400241848
:1014B0004D4124196D41121BAB4107E00925ED4355
:1014C0002C11521963410024401C61411C460A251D
:1014D0000026551BB441F1D270BDFFB504460D4640
:1014E00081B0243000902168880604D51022E0697C
:1014F0009143216000E00120A84201DD471B00E08C
:1015000000270498A1697A191018081AA061207898
:10151000C00602D42046FFF7F3FC002608E003983B
:101520006268A168805D9047206A401C761C20623A
:1015300004988642F3DB2078C0060AD52046FFF7E0
:10154000DFFC06E06268A16830209047206A401CFA
:10155000206238467F1E0028F4DC07E000986268AD
:10156000A168405D9047206A401C206228466D1E9D
:101570000028F3DC2046FFF7D9FC2078000602D5CE
:10158000022005B0F0BD0120FBE710B54369002B38
:1015900002D0C046C04601E0FFF7EBFC012010BDC1
:1015A0001278014624310A7000224A700122ECE7C9
:1015B00011680022D243E8E710B54369002B02D03E
:1015C000C046C04601E0FFF76DFD012010BD128846
:1015D0000146243182840022C2840122ECE7116892
:1015E0000022D243E8E770B516460C46054600F0E7
:1015F0004DF80368FF200230C05C012807D0FF2CA3
:101600000ED8185D00280BD001202C7070BDFF3360
:101610003246214608331868C3182846984770BDDB
:101620000020C04370BD01468008081A0209101846
:10163000020A1018020C1018C0088200121852007A
:10164000891A01E0401C0A390A29FBD27047754605
:1016500000F02AF8AE46050069465346C008C000AF
:10166000854618B020B5FEF7F3FD60BC0027490899
:10167000B6460026C0C5C0C5C0C5C0C5C0C5C0C52A
:10168000C0C5C0C5403D49008D46704710B500F04B
:101690000FF8001D10BD00BF995300000446C0465E
:1016A000C0462046FEF7C3FD00487047A80A002048
:1016B00000487047C80A002001491820ABBEFEE769
:1016C00026000200024670B50A4392072AD11E4D39
:1016D000EE0104C808C9541B9443344017D0D0B25B
:1016E000D9B2401A2106014310D190B299B2401AE2
:1016F000210401430AD110021902000A090A401A02
:101700002102014302D1100E190E401A70BD9A42F7
:10171000DFD010BA19BA884201D9012070BD00206B
:10172000C04370BD02780B78401C491C002A09D0C8
:101730009A4207D102780B78401C491C002A01D03C
:101740009A42EFD0D01A70BD01010101704770B507
:101750008C180578401C6B075B0F01D10378401C87
:101760002A1106D10278401C03E00678401C0E7056
:10177000491C5B1EF9D12B0705D40023521E0DD442
:101780000B70491CFAE70378401CCB1A921C03E04B
:101790001D780D70491C5B1C521EF9D5A142D8D38F
:1017A000002070BD10B50446012C14D1002108465C
:1017B00002F026FC0021012002F022FC0121002081
:1017C00000F040F800210D2002F01AFC01210E204B
:1017D00002F016FC11E0002C0FD10121002002F0D4
:1017E0000FFC0121084602F00BFC0021084600F026
:1017F00029F801210D2002F003FC10BD10B50446AC
:10180000012C10D10021022002F0FAFB0121084630
:1018100000F018F800210E2002F0F2FB01210D204B
:1018200002F0EEFB0DE0002C0BD10121022002F0B2
:10183000E7FB0021012000F005F801210E2002F055
:10184000DFFB10BD30B505460C461A48807EA84225
:101850000CD1012C04D10021032002F0D1FB05E0C2
:10186000002C03D10121032002F0CAFB1148C07EE5
:10187000A8420CD1012C04D10021042002F0C0FBAD
:1018800005E0002C03D10121042002F0B9FB094836
:10189000007FA8420CD1012C04D10021052002F0C8
:1018A000AFFB05E0002C03D10121052002F0A8FBCD
:1018B00030BD0000BC000020F0B5A1B005460C46CC
:1018C000A01E82B2294601A802F045FBA21E01A972
:1018D00076A005F009F804227BA101A802F028FBFC
:1018E00000280CD17AA004F0FFFF83A004F0FCFFD5
:1018F0008AA004F0F9FF93A004F0F6FF95E3042218
:1019000098A101A802F014FB00282ED16846407A65
:101910003038C6B2314695A004F0E6FF002E06D05E
:10192000012E09D0022E0DD0032E17D110E0002079
:1019300002F05AFC074612E00D20000602F054FCAB
:1019400007460CE00720400602F04EFC074606E082
:101950000F20000602F048FC074600E000BF00BF71
:10196000394686A004F0C0FF5FE3092287A101A8E1
:1019700002F0DEFA002875D187A004F0B5FF8B488D
:1019800001788BA004F0B0FF884841888DA004F056
:10199000ABFF8648818891A004F0A6FF8348C188E8
:1019A00094A004F0A1FF8148017A9AA004F09CFF62
:1019B0007E48417A9FA004F097FF7C48807A810797
:1019C000890FA4A004F090FF7848807A0007810F67
:1019D000A5A004F089FF7548807A8006810FAAA02F
:1019E00004F082FF7148807A8109AEA004F07CFF88
:1019F0006E488189B1A004F077FF6C48817BB5A067
:101A000004F072FF6948C17BBAA004F06DFF67481B
:101A1000017CC0A004F068FF6448418AC5A004F0BE
:101A200063FF6248017DCBA004F05EFF5F48417D0B
:101A3000D0A004F059FF5D48817DD5A004F054FF8B
:101A40005A48C17DD9A004F04FFF5848017EE0A05C
:101A500004F04AFF5548418BE6A004F045FF534887
:101A6000017F00E0A6E2E9A004F03EFF4F48C18BF1
:101A7000ECA004F039FF4D48018CEFA004F034FFD6
:101A80004A4820308178F2A004F02EFF4748818C2C
:101A9000F5A004F029FF4548C18CF9A004F024FF0B
:101AA00042482030007A0107090FF5E1646562754C
:101AB000676275663A25732C20E995BFE5BAA63AA8
:101AC0002564200A0000000068656C7000000000BA
:101AD000090909202020202020202020200920E69C
:101AE0008EA7E588B6E591BDE4BBA4E68F90E7A498
:101AF000BA76312E30200A000909092068656C7019
:101B0000090909093AE698BEE7A4BAE591BDE4BB24
:101B1000A4E4BFA1E681AF200A0000000909092062
:101B200073686F7720696E666F0909093AE698BE97
:101B3000E7A4BAE58F82E695B0E4BFA1E681AF20C5
:101B40000A000000090909207265626F6F740909B3
:101B500009093AE9878DE696B0E590AFE58AA820B5
:101B60000A00000074657374000000000909092070
:101B7000206E756D3B2564200A00000009090920CC
:101B8000206E756D3B25303878200A0073686F77BA
:101B900020696E666F000000E698BEE7A4BAE58F84
:101BA00082E695B0E4BFA1E681AF0A009C00002068
:101BB000092046616E5479706528293A2564200A07
:101BC00000000000092052617465644375727265FB
:101BD0006E743128293A2564200A000009205261D8
:101BE00074656443757272656E743228293A25648F
:101BF000200A000009204375725472616E735261AD
:101C000074656443757272656E7428293A25642080
:101C10000A00000009204375725472616E735069A6
:101C20006572636554696D65733128293A256420AE
:101C30000A00000009204375725472616E73506986
:101C40006572636554696D65733228293A2564208D
:101C50000A00000009205265737461727428293AE1
:101C60002564200A000000000920526573746F7219
:101C700065466163746F727953657474696E6773D6
:101C800028293A2564200A000920566F6C74616780
:101C9000654661756C74537461746528293A2564CE
:101CA000200A0000092046616E53746F70537461FE
:101CB000746528293A2564200A000000092043752C
:101CC00072436F72506172616D28293A2564200A4F
:101CD0000000000009204375724F76657253686FEB
:101CE000727444656C6179466C616728293A256491
:101CF000200A000009204375724F76657253686FA1
:101D0000727444656C617954696D6528293A25645B
:101D1000200A000009204375724F7665724C6F6E81
:101D20006744656C6179466C616728293A256420AF
:101D30000A00000009204375724F7665724C6F6E81
:101D40006744656C617954696D6528293A2564207A
:101D50000A00000009204D6F746F7253686F72742F
:101D600043697263756974466C616728293A256412
:101D7000200A0000092053686F727443697263750A
:101D800069744D617828293A2564200A0000000012
:101D9000092053686F72744369726375697444658E
:101DA0006C617928293A2564200A000009204469D9
:101DB00073636861726765536D6F6B654F7574709F
:101DC000757454696D6528293A2564200A0000005D
:101DD0000920446973636861726765536D6F6B6551
:101DE000466565646261636B54696D6528293A25AF
:101DF00064200A000920566F6C436F725061726153
:101E00006D28293A2564200A000000000920566F39
:101E10006C4F766572466C616728293A2564200A02
:101E2000000000000920566F6C4F7665724D617896
:101E300028293A2564200A000920566F6C4F7665E0
:101E40007254696D6528293A2564200A0000000053
:101E50000920566F6C556E646572466C616728295F
:101E60003A2564200A0000000920566F6C556E6404
:101E700065724D617828293A2564200A0000000027
:101E80000920566F6C556E64657254696D6528291A
:101E90003A2564200A00000067A004F025FD6C4884
:101EA000007A01096BA004F01FFD69482038418DBC
:101EB0006EA004F019FD66482038818D71A004F0F1
:101EC00013FD6348817B75A004F00EFD6048C17B63
:101ED00078A004F009FD5E48017C7CA004F004FDBC
:101EE0005B48417C80A004F0FFFC5948817C84A0C1
:101EF00004F0FAFC5648C17C87A004F0F5FC544875
:101F0000017D8BA004F0F0FC5148417D8EA004F0CF
:101F1000EBFC4F48817D92A004F0E6FC4C48C17D6B
:101F200095A004F0E1FC4A48017E99A004F0DCFC95
:101F30004748417E9CA004F0D7FC4548817EA1A083
:101F400004F0D2FC4248C17EA4A004F0CDFC40487D
:101F5000017FA8A004F0C8FC3D48417FABA004F07D
:101F6000C3FC3B48817FAFA004F0BEFC3848C17F72
:101F7000B2A004F0B9FC364820300178B5A004F0D6
:101F8000B3FC334820304178B8A004F0ADFC3048B1
:101F900020308178BBA004F0A7FC2D482030C17808
:101FA000BEA004F0A1FC2A4820300179C1A004F0B1
:101FB0009BFC3AE00A22C5A101A801F0B9FF002864
:101FC00003D1C5A004F090FC2FE00B22C7A101A80B
:101FD00001F0AEFF002803D1C7A004F085FC24E087
:101FE0000622CAA101A801F0A3FF00281DD1C9A0A3
:101FF00004F07AFCC82000F0D5F900BF00BF00BF94
:1020000000BF00BFBFF34F8F00BF00BF00BFC54878
:10201000C549C86000BF00BF00BFBFF34F8F00BFFE
:1020200000BF00BF00BF00BFFDE78022002101A864
:1020300001F09EFF21B0F0BD092057726F6E67500E
:1020400068617365466C616728293A2564200A0037
:10205000BC00002009204C61636B506861736546C9
:102060006C616728293A2564200A0000092057720C
:102070006F6E67506861736554696D6528293A25EC
:1020800064200A0009204C61636B506861736554D9
:10209000696D6528293A2564200A000009204375E6
:1020A000724571756970466C616728293A2564200C
:1020B0000A00000009204375724571756970546902
:1020C0006D6528293A2564200A0000000920466130
:1020D000756C745472697070696E67466C616728BC
:1020E000293A2564200A00000920444939496E70C4
:1020F000757444656C617928293A2564200A0000CA
:10210000092044493130496E70757444656C6179B9
:1021100028293A2564200A00092044493131496EB2
:1021200070757444656C617928293A2564200A0029
:10213000092044493132496E70757444656C617987
:1021400028293A2564200A00092044493133496E80
:1021500070757444656C617928293A2564200A00F9
:10216000092044493134496E70757444656C617955
:1021700028293A2564200A000920444937496E700D
:10218000757444656C617928293A2564200A000039
:102190000920444938496E70757444656C6179282A
:1021A000293A2564200A00000920427574746F6E74
:1021B000496E70757444656C617928293A256420EC
:1021C0000A00000009205230334F75747075744452
:1021D000656628293A2564200A000000092052304B
:1021E000344F757470757444656628293A256420E7
:1021F0000A00000009205230354F75747075744420
:10220000656628293A2564200A000000092044490F
:1022100037496E70757453657428293A2564200A0D
:10222000000000000920444938496E7075745365F8
:102230007428293A2564200A000000000920444936
:1022400039496E70757453657428293A2564200ADB
:1022500000000000092044493130496E7075745304
:10226000657428293A2564200A00000009204449A1
:102270003131496E70757453657428293A2564208C
:102280000A000000092044493132496E70757453C8
:10229000657428293A2564200A0000000920444971
:1022A0003133496E70757453657428293A2564205A
:1022B0000A000000092044493134496E7075745396
:1022C000657428293A2564200A00000073686F7736
:1022D0002064656275670000E68993E5BC806465EB
:1022E000627567E698BEE7A4BA0A0000636C6F7374
:1022F0006520646562756700E585B3E997AD64653F
:10230000627567E698BEE7A4BA0A00007265626F5C
:102310006F740000E6ADA3E59CA8E9878DE590AF5A
:102320000A0000000400FA0500ED00E01CB510A151
:1023300003C901910090082269460FA004F0AAFA8F
:1023400000BF0FA110A004F0CFFA15220F4910A072
:1023500004F0CAFA00BF00BF10A10BA004F0C4FA39
:1023600016220A490AA004F0BFFA00BF1CBD0000F3
:102370001122334455667788746573740000000039
:102380006C6F673D3E000000257300005C6A000032
:1023900025733A25643A200A000000006572723DF8
:1023A0003E000000044A1268111800BF024A126879
:1023B0008A42FBD3704700000000002010B50024C3
:1023C00007E00C216143114A505C002104F0B0FA8F
:1023D000641C0B2CF5DB03220121002000F062FFBE
:1023E00000220121084600F05DFF002201210220A9
:1023F00000F058FF00220121032000F053FF0022CB
:102400000121042000F04EFF10BD00001800002044
:102410000648006904210843044908610846006928
:1024200001210843014908617047000000E000E015
:10243000826A8BB29A438262704702688BB29A4377
:102440000260704782688BB29A438260704742682C
:102450008BB29A4342607047026A8BB29A4302621F
:1024600070470246D0698BB218408BB2984201D1B6
:10247000012070470020FCE70246D0698BB218406B
:102480008BB2984201D1012070470020FCE7000088
:10249000F8B506460C460027002500BF6548864271
:1024A0000BD064484030864207D062488030864274
:1024B00003D06048C030864201D1012000E00020F6
:1024C000002801D100BFFEE700BF00BF2068002840
:1024D00005D959492068884201D8012000E0002030
:1024E000002801D100BFFEE700BF00BF60680328DD
:1024F00008D06068002805D06068012802D06068B4
:10250000022801D1012000E00020002801D100BFF5
:10251000FEE700BF00BFA068012802D0A068002825
:1025200001D1012000E00020002801D100BFFEE71A
:1025300000BF00BFE068002802D0E068012801D198
:10254000012000E00020002801D100BFFEE700BF0D
:1025500080203A49896A0143384A916200BF62E0AB
:102560000121B940206808400546002D5AD0606816
:10257000032812D129463046FFF75FFF294630462F
:10258000FFF765FF29463046FFF75CFF00BFB06AE2
:10259000A9B20843B06200BF2EE029463046FFF7DB
:1025A00047FF6068002806D100BF3068A9B2084321
:1025B000306000BF03E029463046FFF73EFFA068C9
:1025C000002804D129463046FFF73CFF06E000BF53
:1025D000B068A9B20843B06000BF00BFE06800283F
:1025E00006D000BF7068A9B20843706000BF03E066
:1025F00029463046FFF72BFF606802280DD120697D
:10260000012806D100BF306AA9B20843306200BF7A
:1026100003E029463046FFF71FFF2946304662682F
:1026200000F00EF87F1C2068F840002898D10120A7
:10263000F8BD0000000C0040FFFF00000002004059
:1026400030B5C3680C464C4365006419A3430C467F
:102650004C4354432343C36030BD000070B504466F
:102660000D46052600BF5348844202D0524884429A
:1026700001D1012000E00020002801D100BFFEE7C9
:1026800000BF00BF686800280ED0686810280BD013
:102690006868002808D06868402805D06868202845
:1026A00002D06868602801D1012000E000200028E5
:1026B00001D100BFFEE700BF00BF2869002808D095
:1026C000FF2101312869884203D0490028698842E6
:1026D00001D1012000E00020002801D100BFFEE769
:1026E00000BF3448844203D1042000F07DF905E0A6
:1026F0003148844202D1082000F076F96868202829
:1027000004D0402803D0602807D101E000BF00BFFB
:102710002046696800F052F80BE0686821681022D2
:1027200091430143216000BF0021204600F046F89C
:1027300000BF00BFA868E16A090C09040143E16217
:1027400000BF2869216803221202914301432160DE
:1027500000BF2868A16A090C09040143A16200BFF7
:10276000E868012806D100BF206880210843206066
:1027700000BF06E000BF206880218843206000BFC2
:1027800000BF00BF606901210843606100BF00E035
:10279000761E00BF2069C007C00F01214840484095
:1027A000002801D1002EF3D100BF0120206100BF1D
:1027B00070BD000000380140003C01400268602309
:1027C0009A430A4302607047F0B587B005460C464D
:1027D00000200690002600BF5048854201D101200C
:1027E00000E00020002801D100BFFEE700BF00BFCD
:1027F000206800280DD0012109042068884208D0F3
:1028000049002068884204D00321090420688842D6
:1028100001D1012000E00020002801D100BFFEE727
:1028200000BF00BF6068002805D03D49606888424D
:1028300001D8012000E00020002801D100BFFEE700
:1028400000BF0120000600F0B7F80120000535495F
:10285000C96A0143334AD16200BF20681146C96A80
:1028600003221204914301432E4AD16200BF206823
:10287000002807D09113401A08D0401A0AD0401AF5
:1028800010D10BE000F0F4F806900CE000F0BEF977
:10289000069008E000F004FA069004E000F0D8F991
:1028A000069000E000BF00BF606841000698FDF799
:1028B000FDFC461E304669691B4A11400204114363
:1028C000696100BF00BF6969490A49020143696142
:1028D00000BFFEF7EEF9002201239B070191009053
:1028E000FDF740FF0022114B03910290FDF70AFF14
:1028F00005910490FEF790F90746E869400A400206
:102900003843E86100BF00BF044800680121084364
:102910000249086000BF012007B0F0BD002401405B
:1029200040420F0040020040FFFF00FE0000E03F79
:102930000146C868102210400009704710B5FFF723
:1029400067FD00BF0548406A0F2109028843052141
:10295000490240180149486200BF10BD0002004012
:1029600070B505460C462868032801D90320286065
:102970002046002805DBC206D20E01219140094AFB
:10298000116000BF2046296801F0FEFA20460028A9
:1029900006DBC206D20E01219140024A803A116044
:1029A00000BF70BD80E100E00249C96A0143014AED
:1029B000D1627047400200400249096B0143014A5D
:1029C00011637047000200400249096B0143014A4C
:1029D00011637047000200400249096B0143014A3C
:1029E00011637047000200400249496B0143014AEC
:1029F000516370470002004010B5002400BF1B481F
:102A0000C06807210902084005221202811A90427B
:102A100018D006DC00280DD001218902401A1DD1F2
:102A20000CE0C81FF938002810D0FF380138002802
:102A300014D10FE000F034F9044613E000F030F94F
:102A400044080FE000F02CF984080BE000F028F9AE
:102A5000C40807E000F024F9040903E000F020F9BD
:102A6000044600BF00BF204610BD00000002004029
:102A700010B5002400BF1B48C068072109040840A6
:102A800005221204811A904218D006DC00280DD0CD
:102A900001218904401A1DD10CE001200004081A0C
:102AA00010D001210904401A14D10FE0FFF7A4FF50
:102AB000044613E0FFF7A0FF44080FE0FFF79CFF78
:102AC00084080BE0FFF798FFC40807E0FFF794FFC6
:102AD000040903E0FFF790FF044600BF00BF204653
:102AE00010BD00000002004010B5002400BF1B48CC
:102AF000C0680721C90408400522D204811A904207
:102B000018D006DC00280DD001214905401A1DD13E
:102B10000CE00120C004081A10D00121C904401A99
:102B200014D10FE0FFF768FF044613E0FFF764FFDE
:102B300044080FE0FFF760FF84080BE0FFF75CFF3D
:102B4000C40807E0FFF758FF040903E0FFF754FF4C
:102B5000044600BF00BF204610BD00000002004038
:102B600070B50024002500BF264880690221084076
:102B7000002802D0022807D103E000F047F80446FD
:102B800006E02148046803E000F040F8044600BF76
:102B900000BF00BF1B488069702108400107090F72
:102BA00000291FD10011030003F05EFE080506088E
:102BB0000A0C12141A1C16E0640814E0A40812E0AF
:102BC000E40810E00C212046FDF770FB04460AE003
:102BD000240908E018212046FDF768FB044602E0BE
:102BE000640900E000BF00BF00BF064880697F2184
:102BF00009040840000C451C204668430446204652
:102C000070BD00000002004010000020002000BF46
:102C10000B4909690F2212041140002906D0012234
:102C20001204891A04D0891A06D103E0054805E088
:102C3000054803E0054801E0024800BF00BF7047B7
:102C40000002004000127A000024F40000366E01F9
:102C5000002000BF0D49496A0322120411400029D7
:102C600008D001221204891A06D0891A06D0891ABE
:102C700008D105E0064807E0064805E0064803E0FD
:102C8000064801E0024800BF00BF70474002004014
:102C900000093D0040420F0020A1070090D0030032
:102CA00010B5002400BF1448C0684007400F03005F
:102CB00003F0DAFD0705090C1A1014171A00FFF7C4
:102CC000A5FF044614E00D48046811E0FFF748FF33
:102CD00004460DE0FFF7BCFF044609E0084804681D
:102CE00006E00124E40303E0FFF790FF044600BF81
:102CF00000BF204610BD0000000200401000002070
:102D00000C00002070B505460C4600BF7148854296
:102D100002D07148854201D1012000E00020002846
:102D200001D100BFFEE700BF00BF6068002804D0EB
:102D3000FF2101316068884201D1012000E00020BC
:102D4000002801D100BFFEE700BF00BFE0690028F6
:102D500002D0E069042801D1012000E00020002811
:102D600001D100BFFEE700BF00BFA06800280DD062
:102D700001214902A068884208D04900A068884221
:102D800004D003214902A068884201D1012000E05B
:102D90000020002801D100BFFEE700BF00BFA069EE
:102DA000002814D0A069082811D0A06910280ED0DE
:102DB000A06918280BD0A069202808D0A06928286D
:102DC00005D0A069302802D0A069382801D101209F
:102DD00000E00020002801D100BFFEE700BF00BFD7
:102DE0002069002802D02069012801D1012000E0DB
:102DF0000020002801D100BFFEE700BF00BFE0684F
:102E0000002802D0E068022801D1012000E0002063
:102E1000002801D100BFFEE700BF2E48854203D144
:102E20000120FFF7D1FD08E02B48854203D10220A5
:102E3000FFF7CAFD01E0002070BD6069012806D1DE
:102E400000BF686802210843686000BF06E000BF59
:102E5000686802218843686000BF00BF6068296815
:102E6000FF22013291430143296000BFA069296814
:102E7000382291430143296000BFE0692968042298
:102E800091430143296000BFA06869680322520290
:102E900091430143696000BF2069296849084900DE
:102EA0000143296000BF20686968FF220132914315
:102EB0000143696000BFE068296802229143014331
:102EC000296000BF00BF686801210843686000BF37
:102ED0000120B1E7008C014000080140014608696B
:102EE000C007C00F0122504050407047014688691A
:102EF0007047426804239A430A434260704742691C
:102F000041617047F8B505460C4600270020009047
:102F1000002600BFC34885420BD0C348854208D075
:102F2000C248854205D0C248854202D0C148854288
:102F300001D1012000E00020002801D100BFFEE700
:102F400000BF00BF2068002820D0206804281DD0C2
:102F5000206808281AD020680C2817D0206800287C
:102F600014D02068042811D0206808280ED02068CA
:102F70000C280BD02068002808D02068012805D034
:102F80002068022802D02068032801D1012000E037
:102F90000020002801D100BFFEE700BF00BFA068ED
:102FA000002808D0A068402805D0A068802802D05A
:102FB000A068C02801D1012000E00020002801D134
:102FC00000BFFEE700BF00BF2069002805D02069D0
:102FD000102802D02069202801D1012000E0002023
:102FE000002801D100BFFEE700BF00BFE068002855
:102FF00004D0FF210131E068884201D1012000E0C6
:103000000020002801D100BFFEE700BF00BF6069BB
:10301000002808D06069022805D06069012802D024
:103020006069032801D1012000E00020002801D1BF
:1030300000BFFEE700BF7B48854228D120687E495B
:10304000C96A8908890001437B4AD16200BF2068B0
:10305000002806D0012808D002280AD0032810D161
:103060000BE0FFF705FD00900BE0FFF7CFFD0090B0
:1030700007E0FFF715FE009003E0FFF7E9FD009081
:1030800000BF00BF61680098FDF710F9461E664852
:10309000854228D120686849C96A0C2291430143BE
:1030A000654AD16200BF2068002806D0042808D0F5
:1030B00008280AD00C2810D10BE0FFF7D9FC0090AB
:1030C0000BE0FFF7A3FD009007E0FFF7E9FD00909C
:1030D00003E0FFF7BDFD009000BF00BF61680098EE
:1030E000FDF7E4F8461E5148854228D12068524930
:1030F000C96A0C22914301434F4AD16200BF206844
:10310000002806D0042808D008280AD00C2810D19E
:103110000BE0FFF7ADFC00900BE0FFF777FD0090B0
:1031200007E0FFF7BDFD009003E0FFF791FD009081
:1031300000BF00BF61680098FDF7B8F8461E394827
:10314000854206D18015FFF747FCA815FFF72CFC38
:1031500030E03548854206D14015FFF73DFC681543
:10316000FFF722FC26E03148854206D10015FFF723
:1031700033FC2815FFF718FC1CE02D4885420BD1C5
:103180008014FFF729FCFFF7AFFC009061680098FE
:10319000FDF78CF8461E0DE0264885420AD1401402
:1031A000FFF71AFCFFF7A0FC009061680098FDF79C
:1031B0007DF8461E207DC007C00F002806D000BF46
:1031C000286801210843286000BF00BF0221606910
:1031D0000840002805D000BF28680843286000BFC9
:1031E00000BF00BFA869000C00043043A86100BF05
:1031F000E0682968FF22013291430143296000BF42
:10320000A0682968C02291430143296000BF20695A
:103210002968302291430143296000BF01273846C5
:10322000F8BD0000001C01400020014000300140BA
:1032300000A0014000A4014040020040014608698E
:10324000C005C00D7047000000BF0E48C068C00731
:10325000C00F012148404840002811D000BF094854
:103260000069084048404840002809D000BF0120BC
:103270000449086100BF04480068401C0249086016
:1032800070470000003801400000002000BF0448E3
:103290000068012108430249086000BF7047000030
:1032A00000380140FEB504460D4616460D48075D40
:1032B00000200190009001200190002C03D11120EA
:1032C0006946087206E01420684307494018805D8B
:1032D0006946087202A93846019A00F083F8009006
:1032E0000098FEBDE4030020BC030020F8B50746AB
:1032F0000024002F04D0012F16D0022F3FD127E049
:1033000000BF21484068012108431F49486000BFB1
:1033100000BF1D48FFF70CFB0546641C012D02D0C1
:103320001A488442F5D12BE000BF174840680221BB
:1033300008431549486000BF00BF1348FFF7F8FA7B
:103340000546641C012D02D010488442F5D117E0D7
:1033500000BF0D484068042108430B49486000BF86
:1033600000BF00BF0848C06808210840C60800BF69
:10337000641C002E02D105488442F2D100E000BF57
:1033800000BF0020F8BD000000240140FFFF010045
:10339000014600BF12488069000A00020843104A33
:1033A000906100BF00BF00BF0D48C06802221040FE
:1033B00040080028F7D000BF0220094AD06000BFB3
:1033C00000BF1046C068042210408008002800D1C9
:1033D000704700BF0420024AD06000BF0120F7E719
:1033E00000240140F7B582B00F461446802C02DD60
:1033F000FF2005B0F0BD002529E0002001900298D3
:1034000000F021FF002802D0012001900EE00026EC
:1034100009E0B85DFFF7BCFF002802D00120019051
:1034200003E0701CC6B2A642F3DB00BF0220FFF728
:103430005DFF002801D0012001900198002804D1EF
:10344000029803F0F3F9019003E0681CC5B2032D64
:10345000D3DB00BF0198CCE710B50221F748FFF796
:103460000BF8012827D1F64800784007C00F002844
:1034700021D00520FEF796FF0221F048FEF7FCFF61
:10348000012817D1EE48007804218843EC490870E0
:103490000020FEF7B3F900BFEAA1ECA003F024FA84
:1034A0009A22EB49EBA003F01FFA00BF012109208B
:1034B00000F0A6FDA5E00121E048FEF7DDFF0128B0
:1034C00035D1DF4800788007C00F002805D1DC48DF
:1034D00000784007C00F002829D00520FEF762FFC2
:1034E0000121D648FEF7C8FF0128E3D1D44800786F
:1034F00002218843D24908700020FEF753F9D048D2
:10350000007804218843CE4908700020FEF776F940
:103510000121092000F074FD00BFCAA1CBA003F077
:10352000E3F9AB22CA49CBA003F0DEF969E001213F
:10353000C902C248FEF7A0FF00282DD1C04800787C
:103540008007C00F002827D1BD4800784007C00F72
:10355000002821D10520FEF725FF0121C902B74827
:10356000FEF78AFF00284CD1B54800780421884333
:10357000001DB34908700020FEF714F90120FEF782
:103580003DF900BFAFA1B1A003F0AEF9B722B04939
:10359000B0A003F0A9F934E001218902A748FEF7A1
:1035A0006BFF00282DD1A64800788007C00F0028A7
:1035B00027D10520FEF7F6FE012189029F48FEF77C
:1035C0005BFF00281DD19E48007802218843801CA3
:1035D0009B49087008460078042188439849087080
:1035E0000020FEF70BF90120FEF7DCF800BF95A1E3
:1035F00096A003F079F9C422954996A003F074F9D6
:1036000000BF012149028D48FEF736FF01282DD168
:103610008B480078C007C00F002827D00520FEF790
:10362000C1FE012149028548FEF726FF012852D13B
:10363000834800784008400081490870002102203A
:10364000FEF700F901210320FEF7FCF800BF7DA181
:103650007EA003F049F9D0227D497EA003F044F911
:1036600000BF01210B2000F0CBFC34E00121490216
:103670007248FEF701FF00282DD171480078C0077D
:10368000C00F002827D10520FEF78CFE012149023A
:103690006A48FEF7F1FE00281DD16948007840080D
:1036A0004000401C6649087001210220FEF7CAF85C
:1036B00000210320FEF7C6F800BF62A163A003F05B
:1036C00013F9DD22624968A003F00EF900BF002162
:1036D0000B2000F095FC012158488038FEF7CCFE05
:1036E000002814D1564800788007C00F00280ED05B
:1036F0000520FEF757FE012150488038FEF7BCFE3A
:1037000000281FD10021092000F07AFC1AE00121D5
:103710004A488038FEF7B0FE012813D148480078A7
:103720008007C00F00280DD00520FEF73BFE0121C9
:1037300042488038FEF7A0FE012803D1012109206C
:1037400000F05EFC02213D488038FEF795FE00281F
:103750001FD13B4800784007C00F002819D0052032
:10376000FEF720FE022135488038FEF785FE00284E
:1037700036D100BF33A135A003F0B6F8FD2234499D
:103780003EA003F0B1F800BF0021092000F038FC92
:1037900026E0022129488038FEF76EFE01281FD15D
:1037A000274800784007C00F002819D00520FEF7F1
:1037B000F9FD022121488038FEF75EFE01280FD175
:1037C00000BF20A121A003F08FF8FF22083220497A
:1037D0002FA003F089F800BF0121092000F010FCA0
:1037E000202116488038FEF747FE00280DD105201D
:1037F000FEF7D8FD202111488038FEF73DFE002855
:1038000003D10021082000F0FBFB20210B48803869
:10381000FEF732FE01280DD10520FEF7C3FD202161
:1038200006488038FEF728FE012803D10121082030
:1038300000F0E6FB00F036F810BD0000C00C0040C0
:10384000A00400206C6F673D3E000000257300005F
:10385000BA6A000025733A25643A20554F435F4405
:1038600049303A300A00000025733A25643A205561
:103870004F435F4449303A310A00000025733A252E
:10388000643A20E58F8DE9A6883A300A00000000EE
:1038900025733A25643A20E58F8DE9A6883A310AE6
:1038A0000000000000B513480078C007C00F0028D2
:1038B0000CD100210220FDF7C5FF01210320FDF7F7
:1038C000C1FF01210B2000F09BFB11E009480078AB
:1038D000C007C00F00280BD001210220FDF7B2FF66
:1038E00000210320FDF7AEFF00210B2000F088FB34
:1038F00000BD0000A004002010B500F005F800F0A5
:10390000CFF801F097F810BD10B540214948FEF7F7
:10391000A8FD00281CD148480078002818D10A20AA
:10392000FEF740FD40214348FEF79BFD00287FD174
:103930000120414908704149087000BF40A142A0E0
:1039400002F0D2FF6622414941A002F0CDFF6FE0B4
:1039500080213848FEF785FD00281DD13648407883
:10396000002819D10A20FEF71DFD80213148FEF7FD
:1039700078FD00285CD101202F49487002202F4992
:10398000087000BF2EA130A002F0AEFF71222F49B7
:1039900034A002F0A9FF4BE0FF2101312548FEF7DA
:1039A00060FD00281ED12448807800281AD10A2002
:1039B000FEF7F8FCFF2101311E48FEF752FD0028FA
:1039C00036D101201C49887003201C49087000BFB3
:1039D0001BA11DA002F088FF7B221C4926A002F03B
:1039E00083FF25E0012149021248FEF73AFD002835
:1039F0001ED11148C07800281AD10A20FEF7D2FC47
:103A0000012149020B48FEF72CFD002810D10120AE
:103A10000949C87004200949087000BF08A10AA01C
:103A200002F062FF8522094918A002F05DFF00BF85
:103A300010BD0000800C0040E4000020E8000020E1
:103A40006C6F673D3E00000025730000A46A000013
:103A500025733A25643A206B65793120646F776E5F
:103A60000A00000025733A25643A206B65793220FC
:103A7000646F776E0A00000025733A25643A206B64
:103A800065793320646F776E0A00000025733A254C
:103A9000643A206B65793420646F776E0A00000009
:103AA00010B540214548FEF7DCFC01281AD14448F6
:103AB0000078012816D10A20FEF774FC40213F4807
:103AC000FEF7CFFC012877D100203D49087000BFE8
:103AD0003CA13EA002F008FF91223D493DA002F02A
:103AE00003FF69E080213548FEF7BBFC01281AD1AD
:103AF00033484078012816D10A20FEF753FC802174
:103B00002E48FEF7AEFC012856D100202C49487003
:103B100000BF2CA12DA002F0E7FE9A222C4931A073
:103B200002F0E2FE48E0FF2101312448FEF799FC53
:103B300001281BD122488078012817D10A20FEF7DE
:103B400031FCFF2101311D48FEF78BFC012833D1E8
:103B500000201B49887000BF1AA11CA002F0C4FEFF
:103B6000A3221B4923A002F0BFFE25E00121490248
:103B70001248FEF776FC01281ED11148C0780128B2
:103B80001AD10A20FEF70EFC012149020B48FEF76C
:103B900068FC012810D100200949C87000BF09A1A4
:103BA0000AA002F0A1FEAC22094916A002F09CFE78
:103BB00000BF184800F04AFA10BD0000800C004019
:103BC000E40000206C6F673D3E000000257300009C
:103BD000AE6A000025733A25643A206B657931207E
:103BE00075700A0025733A25643A206B6579322096
:103BF00075700A0025733A25643A206B6579332085
:103C000075700A0025733A25643A206B6579342073
:103C100075700A005A0000C900B585B00F208001F8
:103C20000090002001900290012003900020049059
:103C300069460248FEF72CFC05B000BD800C004030
:103C400004200B49896A0143094A916200BF0020A0
:103C50000849096B490A49020143064A116300BF3A
:103C600004200349896A8143014A916200BF704779
:103C7000000200400010014010B500F0F7F800F01D
:103C8000C5F800F06DF8FFF7C7FF00F08FF800F0FF
:103C900017F800F069F800F0DBF8FFF7F7FA00BF5B
:103CA000FF2001300549886000BF00BF084640681A
:103CB000891508430149486000BF10BD002001403C
:103CC00000B585B0224800900020019002900120AC
:103CD00003900020049069461E48FEF7D9FB02209D
:103CE0000090002001900290012003900020049099
:103CF000694618484030FEF7CBFB1748009000207B
:103D00000190029001200390002004906946114820
:103D10008030FEF7BDFB7C20009001200190002048
:103D200002900390049069460A488030FEF7B0FB89
:103D30000A48009001200190002002900390049016
:103D4000694604484038FEF7A3FB05B000BD0000FB
:103D5000FF100000400C0040030E0000F9E10000DD
:103D600010B500F0B1F810BD00B585B00720009087
:103D7000002001907D20C00002900020039004905C
:103D800069460948FEF76AFC00BF01200649086140
:103D900000BF00BF0846C068012108430249C8604F
:103DA00000BF05B000BD00000038014000B587B07D
:103DB0001020029002200390012004900020059022
:103DC0000120069002A90E48FEF762FB2020029017
:103DD000022003900120049000200590012006900D
:103DE00002A90748FEF754FB012000040090054893
:103DF000019069460448FEF7E7FC07B000BD0000EB
:103E0000800C0040409C00000024014000B585B0BB
:103E1000FF20FF30009001200190002002900390CD
:103E2000049069460948FEF733FB072080020090A2
:103E300001200190002002900390049069460348FD
:103E40008030FEF725FB05B000BD0000000C0040EF
:103E500008B5002000901A216846FEF781FD022077
:103E600000900B216846FEF77BFD08BD00B58DB0C4
:103E70000F20000208900220099000200A900120E3
:103E80000B9000200C9008A90C48FEF701FB0020C5
:103E90000090FF200130019003204002029000209A
:103EA00003900120049005900820069000200790C0
:103EB00069460348FEF726FF0DB000BD400C0040E8
:103EC000008C01407047000000B58BB001208003DA
:103ED0000690022007900020089009900A9006A9F9
:103EE0001148FEF7D5FA0120400306900220079002
:103EF0000020089009900A9006A90B48FEF7C8FA1E
:103F000000200090E120400201904020029000201B
:103F10000390102004900320059069460348FEF7A3
:103F2000F1FF0BB000BD0000400C0040002001403C
:103F3000F0B503460C461D462646002107E0685CA6
:103F4000775CB84201D00120F0BD481C81B291429B
:103F5000F5DB0020F8E770B50B4604461D4600214E
:103F600003E06E5C66544E1CB1B29142F9DB70BD49
:103F700030B50B460446002102E063544D1CA9B243
:103F80009142FADB30BD000010B5002819DB1A4A57
:103F900003231B02D21883089B00D2588307DC0E30
:103FA000FF23A3409A438B071B0E8407E40EA34014
:103FB0001A43114B032424021B198408A4001A512C
:103FC00018E00E4A03071B0F083B9B089B00D258C2
:103FD0008307DC0EFF23A3409A438B071B0E840745
:103FE000E40EA3401A43054B0407240F083CA40821
:103FF000A4001A5110BD000000E100E01CED00E03B
:1040000030B500290ED10C2444430F4D6419626869
:104010000C2444436419238994699DB22C43946110
:1040200000BF10E001290ED10C244443064D641951
:1040300062680C2444436419238954699DB22C435B
:10404000546100BF00BF30BDEC03002070B50546D1
:104050000024294800F086F8284800F083F8284812
:1040600000F080F8274800F07DF82348401F00F05A
:1040700079F8254800F076F80120000600F0B4F841
:10408000044600BF21A123A002F02EFC23467E227D
:10409000214922A002F028FC00BF0320000600F006
:1040A000A3F8044600BF19A11AA002F01DFC234684
:1040B000802219491FA002F017FC00BF3120000622
:1040C00000F092F8044600BF10A112A002F00CFC10
:1040D0002346822210491DA002F006FC00BF0A48B8
:1040E000401F00F03FF8002000F03CF8002000F0F6
:1040F0005FF80446204670BD5A0000C97EB90081B1
:1041000004F80083273400B15A0000C66C6F673D85
:104110003E00000025730000956A000025733A25D3
:10412000643A3078303120646174613A25303878EF
:104130000A00000025733A25643A30783033206451
:104140006174613A253038780A00000025733A25F9
:10415000643A3078333120646174613A25303878BC
:104160000A00000010B5044600211048FEF7C1FE09
:1041700021460E48FEF7C3FE00BF00BF0B48006992
:104180000221084040080028F7D000BF0748FEF78A
:10419000A5FE0028FAD00548FEF7A8FE0446042133
:1041A0000248FEF7A6FE204610BD0000008C01402C
:1041B00070B5054600210B48FEF79BFE002109481B
:1041C000FEF79DFE00BF0748FEF788FE0028FAD0E4
:1041D0000448FEF78BFE044604210248FEF789FEE0
:1041E000204670BD008C014070B504460025204675
:1041F000FFF7B8FF2046FFF7DBFF0546284670BDF6
:10420000F7B50D461646002405E02F5D39460098A7
:1042100000F004F8641CB442F7D3FEBD00BF42694D
:10422000520A52020A43426100BF00BF00BF8268C7
:1042300002231A405208002AF8D0002200E0521C43
:104240000A2AFCDB704770B5044626460020FFF7BB
:104250004DF80546002D01D0012070BD3046FFF716
:1042600097F80546002D01D00220F6E70020F4E77C
:1042700010B50848FFF7EAFE044600BF06A108A0F3
:1042800002F032FB23461D22064907A002F02CFB58
:1042900000BF10BD5A0000C96572723D3E000000AB
:1042A000257300006F6A000025733A25643A206484
:1042B0006174613A253038780A00000010B52E4844
:1042C000C0684007400F030002F0CEFA0739050A24
:1042D000390F2F343900294800682949086048E01F
:1042E00000F0F2F82649086043E023484030406A75
:1042F0008003800F002806D0012808D002280AD0A9
:10430000032810D10BE01F481D4908600BE01E4830
:104310001B49086007E01D481949086003E01C4874
:104320001749086000BF00BF23E01A48006814491D
:1043300008601EE00120C0031149086019E00E4822
:1043400000690003000F00280DD0012802D00228C8
:1043500008D103E010480A49086008E00F480849FE
:10436000086004E000BF0E480549086000BF00BFB8
:1043700000BF00BF10BD0000000200401000002080
:104380001400002000093D0040420F0020A107005A
:1043900090D003000C0000200024F40000366E01D1
:1043A00000127A0010B500204149886105204006BE
:1043B000C8600846806A802108433D4988623D48BC
:1043C000C0680F21890408433A49C8600020384971
:1043D00048620846406A0521090208433449486298
:1043E000354C00E0641E002CFCD13148C06801212E
:1043F000C90608432E49C860AA20886301202F49B6
:1044000008600C2048600320C90448602C480068FC
:10441000000C2B490988C94389B2884202D1284837
:10442000006800E040204006400E214948612448D1
:104430004068000C22498988C94389B2884202D168
:104440001F48406800E040204006400E18494031B7
:1044500088621B484038006A000C19494039098CB1
:10446000C94389B2884203D115484038006A00E048
:104470008020C0B20E4908620E484068FF21813199
:1044800008430C4948600A48C06A1021084308499B
:10449000C8620C48C06B091508430A49C863044840
:1044A000C06A102188430249C862FFF707FF10BDA8
:1044B00000020040C00C0040204E000000A8014057
:1044C00040FBFF1F0004004010B500242A4880690B
:1044D0008007C00F002802D0012817D113E026481A
:1044E00000690003000F002809D0012802D002282B
:1044F00004D101E0214C04E0214C02E000BF214C3A
:1045000000BF00BF02E02048046800BF00BF1A4897
:1045100080694006400F030002F0A6F9080507096C
:104520000B0D13151B1D00BF15E0640813E0A40854
:1045300011E0E4080FE00C212046FBF7B7FE04462B
:1045400009E0240907E018212046FBF7AFFE0446E6
:1045500001E0640900BF00BF074880694002400EC7
:10456000401C4443044880690007C00F002800D065
:104570006400204610BD0000000200400024F4004A
:1045800000366E0100127A001000002070B500BFE6
:1045900028484068FF2101310840000A002847D020
:1045A00000BF244880680840000A002840D0224804
:1045B0004068007F0007000F1F494968C98B891CAC
:1045C000484386B21C484068406984192088800BA3
:1045D000002822D100BF184949680868FEF72EFE5E
:1045E000C5B220888004800C13494968C98B884271
:1045F00012DA20888104890CA01C45542088800B85
:1046000080032188491C8904890C084320800B48B9
:10461000006809494968C86200BF2088800B0028EB
:1046200005DD054949680868FEF708FEC5B200BF08
:1046300070BD000000200140A00300200000002009
:10464000F8B50446A00054490858007F0007000F41
:10465000A100514A5158C98B891C484387B2A00018
:10466000114608584069C5192888800B002834D1A4
:1046700028888004800C00282FDDA0000858C06A1C
:10468000A1005158498C401844490968884224D2F5
:1046900028880321890388430121C9034018288001
:1046A000A2003D4B9A58127F1109A2009A58127F1E
:1046B0001207120F501CFBF703FE0807000F0090B3
:1046C000A00035490858007F0009000100990843FF
:1046D000A100314A515808773DE02888800B002816
:1046E0002BD128888004800CA1002B4A5158C98BFB
:1046F000884222DB288803218903884340182880C8
:10470000A200254B9A58127F1109A2009A58127FD5
:104710001207120F501CFBF7D3FD0807000F009083
:10472000A0001D490858007F0009000100990843B6
:10473000A100194A515808770DE02888800B0028FD
:1047400009DD28888004800C002804D128880321F2
:10475000890388432880002614E0A0000E490858E9
:10476000C08B801C704387B2A00008584069C519EF
:104770002888800B002803DD28888004800CF8BD81
:10478000701CC6B2A00004490858007F0009B0425E
:10479000E3DC0020F3E70000A0030020000000207D
:1047A000F7B581B00546174600200090A800524991
:1047B0000858007F0007000FA9004F4A5158097F91
:1047C0000909884208DBA80011460858007F000943
:1047D0000001A90051580877A80047490858007FF0
:1047E0000607360F3AE0A80043490858C08B801CE2
:1047F000704380B20090A8000858416900980C18D6
:104800002088800B002827DD20888004800C002869
:1048100022DD20888004800CB84202DA20888704D8
:10482000BF0C3A46A11C0298FFF795FB2088800B2D
:1048300080032188C91B8904890C084320802088B3
:104840008004800C002804D1208803218903884338
:104850002080384604B0F0BD701CC6B2A8002649BE
:104860000858007F0009B042BDDC002639E0A800EE
:1048700021490858C08B801C704380B20090A8006A
:104880000858416900980C182088800B002826DD04
:1048900020888004800C002821DD20888004800C82
:1048A000B84202DA20888704BF0C3A46A11C02985D
:1048B000FFF751FB2088800B80032188C91B8904E6
:1048C000890C0843208020888004800C002804D1B3
:1048D000208803218903884320803846BAE7701C6A
:1048E000C6B2A80004490858007F0007000FB04274
:1048F000BDDC0020AEE70000A003002010B510488A
:104900000078012804D0032808D0042814D106E038
:1049100047200C498870002048700EE00DE000210F
:10492000082002F005F800200649487047208870EA
:1049300000200349087000E000BF00BF10BD000068
:10494000E8000020EC00002010B525480078012880
:1049500006D002280FD0032829D004283CD134E007
:104960000120204948700846007B402188434030A0
:104970001C49087331E01B480078401C1949087035
:1049800008780A21FBF79CFC002904D1154800781F
:104990000A3814490870134908784621FBF790FC3F
:1049A000C8B21049087000200D49087015E00D4983
:1049B000097808460A304621FBF782FCC8B209494B
:1049C000087000200649087007E046200549087075
:1049D00000200349087000E000BF00BF10BD0000C8
:1049E000E8000020EC00002010B50446002C06D0A2
:1049F000012C0AD0022C0ED0032C18D111E0132266
:104A000000210420FEF74EFC12E0132200210320B7
:104A1000FEF748FC0CE0132200210220FEF742FCC6
:104A200006E0132200210120FEF73CFC00E000BF5D
:104A300000BF10BD70B51B4800781A4989788842BC
:104A400018D018480078174988700846007846281A
:104A500010D008780A21FBF733FCCCB21149087852
:104A60000A21FBF72DFCC5B223462A460F2113204D
:104A700000F0DEF80B480078462806D00948407858
:104A8000002802D1FFF760FF09E0064800784628B9
:104A900005D004484078012801D1FFF72FFF00F02E
:104AA00003F870BDEC000020F8B5002400BF0DE055
:104AB0005C480078E1005C4A515C884204D1E10026
:104AC00089184868804703E0601CC4B2472CEFDBBC
:104AD00000BF54480078462800D1F8BD514880688E
:104AE0005249096888427DD24E48407801286CD1ED
:104AF0004C48007B4006C00F00285AD04948007B34
:104B00004021884347490873E000474940184078EE
:104B1000012804D002280FD0032849D124E04149BC
:104B200048680A21FBF7C2FB0D462B4613221146AB
:104B3000104600F07DF83BE03A4948680A21FBF74F
:104B4000B5FB0E46374948686421FBF7AFFB0F46BB
:104B50000A213846FBF7AAFB054633462A461321AD
:104B6000084600F065F823E02E4948680A21FBF763
:104B70009DFB00912B4948686421FBF797FB0F468A
:104B80000A213846FBF792FB0546264948687D21F5
:104B9000C900FBF78BFB0F4664213846FBF786FB09
:104BA000C6B22A4631461320009B00F041F800BFF0
:104BB0000BE01C48007B40218843403019490873B2
:104BC000097B8806800EFFF70FFF1648007BC0099F
:104BD000002810D01348007B8021884311490873B6
:104BE000012100E01CE0092001F0A2FE01210A20C1
:104BF00001F09EFE0EE00B48007B80218843803050
:104C00000849087301210A2001F092FE01210920C0
:104C100001F08EFE05480068FF30F53001498860DC
:104C200000BF5AE7EC000020FC000020000000203C
:104C3000F8B504460D4617461E46224600210120BF
:104C4000FEF730FB2A4600210220FEF72BFB3A46F6
:104C500000210320FEF726FB324600210420FEF748
:104C600021FBF8BD21480078012806D002281BD07E
:104C7000032829D004282FD12DE01D484078012891
:104C800009D11C4800781A4948600846007B800911
:104C90008001087307E016484078002803D11448C3
:104CA00000791449087018E01148407801280AD1A9
:104CB0000F484068401C0E4948600846406802287A
:104CC00001D90120486008E00948007B8009800183
:104CD0000749087301E000E000BF00BF0348007807
:104CE000002802D00020014908707047E800002029
:104CF000EC0000209C00002070B53D4800780128A1
:104D000006D002281BD003284ED0042865D163E0CA
:104D100038484078012809D13748408835494860EB
:104D20000846007B80098001087307E0314840781D
:104D3000002803D12F4880882F4948804EE02D4815
:104D4000407801282FD10124002500BF03E00A206C
:104D50004443681CC5B22748007B8006800EA842E9
:104D6000F5DC00BF25A127A001F0BEFD2148007B96
:104D70008206920E214624A001F0B6FD00BF1D4917
:104D8000496808192349FBF791FA1A48416000BFA6
:104D90001AA11CA001F0A8FD164841681EA001F050
:104DA000A3FD00BF00BF19E01248007B800980010D
:104DB0001049097B491C8906890E08430D4908736F
:104DC0000846007B8006800E032804DD0846007B31
:104DD00080098001087301E000E000BF00BF0448C3
:104DE0000078002802D000200149087070BD000042
:104DF000E8000020EC0000209C0000206C6F673D64
:104E00003E00000025730000646174613D25640A62
:104E10000000000010270000554F43506172612EC2
:104E2000706172655F6E756D3D25640A000000005B
:104E300070B53D480078012806D002281BD0032811
:104E40004ED0042865D163E038484078012809D164
:104E500037488088354948600846007B80098001D2
:104E6000087307E031484078002803D12F48808834
:104E70002F4988804EE02D48407801282FD1012409
:104E8000002500BF03E00A204443681CC5B2274840
:104E9000007B8006800EA842F5DC00BF25A127A07C
:104EA00001F022FD2148007B8206920E214624A0BB
:104EB00001F01AFD00BF1D49496808192349FBF795
:104EC000F5F91A48416000BF1AA11CA001F00CFDC1
:104ED000164841681EA001F007FD00BF00BF19E0A1
:104EE0001248007B800980011049097B491C890612
:104EF000890E08430D4908730846007B8006800E22
:104F0000032804DD0846007B80098001087301E066
:104F100000E000BF00BF04480078002802D0002055
:104F20000149087070BD0000E8000020EC0000207E
:104F30009C0000206C6F673D3E0000002573000060
:104F4000646174613D25640A0000000010270000C0
:104F5000554F43506172612E706172655F6E756D61
:104F60003D25640A000000000C480078012806D0A6
:104F7000022805D0032804D0042804D102E003E06D
:104F800002E001E000E000BF00BF04480078002814
:104F900002D000200149087070470000E80000209E
:104FA0000C480078012806D0022805D0032804D038
:104FB000042804D102E003E002E001E000E000BFC9
:104FC00000BF04480078002802D000200149087082
:104FD00070470000E80000200C480078012806D047
:104FE000022805D0032804D0042804D102E003E0FD
:104FF00002E001E000E000BF00BF044800780028A4
:1050000002D000200149087070470000E80000202D
:105010000C480078012806D0022805D0032804D0C7
:10502000042804D102E003E002E001E000E000BF58
:1050300000BF04480078002802D000200149087011
:1050400070470000E80000200C480078012806D0D6
:10505000022805D0032804D0042804D102E003E08C
:1050600002E001E000E000BF00BF04480078002833
:1050700002D000200149087070470000E8000020BD
:105080000C480078012806D0022805D0032804D057
:10509000042804D102E003E002E001E000E000BFE8
:1050A00000BF04480078002802D0002001490870A1
:1050B00070470000E80000200C480078012806D066
:1050C000022805D0032804D0042804D102E003E01C
:1050D00002E001E000E000BF00BF044800780028C3
:1050E00002D000200149087070470000E80000204D
:1050F0000C480078012806D0022805D0032804D0E7
:10510000042804D102E003E002E001E000E000BF77
:1051100000BF04480078002802D000200149087030
:1051200070470000E80000200C480078012806D0F5
:10513000022805D0032804D0042804D102E003E0AB
:1051400002E001E000E000BF00BF04480078002852
:1051500002D000200149087070470000E8000020DC
:105160000C480078012806D0022805D0032804D076
:10517000042804D102E003E002E001E000E000BF07
:1051800000BF04480078002802D0002001490870C0
:1051900070470000E80000200C480078012806D085
:1051A000022805D0032804D0042804D102E003E03B
:1051B00002E001E000E000BF00BF044800780028E2
:1051C00002D000200149087070470000E80000206C
:1051D0000C480078012806D0022805D0032804D006
:1051E000042804D102E003E002E001E000E000BF97
:1051F00000BF04480078002802D000200149087050
:1052000070470000E80000200C480078012806D014
:10521000022805D0032804D0042804D102E003E0CA
:1052200002E001E000E000BF00BF04480078002871
:1052300002D000200149087070470000E8000020FB
:105240000C480078012806D0022805D0032804D095
:10525000042804D102E003E002E001E000E000BF26
:1052600000BF04480078002802D0002001490870DF
:1052700070470000E80000200C480078012806D0A4
:10528000022805D0032804D0042804D102E003E05A
:1052900002E001E000E000BF00BF04480078002801
:1052A00002D000200149087070470000E80000208B
:1052B0000C480078012806D0022805D0032804D025
:1052C000042804D102E003E002E001E000E000BFB6
:1052D00000BF04480078002802D00020014908706F
:1052E00070470000E80000200C480078012806D034
:1052F000022805D0032804D0042804D102E003E0EA
:1053000002E001E000E000BF00BF04480078002890
:1053100002D000200149087070470000E80000201A
:105320000C480078012806D0022805D0032804D0B4
:10533000042804D102E003E002E001E000E000BF45
:1053400000BF04480078002802D0002001490870FE
:1053500070470000E80000200C480078012806D0C3
:10536000022805D0032804D0042804D102E003E079
:1053700002E001E000E000BF00BF04480078002820
:1053800002D000200149087070470000E8000020AA
:105390000C480078012806D0022805D0032804D044
:1053A000042804D102E003E002E001E000E000BFD5
:1053B00000BF04480078002802D00020014908708E
:1053C00070470000E80000200C480078012806D053
:1053D000022805D0032804D0042804D102E003E009
:1053E00002E001E000E000BF00BF044800780028B0
:1053F00002D000200149087070470000E80000203A
:105400000C480078012806D0022805D0032804D0D3
:10541000042804D102E003E002E001E000E000BF64
:1054200000BF04480078002802D00020014908701D
:1054300070470000E80000200C480078012806D0E2
:10544000022805D0032804D0042804D102E003E098
:1054500002E001E000E000BF00BF0448007800283F
:1054600002D000200149087070470000E8000020C9
:105470000C480078012806D0022805D0032804D063
:10548000042804D102E003E002E001E000E000BFF4
:1054900000BF04480078002802D0002001490870AD
:1054A00070470000E80000200C480078012806D072
:1054B000022805D0032804D0042804D102E003E028
:1054C00002E001E000E000BF00BF044800780028CF
:1054D00002D000200149087070470000E800002059
:1054E0000C480078012806D0022805D0032804D0F3
:1054F000042804D102E003E002E001E000E000BF84
:1055000000BF04480078002802D00020014908703C
:1055100070470000E80000200C480078012806D001
:10552000022805D0032804D0042804D102E003E0B7
:1055300002E001E000E000BF00BF0448007800285E
:1055400002D000200149087070470000E8000020E8
:105550000C480078012806D0022805D0032804D082
:10556000042804D102E003E002E001E000E000BF13
:1055700000BF04480078002802D0002001490870CC
:1055800070470000E80000200C480078012806D091
:10559000022805D0032804D0042804D102E003E047
:1055A00002E001E000E000BF00BF044800780028EE
:1055B00002D000200149087070470000E800002078
:1055C0000C480078012806D0022805D0032804D012
:1055D000042804D102E003E002E001E000E000BFA3
:1055E00000BF04480078002802D00020014908705C
:1055F00070470000E80000200C480078012806D021
:10560000022805D0032804D0042804D102E003E0D6
:1056100002E001E000E000BF00BF0448007800287D
:1056200002D000200149087070470000E800002007
:105630000C480078012806D0022805D0032804D0A1
:10564000042804D102E003E002E001E000E000BF32
:1056500000BF04480078002802D0002001490870EB
:1056600070470000E80000200C480078012806D0B0
:10567000022805D0032804D0042804D102E003E066
:1056800002E001E000E000BF00BF0448007800280D
:1056900002D000200149087070470000E800002097
:1056A0000C480078012806D0022805D0032804D031
:1056B000042804D102E003E002E001E000E000BFC2
:1056C00000BF04480078002802D00020014908707B
:1056D00070470000E80000200C480078012806D040
:1056E000022805D0032804D0042804D102E003E0F6
:1056F00002E001E000E000BF00BF0448007800289D
:1057000002D000200149087070470000E800002026
:105710000C480078012806D0022805D0032804D0C0
:10572000042804D102E003E002E001E000E000BF51
:1057300000BF04480078002802D00020014908700A
:1057400070470000E80000200C480078012806D0CF
:10575000022805D0032804D0042804D102E003E085
:1057600002E001E000E000BF00BF0448007800282C
:1057700002D000200149087070470000E8000020B6
:105780000C480078012806D0022805D0032804D050
:10579000042804D102E003E002E001E000E000BFE1
:1057A00000BF04480078002802D00020014908709A
:1057B00070470000E80000200C480078012806D05F
:1057C000022805D0032804D0042804D102E003E015
:1057D00002E001E000E000BF00BF044800780028BC
:1057E00002D000200149087070470000E800002046
:1057F0000C480078012806D0022805D0032804D0E0
:10580000042804D102E003E002E001E000E000BF70
:1058100000BF04480078002802D000200149087029
:1058200070470000E80000200C480078012806D0EE
:10583000022805D0032804D0042804D102E003E0A4
:1058400002E001E000E000BF00BF0448007800284B
:1058500002D000200149087070470000E8000020D5
:105860000C480078012806D0022805D0032804D06F
:10587000042804D102E003E002E001E000E000BF00
:1058800000BF04480078002802D0002001490870B9
:1058900070470000E80000200C480078012806D07E
:1058A000022805D0032804D0042804D102E003E034
:1058B00002E001E000E000BF00BF044800780028DB
:1058C00002D000200149087070470000E800002065
:1058D0000C480078012806D0022805D0032804D0FF
:1058E000042804D102E003E002E001E000E000BF90
:1058F00000BF04480078002802D000200149087049
:1059000070470000E80000200C480078012806D00D
:10591000022805D0032804D0042804D102E003E0C3
:1059200002E001E000E000BF00BF0448007800286A
:1059300002D000200149087070470000E8000020F4
:105940000C480078012806D0022805D0032804D08E
:10595000042804D102E003E002E001E000E000BF1F
:1059600000BF04480078002802D0002001490870D8
:1059700070470000E80000200C480078012806D09D
:10598000022805D0032804D0042804D102E003E053
:1059900002E001E000E000BF00BF044800780028FA
:1059A00002D000200149087070470000E800002084
:1059B0000C480078012806D0022805D0032804D01E
:1059C000042804D102E003E002E001E000E000BFAF
:1059D00000BF04480078002802D000200149087068
:1059E00070470000E80000200C480078012806D02D
:1059F000022805D0032804D0042804D102E003E0E3
:105A000002E001E000E000BF00BF04480078002889
:105A100002D000200149087070470000E800002013
:105A20000C480078012806D0022805D0032804D0AD
:105A3000042804D102E003E002E001E000E000BF3E
:105A400000BF04480078002802D0002001490870F7
:105A500070470000E80000200C480078012806D0BC
:105A6000022805D0032804D0042804D102E003E072
:105A700002E001E000E000BF00BF04480078002819
:105A800002D000200149087070470000E8000020A3
:105A90000C480078012806D0022805D0032804D03D
:105AA000042804D102E003E002E001E000E000BFCE
:105AB00000BF04480078002802D000200149087087
:105AC00070470000E80000200C480078012806D04C
:105AD000022805D0032804D0042804D102E003E002
